{
  "contractName": "MetaCoin",
  "abi": [
    {
      "inputs": [],
      "payable": false,
      "stateMutability": "nonpayable",
      "type": "constructor"
    },
    {
      "anonymous": false,
      "inputs": [
        {
          "indexed": true,
          "internalType": "address",
          "name": "_from",
          "type": "address"
        },
        {
          "indexed": true,
          "internalType": "address",
          "name": "_to",
          "type": "address"
        },
        {
          "indexed": false,
          "internalType": "uint256",
          "name": "_value",
          "type": "uint256"
        }
      ],
      "name": "Transfer",
      "type": "event"
    },
    {
      "constant": false,
      "inputs": [],
      "name": "getMyNum",
      "outputs": [
        {
          "internalType": "uint32",
          "name": "",
          "type": "uint32"
        }
      ],
      "payable": false,
      "stateMutability": "nonpayable",
      "type": "function"
    },
    {
      "constant": false,
      "inputs": [
        {
          "internalType": "address",
          "name": "receiver",
          "type": "address"
        },
        {
          "internalType": "uint256",
          "name": "amount",
          "type": "uint256"
        }
      ],
      "name": "sendCoin",
      "outputs": [
        {
          "internalType": "bool",
          "name": "sufficient",
          "type": "bool"
        }
      ],
      "payable": false,
      "stateMutability": "nonpayable",
      "type": "function"
    },
    {
      "constant": true,
      "inputs": [
        {
          "internalType": "address",
          "name": "addr",
          "type": "address"
        }
      ],
      "name": "getBalanceInEth",
      "outputs": [
        {
          "internalType": "uint256",
          "name": "",
          "type": "uint256"
        }
      ],
      "payable": false,
      "stateMutability": "view",
      "type": "function"
    },
    {
      "constant": true,
      "inputs": [
        {
          "internalType": "address",
          "name": "addr",
          "type": "address"
        }
      ],
      "name": "getBalance",
      "outputs": [
        {
          "internalType": "uint256",
          "name": "",
          "type": "uint256"
        }
      ],
      "payable": false,
      "stateMutability": "view",
      "type": "function"
    }
  ],
  "bytecode": "0x608060405234801561001057600080fd5b506127106000803273ffffffffffffffffffffffffffffffffffffffff1673ffffffffffffffffffffffffffffffffffffffff16815260200190815260200160002081905550610414806100656000396000f3fe608060405234801561001057600080fd5b506004361061004c5760003560e01c80631a69332a146100515780637bd703e81461007b57806390b98a11146100d3578063f8b2cb4f14610139575b600080fd5b610059610191565b604051808263ffffffff1663ffffffff16815260200191505060405180910390f35b6100bd6004803603602081101561009157600080fd5b81019080803573ffffffffffffffffffffffffffffffffffffffff16906020019092919050505061019a565b6040518082815260200191505060405180910390f35b61011f600480360360408110156100e957600080fd5b81019080803573ffffffffffffffffffffffffffffffffffffffff1690602001909291908035906020019092919050505061023e565b604051808215151515815260200191505060405180910390f35b61017b6004803603602081101561014f57600080fd5b81019080803573ffffffffffffffffffffffffffffffffffffffff169060200190929190505050610397565b6040518082815260200191505060405180910390f35b6000600a905090565b600073__ConvertLib____________________________6396e4ee3d6101bf84610397565b60026040518363ffffffff1660e01b8152600401808381526020018281526020019250505060206040518083038186803b1580156101fc57600080fd5b505af4158015610210573d6000803e3d6000fd5b505050506040513d602081101561022657600080fd5b81019080805190602001909291905050509050919050565b6000816000803373ffffffffffffffffffffffffffffffffffffffff1673ffffffffffffffffffffffffffffffffffffffff16815260200190815260200160002054101561028f5760009050610391565b816000803373ffffffffffffffffffffffffffffffffffffffff1673ffffffffffffffffffffffffffffffffffffffff16815260200190815260200160002060008282540392505081905550816000808573ffffffffffffffffffffffffffffffffffffffff1673ffffffffffffffffffffffffffffffffffffffff168152602001908152602001600020600082825401925050819055508273ffffffffffffffffffffffffffffffffffffffff163373ffffffffffffffffffffffffffffffffffffffff167fddf252ad1be2c89b69c2b068fc378daa952ba7f163c4a11628f55a4df523b3ef846040518082815260200191505060405180910390a3600190505b92915050565b60008060008373ffffffffffffffffffffffffffffffffffffffff1673ffffffffffffffffffffffffffffffffffffffff16815260200190815260200160002054905091905056fea265627a7a723158205cd7b784669d343eeff432a3ec9179d622af2070fd944a12574a2a9adf6939b464736f6c63430005100032",
  "source": "pragma solidity >=0.4.25 <0.6.0;\n\nimport \"./ConvertLib.sol\";\n\n// This is just a simple example of a coin-like contract.\n// It is not standards compatible and cannot be expected to talk to other\n// coin/token contracts. If you want to create a standards-compliant\n// token, see: https://github.com/ConsenSys/Tokens. Cheers!\n\ncontract MetaCoin {\n\tmapping (address => uint) balances;\n\n\tevent Transfer(address indexed _from, address indexed _to, uint256 _value);\n\n\tconstructor() public {\n\t\tbalances[tx.origin] = 10000;\n\t}\n\n\tfunction getMyNum() public returns (uint32){\n\t\treturn 10;\n\t}\n\n\tfunction sendCoin(address receiver, uint amount) public returns(bool sufficient) {\n\t\tif (balances[msg.sender] < amount) return false;\n\t\tbalances[msg.sender] -= amount;\n\t\tbalances[receiver] += amount;\n\t\temit Transfer(msg.sender, receiver, amount);\n\t\treturn true;\n\t}\n\n\tfunction getBalanceInEth(address addr) public view returns(uint){\n\t\treturn ConvertLib.convert(getBalance(addr),2);\n\t}\n\n\tfunction getBalance(address addr) public view returns(uint) {\n\t\treturn balances[addr];\n\t}\n}\n",
  "sourcePath": "C:\\Users\\nathn\\Desktop\\blockchain supply chain\\blockchain-api\\blockchain-contracts\\contracts\\MetaCoin.sol",
  "compiler": {
    "name": "solc",
    "version": "0.5.16+commit.9c3226ce.Emscripten.clang"
  },
  "schemaVersion": "3.4.7",
  "updatedAt": "2022-04-29T09:26:06.117Z",
  "networkType": "ethereum",
  "devdoc": {
    "methods": {}
  },
  "userdoc": {
    "methods": {}
  }
}