{
  "contractName": "ProductContract",
  "abi": [
    {
      "inputs": [],
      "stateMutability": "nonpayable",
      "type": "constructor"
    },
    {
      "inputs": [
        {
          "internalType": "uint256",
          "name": "",
          "type": "uint256"
        }
      ],
      "name": "allProducts",
      "outputs": [
        {
          "internalType": "string",
          "name": "",
          "type": "string"
        }
      ],
      "stateMutability": "view",
      "type": "function"
    },
    {
      "inputs": [
        {
          "internalType": "address",
          "name": "add",
          "type": "address"
        }
      ],
      "name": "setAddress",
      "outputs": [],
      "stateMutability": "nonpayable",
      "type": "function"
    },
    {
      "inputs": [
        {
          "internalType": "string",
          "name": "_mongoId",
          "type": "string"
        },
        {
          "internalType": "string",
          "name": "_productName",
          "type": "string"
        },
        {
          "internalType": "string",
          "name": "_category",
          "type": "string"
        },
        {
          "internalType": "uint256",
          "name": "_price",
          "type": "uint256"
        },
        {
          "internalType": "string",
          "name": "_description",
          "type": "string"
        },
        {
          "internalType": "uint256",
          "name": "_instanceNumber",
          "type": "uint256"
        },
        {
          "internalType": "address",
          "name": "productOwner",
          "type": "address"
        }
      ],
      "name": "addProduct",
      "outputs": [],
      "stateMutability": "nonpayable",
      "type": "function"
    },
    {
      "inputs": [
        {
          "internalType": "uint256",
          "name": "_productId",
          "type": "uint256"
        }
      ],
      "name": "getProductById",
      "outputs": [
        {
          "components": [
            {
              "internalType": "uint256",
              "name": "productId",
              "type": "uint256"
            },
            {
              "internalType": "string",
              "name": "mongoId",
              "type": "string"
            },
            {
              "internalType": "string",
              "name": "productName",
              "type": "string"
            },
            {
              "internalType": "string",
              "name": "category",
              "type": "string"
            },
            {
              "internalType": "uint256",
              "name": "price",
              "type": "uint256"
            },
            {
              "internalType": "string",
              "name": "description",
              "type": "string"
            },
            {
              "internalType": "address",
              "name": "owner",
              "type": "address"
            },
            {
              "internalType": "bool",
              "name": "isAvailable",
              "type": "bool"
            },
            {
              "internalType": "bool",
              "name": "isCreated",
              "type": "bool"
            },
            {
              "internalType": "uint256",
              "name": "createdAt",
              "type": "uint256"
            },
            {
              "internalType": "uint256",
              "name": "updatedAt",
              "type": "uint256"
            }
          ],
          "internalType": "struct ProductContract.Product",
          "name": "",
          "type": "tuple"
        }
      ],
      "stateMutability": "view",
      "type": "function"
    },
    {
      "inputs": [],
      "name": "getAllProducts",
      "outputs": [
        {
          "components": [
            {
              "internalType": "uint256",
              "name": "productId",
              "type": "uint256"
            },
            {
              "internalType": "string",
              "name": "mongoId",
              "type": "string"
            },
            {
              "internalType": "string",
              "name": "name",
              "type": "string"
            },
            {
              "internalType": "uint256",
              "name": "price",
              "type": "uint256"
            },
            {
              "internalType": "string",
              "name": "category",
              "type": "string"
            },
            {
              "internalType": "string",
              "name": "description",
              "type": "string"
            },
            {
              "internalType": "address",
              "name": "owner",
              "type": "address"
            }
          ],
          "internalType": "struct ProductContract.ProductView[]",
          "name": "",
          "type": "tuple[]"
        }
      ],
      "stateMutability": "view",
      "type": "function"
    },
    {
      "inputs": [
        {
          "internalType": "address",
          "name": "_productOwner",
          "type": "address"
        }
      ],
      "name": "getUserProducts",
      "outputs": [
        {
          "components": [
            {
              "internalType": "uint256",
              "name": "productId",
              "type": "uint256"
            },
            {
              "internalType": "string",
              "name": "mongoId",
              "type": "string"
            },
            {
              "internalType": "string",
              "name": "name",
              "type": "string"
            },
            {
              "internalType": "uint256",
              "name": "price",
              "type": "uint256"
            },
            {
              "internalType": "string",
              "name": "category",
              "type": "string"
            },
            {
              "internalType": "string",
              "name": "description",
              "type": "string"
            },
            {
              "internalType": "address",
              "name": "owner",
              "type": "address"
            }
          ],
          "internalType": "struct ProductContract.ProductView[]",
          "name": "",
          "type": "tuple[]"
        }
      ],
      "stateMutability": "view",
      "type": "function"
    },
    {
      "inputs": [
        {
          "internalType": "uint256",
          "name": "_productId",
          "type": "uint256"
        }
      ],
      "name": "getProductHistory",
      "outputs": [
        {
          "components": [
            {
              "internalType": "address",
              "name": "prevOwner",
              "type": "address"
            },
            {
              "internalType": "uint256",
              "name": "productId",
              "type": "uint256"
            },
            {
              "internalType": "string",
              "name": "mongoId",
              "type": "string"
            },
            {
              "internalType": "string",
              "name": "productName",
              "type": "string"
            },
            {
              "internalType": "string",
              "name": "category",
              "type": "string"
            },
            {
              "internalType": "uint256",
              "name": "price",
              "type": "uint256"
            },
            {
              "internalType": "string",
              "name": "description",
              "type": "string"
            },
            {
              "internalType": "uint256",
              "name": "transferDate",
              "type": "uint256"
            }
          ],
          "internalType": "struct ProductContract.History[]",
          "name": "",
          "type": "tuple[]"
        }
      ],
      "stateMutability": "view",
      "type": "function"
    },
    {
      "inputs": [
        {
          "internalType": "uint256",
          "name": "_productId",
          "type": "uint256"
        },
        {
          "internalType": "bool",
          "name": "_available",
          "type": "bool"
        },
        {
          "internalType": "address",
          "name": "productOwner",
          "type": "address"
        }
      ],
      "name": "changeProductAvailability",
      "outputs": [],
      "stateMutability": "nonpayable",
      "type": "function"
    },
    {
      "inputs": [
        {
          "internalType": "uint256",
          "name": "_productId",
          "type": "uint256"
        },
        {
          "internalType": "address",
          "name": "buyerAddress",
          "type": "address"
        },
        {
          "internalType": "string",
          "name": "buyerDeliveryAddress",
          "type": "string"
        }
      ],
      "name": "buyProduct",
      "outputs": [],
      "stateMutability": "nonpayable",
      "type": "function"
    },
    {
      "inputs": [
        {
          "internalType": "address",
          "name": "userAddress",
          "type": "address"
        }
      ],
      "name": "getUserOrders",
      "outputs": [
        {
          "components": [
            {
              "internalType": "uint256",
              "name": "purchaseId",
              "type": "uint256"
            },
            {
              "internalType": "uint256",
              "name": "productId",
              "type": "uint256"
            },
            {
              "internalType": "string",
              "name": "mongoId",
              "type": "string"
            },
            {
              "internalType": "string",
              "name": "shipmentStatus",
              "type": "string"
            },
            {
              "internalType": "string",
              "name": "deliveryAddress",
              "type": "string"
            },
            {
              "internalType": "address",
              "name": "orderedBy",
              "type": "address"
            },
            {
              "internalType": "bool",
              "name": "isConfirmed",
              "type": "bool"
            },
            {
              "internalType": "bool",
              "name": "isActive",
              "type": "bool"
            },
            {
              "internalType": "bool",
              "name": "isCanceled",
              "type": "bool"
            },
            {
              "internalType": "uint256",
              "name": "createdAt",
              "type": "uint256"
            },
            {
              "internalType": "uint256",
              "name": "updatedAt",
              "type": "uint256"
            }
          ],
          "internalType": "struct ProductContract.OrderShipment[]",
          "name": "",
          "type": "tuple[]"
        }
      ],
      "stateMutability": "view",
      "type": "function"
    },
    {
      "inputs": [
        {
          "internalType": "uint256",
          "name": "_purchaseId",
          "type": "uint256"
        },
        {
          "internalType": "address",
          "name": "userAddress",
          "type": "address"
        }
      ],
      "name": "getUserOrderDetail",
      "outputs": [
        {
          "components": [
            {
              "internalType": "uint256",
              "name": "purchaseId",
              "type": "uint256"
            },
            {
              "internalType": "uint256",
              "name": "productId",
              "type": "uint256"
            },
            {
              "internalType": "string",
              "name": "mongoId",
              "type": "string"
            },
            {
              "internalType": "string",
              "name": "shipmentStatus",
              "type": "string"
            },
            {
              "internalType": "string",
              "name": "deliveryAddress",
              "type": "string"
            },
            {
              "internalType": "address",
              "name": "orderedBy",
              "type": "address"
            },
            {
              "internalType": "bool",
              "name": "isConfirmed",
              "type": "bool"
            },
            {
              "internalType": "bool",
              "name": "isActive",
              "type": "bool"
            },
            {
              "internalType": "bool",
              "name": "isCanceled",
              "type": "bool"
            },
            {
              "internalType": "uint256",
              "name": "createdAt",
              "type": "uint256"
            },
            {
              "internalType": "uint256",
              "name": "updatedAt",
              "type": "uint256"
            }
          ],
          "internalType": "struct ProductContract.OrderShipment",
          "name": "",
          "type": "tuple"
        }
      ],
      "stateMutability": "view",
      "type": "function"
    },
    {
      "inputs": [
        {
          "internalType": "address",
          "name": "sellerAddress",
          "type": "address"
        }
      ],
      "name": "getSellerOrders",
      "outputs": [
        {
          "components": [
            {
              "internalType": "uint256",
              "name": "purchaseId",
              "type": "uint256"
            },
            {
              "internalType": "uint256",
              "name": "productId",
              "type": "uint256"
            },
            {
              "internalType": "string",
              "name": "mongoId",
              "type": "string"
            },
            {
              "internalType": "string",
              "name": "shipmentStatus",
              "type": "string"
            },
            {
              "internalType": "string",
              "name": "deliveryAddress",
              "type": "string"
            },
            {
              "internalType": "address",
              "name": "orderedBy",
              "type": "address"
            },
            {
              "internalType": "bool",
              "name": "isConfirmed",
              "type": "bool"
            },
            {
              "internalType": "bool",
              "name": "isActive",
              "type": "bool"
            },
            {
              "internalType": "bool",
              "name": "isCanceled",
              "type": "bool"
            },
            {
              "internalType": "uint256",
              "name": "createdAt",
              "type": "uint256"
            },
            {
              "internalType": "uint256",
              "name": "updatedAt",
              "type": "uint256"
            }
          ],
          "internalType": "struct ProductContract.OrderShipment[]",
          "name": "",
          "type": "tuple[]"
        }
      ],
      "stateMutability": "view",
      "type": "function"
    },
    {
      "inputs": [
        {
          "internalType": "uint256",
          "name": "_purchaseId",
          "type": "uint256"
        },
        {
          "internalType": "address",
          "name": "sellerAddress",
          "type": "address"
        }
      ],
      "name": "getSellerOrderDetail",
      "outputs": [
        {
          "components": [
            {
              "internalType": "uint256",
              "name": "purchaseId",
              "type": "uint256"
            },
            {
              "internalType": "uint256",
              "name": "productId",
              "type": "uint256"
            },
            {
              "internalType": "string",
              "name": "mongoId",
              "type": "string"
            },
            {
              "internalType": "string",
              "name": "shipmentStatus",
              "type": "string"
            },
            {
              "internalType": "string",
              "name": "deliveryAddress",
              "type": "string"
            },
            {
              "internalType": "address",
              "name": "orderedBy",
              "type": "address"
            },
            {
              "internalType": "bool",
              "name": "isConfirmed",
              "type": "bool"
            },
            {
              "internalType": "bool",
              "name": "isActive",
              "type": "bool"
            },
            {
              "internalType": "bool",
              "name": "isCanceled",
              "type": "bool"
            },
            {
              "internalType": "uint256",
              "name": "createdAt",
              "type": "uint256"
            },
            {
              "internalType": "uint256",
              "name": "updatedAt",
              "type": "uint256"
            }
          ],
          "internalType": "struct ProductContract.OrderShipment",
          "name": "",
          "type": "tuple"
        }
      ],
      "stateMutability": "view",
      "type": "function"
    },
    {
      "inputs": [
        {
          "internalType": "uint256",
          "name": "_purchaseId",
          "type": "uint256"
        },
        {
          "internalType": "string",
          "name": "_newShipmentStatus",
          "type": "string"
        },
        {
          "internalType": "address",
          "name": "deliveryUserAddress",
          "type": "address"
        },
        {
          "internalType": "address",
          "name": "sellerAddress",
          "type": "address"
        },
        {
          "internalType": "string",
          "name": "deliveryUserRole",
          "type": "string"
        }
      ],
      "name": "updateShipmentStatus",
      "outputs": [],
      "stateMutability": "nonpayable",
      "type": "function"
    },
    {
      "inputs": [
        {
          "internalType": "uint256",
          "name": "_purchaseId",
          "type": "uint256"
        },
        {
          "internalType": "address",
          "name": "userAddress",
          "type": "address"
        }
      ],
      "name": "confirmUserOrder",
      "outputs": [],
      "stateMutability": "nonpayable",
      "type": "function"
    },
    {
      "inputs": [
        {
          "internalType": "uint256",
          "name": "_purchaseId",
          "type": "uint256"
        },
        {
          "internalType": "address",
          "name": "userAddress",
          "type": "address"
        }
      ],
      "name": "cancelOrder",
      "outputs": [],
      "stateMutability": "nonpayable",
      "type": "function"
    }
  ],
  "bytecode": "0x608060405234801561001057600080fd5b50336000806101000a81548173ffffffffffffffffffffffffffffffffffffffff021916908373ffffffffffffffffffffffffffffffffffffffff16021790555061583a80620000616000396000f3fe608060405234801561001057600080fd5b50600436106101005760003560e01c80637323a7d311610097578063dec9e20911610066578063dec9e209146102cf578063e30081a0146102eb578063e4cbac4014610307578063fee7f53b1461033757610100565b80637323a7d314610237578063995192fe14610253578063b687fa8d1461026f578063cfaaef561461029f57610100565b80633f70c2b4116100d35780633f70c2b41461018b578063506f0531146101bb57806357a096a1146101d757806363c69f081461020757610100565b8063021574441461010557806302ee3a52146101215780632b84df721461013f5780633b34711d1461016f575b600080fd5b61011f600480360381019061011a91906143a2565b610367565b005b610129610910565b604051610136919061462a565b60405180910390f35b6101596004803603810190610154919061464c565b610cff565b60405161016691906147a4565b60405180910390f35b610189600480360381019061018491906147c6565b61108c565b005b6101a560048036038101906101a09190614879565b611bba565b6040516101b291906149aa565b60405180910390f35b6101d560048036038101906101d091906149f8565b611eea565b005b6101f160048036038101906101ec9190614879565b6120b4565b6040516101fe9190614bd2565b60405180910390f35b610221600480360381019061021c9190614bf4565b6123e3565b60405161022e9190614de0565b60405180910390f35b610251600480360381019061024c919061464c565b612866565b005b61026d60048036038101906102689190614e02565b612ab4565b005b6102896004803603810190610284919061464c565b612d9c565b60405161029691906147a4565b60405180910390f35b6102b960048036038101906102b49190614879565b613129565b6040516102c69190614f5e565b60405180910390f35b6102e960048036038101906102e4919061464c565b6131d5565b005b61030560048036038101906103009190614bf4565b6132e1565b005b610321600480360381019061031c9190614bf4565b6133b3565b60405161032e9190614de0565b60405180910390f35b610351600480360381019061034c9190614bf4565b613836565b60405161035e919061462a565b60405180910390f35b600160009054906101000a900473ffffffffffffffffffffffffffffffffffffffff1673ffffffffffffffffffffffffffffffffffffffff163373ffffffffffffffffffffffffffffffffffffffff16146103f7576040517f08c379a00000000000000000000000000000000000000000000000000000000081526004016103ee90614fcc565b60405180910390fd5b6005600084815260200190815260200160002060060160159054906101000a900460ff1661045a576040517f08c379a000000000000000000000000000000000000000000000000000000000815260040161045190615038565b60405180910390fd5b6005600084815260200190815260200160002060060160149054906101000a900460ff166104bd576040517f08c379a00000000000000000000000000000000000000000000000000000000081526004016104b4906150a4565b60405180910390fd5b8173ffffffffffffffffffffffffffffffffffffffff166005600085815260200190815260200160002060060160009054906101000a900473ffffffffffffffffffffffffffffffffffffffff1673ffffffffffffffffffffffffffffffffffffffff1603610561576040517f08c379a000000000000000000000000000000000000000000000000000000000815260040161055890615110565b60405180910390fd5b600260008154809291906105749061515f565b91905055600381905550600060405180610160016040528060035481526020018581526020016005600087815260200190815260200160002060010180546105bb906151d6565b80601f01602080910402602001604051908101604052809291908181526020018280546105e7906151d6565b80156106345780601f1061060957610100808354040283529160200191610634565b820191906000526020600020905b81548152906001019060200180831161061757829003601f168201915b505050505081526020016040518060400160405280601781526020017f696e697469616c20736869706d656e742073746174757300000000000000000081525081526020018381526020018473ffffffffffffffffffffffffffffffffffffffff1681526020016000151581526020016001151581526020016000151581526020014281526020014281525090508060096000600354815260200190815260200160002060008201518160000155602082015181600101556040820151816002019080519060200190610708929190613fd4565b506060820151816003019080519060200190610725929190613fd4565b506080820151816004019080519060200190610742929190613fd4565b5060a08201518160050160006101000a81548173ffffffffffffffffffffffffffffffffffffffff021916908373ffffffffffffffffffffffffffffffffffffffff16021790555060c08201518160050160146101000a81548160ff02191690831515021790555060e08201518160050160156101000a81548160ff0219169083151502179055506101008201518160050160166101000a81548160ff02191690831515021790555061012082015181600601556101408201518160070155905050600a60008473ffffffffffffffffffffffffffffffffffffffff1673ffffffffffffffffffffffffffffffffffffffff1681526020019081526020016000206003549080600181540180825580915050600190039060005260206000200160009091909190915055600b60006005600087815260200190815260200160002060060160009054906101000a900473ffffffffffffffffffffffffffffffffffffffff1673ffffffffffffffffffffffffffffffffffffffff1673ffffffffffffffffffffffffffffffffffffffff168152602001908152602001600020600354908060018154018082558091505060019003906000526020600020016000909190919091505550505050565b6060600060045467ffffffffffffffff8111156109305761092f614277565b5b60405190808252806020026020018201604052801561096957816020015b61095661405a565b81526020019060019003908161094e5790505b50905060005b600454811015610cf757600060056000838152602001908152602001600020600101805461099c906151d6565b80601f01602080910402602001604051908101604052809291908181526020018280546109c8906151d6565b8015610a155780601f106109ea57610100808354040283529160200191610a15565b820191906000526020600020905b8154815290600101906020018083116109f857829003601f168201915b505050505090506000600560008481526020019081526020016000206000015490506000600560008581526020019081526020016000206002018054610a5a906151d6565b80601f0160208091040260200160405190810160405280929190818152602001828054610a86906151d6565b8015610ad35780601f10610aa857610100808354040283529160200191610ad3565b820191906000526020600020905b815481529060010190602001808311610ab657829003601f168201915b505050505090506000600560008681526020019081526020016000206004015490506000600560008781526020019081526020016000206003018054610b18906151d6565b80601f0160208091040260200160405190810160405280929190818152602001828054610b44906151d6565b8015610b915780601f10610b6657610100808354040283529160200191610b91565b820191906000526020600020905b815481529060010190602001808311610b7457829003601f168201915b505050505090506000600560008881526020019081526020016000206005018054610bbb906151d6565b80601f0160208091040260200160405190810160405280929190818152602001828054610be7906151d6565b8015610c345780601f10610c0957610100808354040283529160200191610c34565b820191906000526020600020905b815481529060010190602001808311610c1757829003601f168201915b5050505050905060006005600089815260200190815260200160002060060160009054906101000a900473ffffffffffffffffffffffffffffffffffffffff1690506040518060e001604052808781526020018881526020018681526020018581526020018481526020018381526020018273ffffffffffffffffffffffffffffffffffffffff16815250898981518110610cd257610cd1615207565b5b6020026020010181905250505050505050508080610cef9061515f565b91505061096f565b508091505090565b610d076140ad565b600160009054906101000a900473ffffffffffffffffffffffffffffffffffffffff1673ffffffffffffffffffffffffffffffffffffffff163373ffffffffffffffffffffffffffffffffffffffff1614610d97576040517f08c379a0000000000000000000000000000000000000000000000000000000008152600401610d8e90614fcc565b60405180910390fd5b610da18383613dfe565b610de0576040517f08c379a0000000000000000000000000000000000000000000000000000000008152600401610dd790615282565b60405180910390fd5b60096000848152602001908152602001600020604051806101600160405290816000820154815260200160018201548152602001600282018054610e23906151d6565b80601f0160208091040260200160405190810160405280929190818152602001828054610e4f906151d6565b8015610e9c5780601f10610e7157610100808354040283529160200191610e9c565b820191906000526020600020905b815481529060010190602001808311610e7f57829003601f168201915b50505050508152602001600382018054610eb5906151d6565b80601f0160208091040260200160405190810160405280929190818152602001828054610ee1906151d6565b8015610f2e5780601f10610f0357610100808354040283529160200191610f2e565b820191906000526020600020905b815481529060010190602001808311610f1157829003601f168201915b50505050508152602001600482018054610f47906151d6565b80601f0160208091040260200160405190810160405280929190818152602001828054610f73906151d6565b8015610fc05780601f10610f9557610100808354040283529160200191610fc0565b820191906000526020600020905b815481529060010190602001808311610fa357829003601f168201915b505050505081526020016005820160009054906101000a900473ffffffffffffffffffffffffffffffffffffffff1673ffffffffffffffffffffffffffffffffffffffff1673ffffffffffffffffffffffffffffffffffffffff1681526020016005820160149054906101000a900460ff161515151581526020016005820160159054906101000a900460ff161515151581526020016005820160169054906101000a900460ff1615151515815260200160068201548152602001600782015481525050905092915050565b600160009054906101000a900473ffffffffffffffffffffffffffffffffffffffff1673ffffffffffffffffffffffffffffffffffffffff163373ffffffffffffffffffffffffffffffffffffffff161461111c576040517f08c379a000000000000000000000000000000000000000000000000000000000815260040161111390614fcc565b60405180910390fd5b6111268583613ee9565b611165576040517f08c379a000000000000000000000000000000000000000000000000000000000815260040161115c90615282565b60405180910390fd5b6009600086815260200190815260200160002060050160159054906101000a900460ff166111c8576040517f08c379a00000000000000000000000000000000000000000000000000000000081526004016111bf90615314565b60405180910390fd5b73__Library_______________________________63bed34bba826040518263ffffffff1660e01b81526004016111ff91906153ca565b602060405180830381865af415801561121c573d6000803e3d6000fd5b505050506040513d601f19601f820116820180604052508101906112409190615414565b61127f576040517f08c379a0000000000000000000000000000000000000000000000000000000008152600401611276906154b3565b60405180910390fd5b6000600960008781526020019081526020016000206040518061016001604052908160008201548152602001600182015481526020016002820180546112c4906151d6565b80601f01602080910402602001604051908101604052809291908181526020018280546112f0906151d6565b801561133d5780601f106113125761010080835404028352916020019161133d565b820191906000526020600020905b81548152906001019060200180831161132057829003601f168201915b50505050508152602001600382018054611356906151d6565b80601f0160208091040260200160405190810160405280929190818152602001828054611382906151d6565b80156113cf5780601f106113a4576101008083540402835291602001916113cf565b820191906000526020600020905b8154815290600101906020018083116113b257829003601f168201915b505050505081526020016004820180546113e8906151d6565b80601f0160208091040260200160405190810160405280929190818152602001828054611414906151d6565b80156114615780601f1061143657610100808354040283529160200191611461565b820191906000526020600020905b81548152906001019060200180831161144457829003601f168201915b505050505081526020016005820160009054906101000a900473ffffffffffffffffffffffffffffffffffffffff1673ffffffffffffffffffffffffffffffffffffffff1673ffffffffffffffffffffffffffffffffffffffff1681526020016005820160149054906101000a900460ff161515151581526020016005820160159054906101000a900460ff161515151581526020016005820160169054906101000a900460ff1615151515815260200160068201548152602001600782015481525050905084600960008881526020019081526020016000206003019080519060200190611551929190613fd4565b5060008160200151905073__Library_______________________________63bed34bba876040518263ffffffff1660e01b8152600401611592919061551f565b602060405180830381865af41580156115af573d6000803e3d6000fd5b505050506040513d601f19601f820116820180604052508101906115d39190615414565b15611636578160a001516005600083815260200190815260200160002060060160006101000a81548173ffffffffffffffffffffffffffffffffffffffff021916908373ffffffffffffffffffffffffffffffffffffffff1602179055506116f2565b846005600083815260200190815260200160002060060160006101000a81548173ffffffffffffffffffffffffffffffffffffffff021916908373ffffffffffffffffffffffffffffffffffffffff160217905550600b60008673ffffffffffffffffffffffffffffffffffffffff1673ffffffffffffffffffffffffffffffffffffffff1681526020019081526020016000208790806001815401808255809150506001900390600052602060002001600090919091909150555b600060056000838152602001908152602001600020604051806101600160405290816000820154815260200160018201805461172d906151d6565b80601f0160208091040260200160405190810160405280929190818152602001828054611759906151d6565b80156117a65780601f1061177b576101008083540402835291602001916117a6565b820191906000526020600020905b81548152906001019060200180831161178957829003601f168201915b505050505081526020016002820180546117bf906151d6565b80601f01602080910402602001604051908101604052809291908181526020018280546117eb906151d6565b80156118385780601f1061180d57610100808354040283529160200191611838565b820191906000526020600020905b81548152906001019060200180831161181b57829003601f168201915b50505050508152602001600382018054611851906151d6565b80601f016020809104026020016040519081016040528092919081815260200182805461187d906151d6565b80156118ca5780601f1061189f576101008083540402835291602001916118ca565b820191906000526020600020905b8154815290600101906020018083116118ad57829003601f168201915b50505050508152602001600482015481526020016005820180546118ed906151d6565b80601f0160208091040260200160405190810160405280929190818152602001828054611919906151d6565b80156119665780601f1061193b57610100808354040283529160200191611966565b820191906000526020600020905b81548152906001019060200180831161194957829003601f168201915b505050505081526020016006820160009054906101000a900473ffffffffffffffffffffffffffffffffffffffff1673ffffffffffffffffffffffffffffffffffffffff1673ffffffffffffffffffffffffffffffffffffffff1681526020016006820160149054906101000a900460ff161515151581526020016006820160159054906101000a900460ff1615151515815260200160078201548152602001600882015481525050905060008160200151905060008260400151905060008360600151905060008460800151905060008560a00151905060006040518061010001604052808c73ffffffffffffffffffffffffffffffffffffffff1681526020018981526020018781526020018681526020018581526020018481526020018381526020014281525090506007600089815260200190815260200160002081908060018154018082558091505060019003906000526020600020906008020160009091909190915060008201518160000160006101000a81548173ffffffffffffffffffffffffffffffffffffffff021916908373ffffffffffffffffffffffffffffffffffffffff160217905550602082015181600101556040820151816002019080519060200190611b3c929190613fd4565b506060820151816003019080519060200190611b59929190613fd4565b506080820151816004019080519060200190611b76929190613fd4565b5060a0820151816005015560c0820151816006019080519060200190611b9d929190613fd4565b5060e0820151816007015550505050505050505050505050505050565b611bc2614123565b6000600560008481526020019081526020016000206040518061016001604052908160008201548152602001600182018054611bfd906151d6565b80601f0160208091040260200160405190810160405280929190818152602001828054611c29906151d6565b8015611c765780601f10611c4b57610100808354040283529160200191611c76565b820191906000526020600020905b815481529060010190602001808311611c5957829003601f168201915b50505050508152602001600282018054611c8f906151d6565b80601f0160208091040260200160405190810160405280929190818152602001828054611cbb906151d6565b8015611d085780601f10611cdd57610100808354040283529160200191611d08565b820191906000526020600020905b815481529060010190602001808311611ceb57829003601f168201915b50505050508152602001600382018054611d21906151d6565b80601f0160208091040260200160405190810160405280929190818152602001828054611d4d906151d6565b8015611d9a5780601f10611d6f57610100808354040283529160200191611d9a565b820191906000526020600020905b815481529060010190602001808311611d7d57829003601f168201915b5050505050815260200160048201548152602001600582018054611dbd906151d6565b80601f0160208091040260200160405190810160405280929190818152602001828054611de9906151d6565b8015611e365780601f10611e0b57610100808354040283529160200191611e36565b820191906000526020600020905b815481529060010190602001808311611e1957829003601f168201915b505050505081526020016006820160009054906101000a900473ffffffffffffffffffffffffffffffffffffffff1673ffffffffffffffffffffffffffffffffffffffff1673ffffffffffffffffffffffffffffffffffffffff1681526020016006820160149054906101000a900460ff161515151581526020016006820160159054906101000a900460ff1615151515815260200160078201548152602001600882015481525050905080915050919050565b600160009054906101000a900473ffffffffffffffffffffffffffffffffffffffff1673ffffffffffffffffffffffffffffffffffffffff163373ffffffffffffffffffffffffffffffffffffffff1614611f7a576040517f08c379a0000000000000000000000000000000000000000000000000000000008152600401611f7190614fcc565b60405180910390fd5b6005600084815260200190815260200160002060060160159054906101000a900460ff16611fdd576040517f08c379a0000000000000000000000000000000000000000000000000000000008152600401611fd4906155a0565b60405180910390fd5b8073ffffffffffffffffffffffffffffffffffffffff166005600085815260200190815260200160002060060160009054906101000a900473ffffffffffffffffffffffffffffffffffffffff1673ffffffffffffffffffffffffffffffffffffffff1614612081576040517f08c379a00000000000000000000000000000000000000000000000000000000081526004016120789061560c565b60405180910390fd5b816005600085815260200190815260200160002060060160146101000a81548160ff021916908315150217905550505050565b606060076000838152602001908152602001600020805480602002602001604051908101604052809291908181526020016000905b828210156123d85783829060005260206000209060080201604051806101000160405290816000820160009054906101000a900473ffffffffffffffffffffffffffffffffffffffff1673ffffffffffffffffffffffffffffffffffffffff1673ffffffffffffffffffffffffffffffffffffffff1681526020016001820154815260200160028201805461217d906151d6565b80601f01602080910402602001604051908101604052809291908181526020018280546121a9906151d6565b80156121f65780601f106121cb576101008083540402835291602001916121f6565b820191906000526020600020905b8154815290600101906020018083116121d957829003601f168201915b5050505050815260200160038201805461220f906151d6565b80601f016020809104026020016040519081016040528092919081815260200182805461223b906151d6565b80156122885780601f1061225d57610100808354040283529160200191612288565b820191906000526020600020905b81548152906001019060200180831161226b57829003601f168201915b505050505081526020016004820180546122a1906151d6565b80601f01602080910402602001604051908101604052809291908181526020018280546122cd906151d6565b801561231a5780601f106122ef5761010080835404028352916020019161231a565b820191906000526020600020905b8154815290600101906020018083116122fd57829003601f168201915b505050505081526020016005820154815260200160068201805461233d906151d6565b80601f0160208091040260200160405190810160405280929190818152602001828054612369906151d6565b80156123b65780601f1061238b576101008083540402835291602001916123b6565b820191906000526020600020905b81548152906001019060200180831161239957829003601f168201915b50505050508152602001600782015481525050815260200190600101906120e9565b505050509050919050565b6060600160009054906101000a900473ffffffffffffffffffffffffffffffffffffffff1673ffffffffffffffffffffffffffffffffffffffff163373ffffffffffffffffffffffffffffffffffffffff1614612475576040517f08c379a000000000000000000000000000000000000000000000000000000000815260040161246c90614fcc565b60405180910390fd5b6000600a60008473ffffffffffffffffffffffffffffffffffffffff1673ffffffffffffffffffffffffffffffffffffffff16815260200190815260200160002080548060200260200160405190810160405280929190818152602001828054801561250057602002820191906000526020600020905b8154815260200190600101908083116124ec575b505050505090506000815167ffffffffffffffff81111561252457612523614277565b5b60405190808252806020026020018201604052801561255d57816020015b61254a6140ad565b8152602001906001900390816125425790505b50905060005b825181101561285b576009600084838151811061258357612582615207565b5b602002602001015181526020019081526020016000206040518061016001604052908160008201548152602001600182015481526020016002820180546125c9906151d6565b80601f01602080910402602001604051908101604052809291908181526020018280546125f5906151d6565b80156126425780601f1061261757610100808354040283529160200191612642565b820191906000526020600020905b81548152906001019060200180831161262557829003601f168201915b5050505050815260200160038201805461265b906151d6565b80601f0160208091040260200160405190810160405280929190818152602001828054612687906151d6565b80156126d45780601f106126a9576101008083540402835291602001916126d4565b820191906000526020600020905b8154815290600101906020018083116126b757829003601f168201915b505050505081526020016004820180546126ed906151d6565b80601f0160208091040260200160405190810160405280929190818152602001828054612719906151d6565b80156127665780601f1061273b57610100808354040283529160200191612766565b820191906000526020600020905b81548152906001019060200180831161274957829003601f168201915b505050505081526020016005820160009054906101000a900473ffffffffffffffffffffffffffffffffffffffff1673ffffffffffffffffffffffffffffffffffffffff1673ffffffffffffffffffffffffffffffffffffffff1681526020016005820160149054906101000a900460ff161515151581526020016005820160159054906101000a900460ff161515151581526020016005820160169054906101000a900460ff161515151581526020016006820154815260200160078201548152505082828151811061283d5761283c615207565b5b602002602001018190525080806128539061515f565b915050612563565b508092505050919050565b600160009054906101000a900473ffffffffffffffffffffffffffffffffffffffff1673ffffffffffffffffffffffffffffffffffffffff163373ffffffffffffffffffffffffffffffffffffffff16146128f6576040517f08c379a00000000000000000000000000000000000000000000000000000000081526004016128ed90614fcc565b60405180910390fd5b6129008282613dfe565b8061291157506129108282613ee9565b5b612950576040517f08c379a000000000000000000000000000000000000000000000000000000000815260040161294790615282565b60405180910390fd5b6009600083815260200190815260200160002060050160159054906101000a900460ff16156129b4576040517f08c379a00000000000000000000000000000000000000000000000000000000081526004016129ab90615678565b60405180910390fd5b73__Library_______________________________63bed34bba600960008581526020019081526020016000206003016040518263ffffffff1660e01b8152600401612a009190615779565b602060405180830381865af4158015612a1d573d6000803e3d6000fd5b505050506040513d601f19601f82011682018060405250810190612a419190615414565b15612a81576040517f08c379a0000000000000000000000000000000000000000000000000000000008152600401612a7890615678565b60405180910390fd5b60006009600084815260200190815260200160002060050160156101000a81548160ff0219169083151502179055505050565b600160009054906101000a900473ffffffffffffffffffffffffffffffffffffffff1673ffffffffffffffffffffffffffffffffffffffff163373ffffffffffffffffffffffffffffffffffffffff1614612b44576040517f08c379a0000000000000000000000000000000000000000000000000000000008152600401612b3b90614fcc565b60405180910390fd5b60005b82811015612d9257600060405180610160016040528060045481526020018a81526020018981526020018881526020018781526020018681526020018473ffffffffffffffffffffffffffffffffffffffff16815260200160011515815260200160011515815260200142815260200142815250905080600560006004548152602001908152602001600020600082015181600001556020820151816001019080519060200190612bf9929190613fd4565b506040820151816002019080519060200190612c16929190613fd4565b506060820151816003019080519060200190612c33929190613fd4565b506080820151816004015560a0820151816005019080519060200190612c5a929190613fd4565b5060c08201518160060160006101000a81548173ffffffffffffffffffffffffffffffffffffffff021916908373ffffffffffffffffffffffffffffffffffffffff16021790555060e08201518160060160146101000a81548160ff0219169083151502179055506101008201518160060160156101000a81548160ff02191690831515021790555061012082015181600701556101408201518160080155905050600660008473ffffffffffffffffffffffffffffffffffffffff1673ffffffffffffffffffffffffffffffffffffffff1681526020019081526020016000206004549080600181540180825580915050600190039060005260206000200160009091909190915055600160046000828254612d7791906157ae565b92505081905550508080612d8a9061515f565b915050612b47565b5050505050505050565b612da46140ad565b600160009054906101000a900473ffffffffffffffffffffffffffffffffffffffff1673ffffffffffffffffffffffffffffffffffffffff163373ffffffffffffffffffffffffffffffffffffffff1614612e34576040517f08c379a0000000000000000000000000000000000000000000000000000000008152600401612e2b90614fcc565b60405180910390fd5b612e3e8383613ee9565b612e7d576040517f08c379a0000000000000000000000000000000000000000000000000000000008152600401612e7490615282565b60405180910390fd5b60096000848152602001908152602001600020604051806101600160405290816000820154815260200160018201548152602001600282018054612ec0906151d6565b80601f0160208091040260200160405190810160405280929190818152602001828054612eec906151d6565b8015612f395780601f10612f0e57610100808354040283529160200191612f39565b820191906000526020600020905b815481529060010190602001808311612f1c57829003601f168201915b50505050508152602001600382018054612f52906151d6565b80601f0160208091040260200160405190810160405280929190818152602001828054612f7e906151d6565b8015612fcb5780601f10612fa057610100808354040283529160200191612fcb565b820191906000526020600020905b815481529060010190602001808311612fae57829003601f168201915b50505050508152602001600482018054612fe4906151d6565b80601f0160208091040260200160405190810160405280929190818152602001828054613010906151d6565b801561305d5780601f106130325761010080835404028352916020019161305d565b820191906000526020600020905b81548152906001019060200180831161304057829003601f168201915b505050505081526020016005820160009054906101000a900473ffffffffffffffffffffffffffffffffffffffff1673ffffffffffffffffffffffffffffffffffffffff1673ffffffffffffffffffffffffffffffffffffffff1681526020016005820160149054906101000a900460ff161515151581526020016005820160159054906101000a900460ff161515151581526020016005820160169054906101000a900460ff1615151515815260200160068201548152602001600782015481525050905092915050565b6008818154811061313957600080fd5b906000526020600020016000915090508054613154906151d6565b80601f0160208091040260200160405190810160405280929190818152602001828054613180906151d6565b80156131cd5780601f106131a2576101008083540402835291602001916131cd565b820191906000526020600020905b8154815290600101906020018083116131b057829003601f168201915b505050505081565b600160009054906101000a900473ffffffffffffffffffffffffffffffffffffffff1673ffffffffffffffffffffffffffffffffffffffff163373ffffffffffffffffffffffffffffffffffffffff1614613265576040517f08c379a000000000000000000000000000000000000000000000000000000000815260040161325c90614fcc565b60405180910390fd5b61326f8282613dfe565b6132ae576040517f08c379a00000000000000000000000000000000000000000000000000000000081526004016132a590615282565b60405180910390fd5b60016009600084815260200190815260200160002060050160146101000a81548160ff0219169083151502179055505050565b60008054906101000a900473ffffffffffffffffffffffffffffffffffffffff1673ffffffffffffffffffffffffffffffffffffffff163373ffffffffffffffffffffffffffffffffffffffff161461336f576040517f08c379a000000000000000000000000000000000000000000000000000000000815260040161336690614fcc565b60405180910390fd5b80600160006101000a81548173ffffffffffffffffffffffffffffffffffffffff021916908373ffffffffffffffffffffffffffffffffffffffff16021790555050565b6060600160009054906101000a900473ffffffffffffffffffffffffffffffffffffffff1673ffffffffffffffffffffffffffffffffffffffff163373ffffffffffffffffffffffffffffffffffffffff1614613445576040517f08c379a000000000000000000000000000000000000000000000000000000000815260040161343c90614fcc565b60405180910390fd5b6000600b60008473ffffffffffffffffffffffffffffffffffffffff1673ffffffffffffffffffffffffffffffffffffffff1681526020019081526020016000208054806020026020016040519081016040528092919081815260200182805480156134d057602002820191906000526020600020905b8154815260200190600101908083116134bc575b505050505090506000815167ffffffffffffffff8111156134f4576134f3614277565b5b60405190808252806020026020018201604052801561352d57816020015b61351a6140ad565b8152602001906001900390816135125790505b50905060005b825181101561382b576009600084838151811061355357613552615207565b5b60200260200101518152602001908152602001600020604051806101600160405290816000820154815260200160018201548152602001600282018054613599906151d6565b80601f01602080910402602001604051908101604052809291908181526020018280546135c5906151d6565b80156136125780601f106135e757610100808354040283529160200191613612565b820191906000526020600020905b8154815290600101906020018083116135f557829003601f168201915b5050505050815260200160038201805461362b906151d6565b80601f0160208091040260200160405190810160405280929190818152602001828054613657906151d6565b80156136a45780601f10613679576101008083540402835291602001916136a4565b820191906000526020600020905b81548152906001019060200180831161368757829003601f168201915b505050505081526020016004820180546136bd906151d6565b80601f01602080910402602001604051908101604052809291908181526020018280546136e9906151d6565b80156137365780601f1061370b57610100808354040283529160200191613736565b820191906000526020600020905b81548152906001019060200180831161371957829003601f168201915b505050505081526020016005820160009054906101000a900473ffffffffffffffffffffffffffffffffffffffff1673ffffffffffffffffffffffffffffffffffffffff1673ffffffffffffffffffffffffffffffffffffffff1681526020016005820160149054906101000a900460ff161515151581526020016005820160159054906101000a900460ff161515151581526020016005820160169054906101000a900460ff161515151581526020016006820154815260200160078201548152505082828151811061380d5761380c615207565b5b602002602001018190525080806138239061515f565b915050613533565b508092505050919050565b6060600160009054906101000a900473ffffffffffffffffffffffffffffffffffffffff1673ffffffffffffffffffffffffffffffffffffffff163373ffffffffffffffffffffffffffffffffffffffff16146138c8576040517f08c379a00000000000000000000000000000000000000000000000000000000081526004016138bf90614fcc565b60405180910390fd5b6000600660008473ffffffffffffffffffffffffffffffffffffffff1673ffffffffffffffffffffffffffffffffffffffff16815260200190815260200160002080548060200260200160405190810160405280929190818152602001828054801561395357602002820191906000526020600020905b81548152602001906001019080831161393f575b505050505090506000815167ffffffffffffffff81111561397757613976614277565b5b6040519080825280602002602001820160405280156139b057816020015b61399d61405a565b8152602001906001900390816139955790505b50905060005b8251811015613df3576000600560008584815181106139d8576139d7615207565b5b6020026020010151815260200190815260200160002060010180546139fc906151d6565b80601f0160208091040260200160405190810160405280929190818152602001828054613a28906151d6565b8015613a755780601f10613a4a57610100808354040283529160200191613a75565b820191906000526020600020905b815481529060010190602001808311613a5857829003601f168201915b50505050509050600060056000868581518110613a9557613a94615207565b5b60200260200101518152602001908152602001600020600001549050600060056000878681518110613aca57613ac9615207565b5b602002602001015181526020019081526020016000206002018054613aee906151d6565b80601f0160208091040260200160405190810160405280929190818152602001828054613b1a906151d6565b8015613b675780601f10613b3c57610100808354040283529160200191613b67565b820191906000526020600020905b815481529060010190602001808311613b4a57829003601f168201915b50505050509050600060056000888781518110613b8757613b86615207565b5b60200260200101518152602001908152602001600020600401549050600060056000898881518110613bbc57613bbb615207565b5b602002602001015181526020019081526020016000206003018054613be0906151d6565b80601f0160208091040260200160405190810160405280929190818152602001828054613c0c906151d6565b8015613c595780601f10613c2e57610100808354040283529160200191613c59565b820191906000526020600020905b815481529060010190602001808311613c3c57829003601f168201915b505050505090506000600560008a8981518110613c7957613c78615207565b5b602002602001015181526020019081526020016000206005018054613c9d906151d6565b80601f0160208091040260200160405190810160405280929190818152602001828054613cc9906151d6565b8015613d165780601f10613ceb57610100808354040283529160200191613d16565b820191906000526020600020905b815481529060010190602001808311613cf957829003601f168201915b505050505090506000600560008b8a81518110613d3657613d35615207565b5b6020026020010151815260200190815260200160002060060160009054906101000a900473ffffffffffffffffffffffffffffffffffffffff1690506040518060e001604052808781526020018881526020018681526020018581526020018481526020018381526020018273ffffffffffffffffffffffffffffffffffffffff16815250898981518110613dce57613dcd615207565b5b6020026020010181905250505050505050508080613deb9061515f565b9150506139b6565b508092505050919050565b600080600a60008473ffffffffffffffffffffffffffffffffffffffff1673ffffffffffffffffffffffffffffffffffffffff168152602001908152602001600020805480602002602001604051908101604052809291908181526020018280548015613e8a57602002820191906000526020600020905b815481526020019060010190808311613e76575b5050505050905060005b8151811015613edc5784828281518110613eb157613eb0615207565b5b602002602001015103613ec957600192505050613ee3565b8080613ed49061515f565b915050613e94565b5060009150505b92915050565b600080600b60008473ffffffffffffffffffffffffffffffffffffffff1673ffffffffffffffffffffffffffffffffffffffff168152602001908152602001600020805480602002602001604051908101604052809291908181526020018280548015613f7557602002820191906000526020600020905b815481526020019060010190808311613f61575b5050505050905060005b8151811015613fc75784828281518110613f9c57613f9b615207565b5b602002602001015103613fb457600192505050613fce565b8080613fbf9061515f565b915050613f7f565b5060009150505b92915050565b828054613fe0906151d6565b90600052602060002090601f0160209004810192826140025760008555614049565b82601f1061401b57805160ff1916838001178555614049565b82800160010185558215614049579182015b8281111561404857825182559160200191906001019061402d565b5b5090506140569190614197565b5090565b6040518060e00160405280600081526020016060815260200160608152602001600081526020016060815260200160608152602001600073ffffffffffffffffffffffffffffffffffffffff1681525090565b6040518061016001604052806000815260200160008152602001606081526020016060815260200160608152602001600073ffffffffffffffffffffffffffffffffffffffff16815260200160001515815260200160001515815260200160001515815260200160008152602001600081525090565b604051806101600160405280600081526020016060815260200160608152602001606081526020016000815260200160608152602001600073ffffffffffffffffffffffffffffffffffffffff16815260200160001515815260200160001515815260200160008152602001600081525090565b5b808211156141b0576000816000905550600101614198565b5090565b6000604051905090565b600080fd5b600080fd5b6000819050919050565b6141db816141c8565b81146141e657600080fd5b50565b6000813590506141f8816141d2565b92915050565b600073ffffffffffffffffffffffffffffffffffffffff82169050919050565b6000614229826141fe565b9050919050565b6142398161421e565b811461424457600080fd5b50565b60008135905061425681614230565b92915050565b600080fd5b600080fd5b6000601f19601f8301169050919050565b7f4e487b7100000000000000000000000000000000000000000000000000000000600052604160045260246000fd5b6142af82614266565b810181811067ffffffffffffffff821117156142ce576142cd614277565b5b80604052505050565b60006142e16141b4565b90506142ed82826142a6565b919050565b600067ffffffffffffffff82111561430d5761430c614277565b5b61431682614266565b9050602081019050919050565b82818337600083830152505050565b6000614345614340846142f2565b6142d7565b90508281526020810184848401111561436157614360614261565b5b61436c848285614323565b509392505050565b600082601f8301126143895761438861425c565b5b8135614399848260208601614332565b91505092915050565b6000806000606084860312156143bb576143ba6141be565b5b60006143c9868287016141e9565b93505060206143da86828701614247565b925050604084013567ffffffffffffffff8111156143fb576143fa6141c3565b5b61440786828701614374565b9150509250925092565b600081519050919050565b600082825260208201905092915050565b6000819050602082019050919050565b614446816141c8565b82525050565b600081519050919050565b600082825260208201905092915050565b60005b8381101561448657808201518184015260208101905061446b565b83811115614495576000848401525b50505050565b60006144a68261444c565b6144b08185614457565b93506144c0818560208601614468565b6144c981614266565b840191505092915050565b6144dd8161421e565b82525050565b600060e0830160008301516144fb600086018261443d565b5060208301518482036020860152614513828261449b565b9150506040830151848203604086015261452d828261449b565b9150506060830151614542606086018261443d565b506080830151848203608086015261455a828261449b565b91505060a083015184820360a0860152614574828261449b565b91505060c083015161458960c08601826144d4565b508091505092915050565b60006145a083836144e3565b905092915050565b6000602082019050919050565b60006145c082614411565b6145ca818561441c565b9350836020820285016145dc8561442d565b8060005b8581101561461857848403895281516145f98582614594565b9450614604836145a8565b925060208a019950506001810190506145e0565b50829750879550505050505092915050565b6000602082019050818103600083015261464481846145b5565b905092915050565b60008060408385031215614663576146626141be565b5b6000614671858286016141e9565b925050602061468285828601614247565b9150509250929050565b60008115159050919050565b6146a18161468c565b82525050565b6000610160830160008301516146c0600086018261443d565b5060208301516146d3602086018261443d565b50604083015184820360408601526146eb828261449b565b91505060608301518482036060860152614705828261449b565b9150506080830151848203608086015261471f828261449b565b91505060a083015161473460a08601826144d4565b5060c083015161474760c0860182614698565b5060e083015161475a60e0860182614698565b5061010083015161476f610100860182614698565b5061012083015161478461012086018261443d565b5061014083015161479961014086018261443d565b508091505092915050565b600060208201905081810360008301526147be81846146a7565b905092915050565b600080600080600060a086880312156147e2576147e16141be565b5b60006147f0888289016141e9565b955050602086013567ffffffffffffffff811115614811576148106141c3565b5b61481d88828901614374565b945050604061482e88828901614247565b935050606061483f88828901614247565b925050608086013567ffffffffffffffff8111156148605761485f6141c3565b5b61486c88828901614374565b9150509295509295909350565b60006020828403121561488f5761488e6141be565b5b600061489d848285016141e9565b91505092915050565b6000610160830160008301516148bf600086018261443d565b50602083015184820360208601526148d7828261449b565b915050604083015184820360408601526148f1828261449b565b9150506060830151848203606086015261490b828261449b565b9150506080830151614920608086018261443d565b5060a083015184820360a0860152614938828261449b565b91505060c083015161494d60c08601826144d4565b5060e083015161496060e0860182614698565b50610100830151614975610100860182614698565b5061012083015161498a61012086018261443d565b5061014083015161499f61014086018261443d565b508091505092915050565b600060208201905081810360008301526149c481846148a6565b905092915050565b6149d58161468c565b81146149e057600080fd5b50565b6000813590506149f2816149cc565b92915050565b600080600060608486031215614a1157614a106141be565b5b6000614a1f868287016141e9565b9350506020614a30868287016149e3565b9250506040614a4186828701614247565b9150509250925092565b600081519050919050565b600082825260208201905092915050565b6000819050602082019050919050565b600061010083016000830151614a9060008601826144d4565b506020830151614aa3602086018261443d565b5060408301518482036040860152614abb828261449b565b91505060608301518482036060860152614ad5828261449b565b91505060808301518482036080860152614aef828261449b565b91505060a0830151614b0460a086018261443d565b5060c083015184820360c0860152614b1c828261449b565b91505060e0830151614b3160e086018261443d565b508091505092915050565b6000614b488383614a77565b905092915050565b6000602082019050919050565b6000614b6882614a4b565b614b728185614a56565b935083602082028501614b8485614a67565b8060005b85811015614bc05784840389528151614ba18582614b3c565b9450614bac83614b50565b925060208a01995050600181019050614b88565b50829750879550505050505092915050565b60006020820190508181036000830152614bec8184614b5d565b905092915050565b600060208284031215614c0a57614c096141be565b5b6000614c1884828501614247565b91505092915050565b600081519050919050565b600082825260208201905092915050565b6000819050602082019050919050565b600061016083016000830151614c66600086018261443d565b506020830151614c79602086018261443d565b5060408301518482036040860152614c91828261449b565b91505060608301518482036060860152614cab828261449b565b91505060808301518482036080860152614cc5828261449b565b91505060a0830151614cda60a08601826144d4565b5060c0830151614ced60c0860182614698565b5060e0830151614d0060e0860182614698565b50610100830151614d15610100860182614698565b50610120830151614d2a61012086018261443d565b50610140830151614d3f61014086018261443d565b508091505092915050565b6000614d568383614c4d565b905092915050565b6000602082019050919050565b6000614d7682614c21565b614d808185614c2c565b935083602082028501614d9285614c3d565b8060005b85811015614dce5784840389528151614daf8582614d4a565b9450614dba83614d5e565b925060208a01995050600181019050614d96565b50829750879550505050505092915050565b60006020820190508181036000830152614dfa8184614d6b565b905092915050565b600080600080600080600060e0888a031215614e2157614e206141be565b5b600088013567ffffffffffffffff811115614e3f57614e3e6141c3565b5b614e4b8a828b01614374565b975050602088013567ffffffffffffffff811115614e6c57614e6b6141c3565b5b614e788a828b01614374565b965050604088013567ffffffffffffffff811115614e9957614e986141c3565b5b614ea58a828b01614374565b9550506060614eb68a828b016141e9565b945050608088013567ffffffffffffffff811115614ed757614ed66141c3565b5b614ee38a828b01614374565b93505060a0614ef48a828b016141e9565b92505060c0614f058a828b01614247565b91505092959891949750929550565b600082825260208201905092915050565b6000614f308261444c565b614f3a8185614f14565b9350614f4a818560208601614468565b614f5381614266565b840191505092915050565b60006020820190508181036000830152614f788184614f25565b905092915050565b7f556e617574686f72697a65642061636365737321000000000000000000000000600082015250565b6000614fb6601483614f14565b9150614fc182614f80565b602082019050919050565b60006020820190508181036000830152614fe581614fa9565b9050919050565b7f4974656d20646f6573206e6f7420657869737421000000000000000000000000600082015250565b6000615022601483614f14565b915061502d82614fec565b602082019050919050565b6000602082019050818103600083015261505181615015565b9050919050565b7f4974656d206973206e6f7420617661696c61626c6520666f722073656c6c2e00600082015250565b600061508e601f83614f14565b915061509982615058565b602082019050919050565b600060208201905081810360008301526150bd81615081565b9050919050565b7f596f752043616e206e6f742062757920796f7572206f776e204974656d210000600082015250565b60006150fa601e83614f14565b9150615105826150c4565b602082019050919050565b60006020820190508181036000830152615129816150ed565b9050919050565b7f4e487b7100000000000000000000000000000000000000000000000000000000600052601160045260246000fd5b600061516a826141c8565b91507fffffffffffffffffffffffffffffffffffffffffffffffffffffffffffffffff820361519c5761519b615130565b5b600182019050919050565b7f4e487b7100000000000000000000000000000000000000000000000000000000600052602260045260246000fd5b600060028204905060018216806151ee57607f821691505b602082108103615201576152006151a7565b5b50919050565b7f4e487b7100000000000000000000000000000000000000000000000000000000600052603260045260246000fd5b7f507572636861736520496420646f6573206e6f74206578697374000000000000600082015250565b600061526c601a83614f14565b915061527782615236565b602082019050919050565b6000602082019050818103600083015261529b8161525f565b9050919050565b7f4f726465722069732065697468657220696e416374697665206f722063616e6360008201527f656c6c6564000000000000000000000000000000000000000000000000000000602082015250565b60006152fe602583614f14565b9150615309826152a2565b604082019050919050565b6000602082019050818103600083015261532d816152f1565b9050919050565b600082825260208201905092915050565b60006153508261444c565b61535a8185615334565b935061536a818560208601614468565b61537381614266565b840191505092915050565b7f44454c4956455259000000000000000000000000000000000000000000000000600082015250565b60006153b4600883615334565b91506153bf8261537e565b602082019050919050565b600060408201905081810360008301526153e48184615345565b905081810360208301526153f7816153a7565b905092915050565b60008151905061540e816149cc565b92915050565b60006020828403121561542a576154296141be565b5b6000615438848285016153ff565b91505092915050565b7f55736572206973206e6f74207265676973746572656420617320612064656c6960008201527f76657279206167656e742e000000000000000000000000000000000000000000602082015250565b600061549d602b83614f14565b91506154a882615441565b604082019050919050565b600060208201905081810360008301526154cc81615490565b9050919050565b7f44454c4956455245440000000000000000000000000000000000000000000000600082015250565b6000615509600983615334565b9150615514826154d3565b602082019050919050565b600060408201905081810360008301526155398184615345565b9050818103602083015261554c816154fc565b905092915050565b7f50726f6475637420646f6573206e6f7420657869737421000000000000000000600082015250565b600061558a601783614f14565b915061559582615554565b602082019050919050565b600060208201905081810360008301526155b98161557d565b9050919050565b7f4163636573732064656e69656421000000000000000000000000000000000000600082015250565b60006155f6600e83614f14565b9150615601826155c0565b602082019050919050565b60006020820190508181036000830152615625816155e9565b9050919050565b7f596f7520416c72656164792043616e63656c65642054686973206f7264657221600082015250565b6000615662602083614f14565b915061566d8261562c565b602082019050919050565b6000602082019050818103600083015261569181615655565b9050919050565b60008190508160005260206000209050919050565b600081546156ba816151d6565b6156c48186615334565b945060018216600081146156df57600181146156f157615724565b60ff1983168652602086019350615724565b6156fa85615698565b60005b8381101561571c578154818901526001820191506020810190506156fd565b808801955050505b50505092915050565b7f696e697469616c20736869706d656e7420737461747573000000000000000000600082015250565b6000615763601783615334565b915061576e8261572d565b602082019050919050565b6000604082019050818103600083015261579381846156ad565b905081810360208301526157a681615756565b905092915050565b60006157b9826141c8565b91506157c4836141c8565b9250827fffffffffffffffffffffffffffffffffffffffffffffffffffffffffffffffff038211156157f9576157f8615130565b5b82820190509291505056fea2646970667358221220355fa2e3a11f1911e347352fab3f0127b070dad4e8362214f828871b2993be2f64736f6c634300080e0033",
  "immutableReferences": {},
  "source": "// SPDX-License-Identifier: MIT\r\npragma solidity ^0.8.0;\r\n\r\nimport \"./Library.sol\";\r\n\r\ncontract ProductContract {\r\n    /*\r\n        The owner of the contract is the deployer\r\n    */\r\n    address _owner;\r\n    address supplyChainAddress;\r\n    // address payable public owner;\r\n\r\n    /*\r\n        Set owner of the contract to the deployer\r\n    */\r\n    constructor() {\r\n        _owner = msg.sender;\r\n    }\r\n\r\n    function setAddress(address add) external {\r\n        require(msg.sender == _owner, \"Unauthorized access!\");\r\n        supplyChainAddress = add;\r\n    }\r\n\r\n    uint id;\r\n    uint purchaseId;\r\n    uint productId;\r\n\r\n    /*\r\n        Item fields\r\n    */\r\n    struct Product {\r\n        uint productId;\r\n        string mongoId;\r\n        string productName;\r\n        string category;\r\n        uint price;\r\n        string description;\r\n        address owner;\r\n        bool isAvailable;\r\n        bool isCreated;\r\n        uint createdAt;\r\n        uint updatedAt;\r\n    }\r\n    struct ProductView {\r\n        uint productId;\r\n        string mongoId;\r\n        string name;\r\n        uint price;\r\n        string category;\r\n        string description;\r\n        address owner;\r\n    }\r\n\r\n    struct History{\r\n        address prevOwner;\r\n        uint productId;\r\n        string mongoId;\r\n        string productName;\r\n        string category;\r\n        uint price;\r\n        string description;\r\n        uint transferDate;\r\n    }\r\n\r\n    struct OrderShipment {\r\n        uint purchaseId;\r\n        uint productId;\r\n        string mongoId;\r\n        string shipmentStatus;\r\n        string deliveryAddress;\r\n        address orderedBy;\r\n        bool isConfirmed;\r\n        bool isActive;\r\n        bool isCanceled;\r\n        uint createdAt;\r\n        uint updatedAt;\r\n    }\r\n\r\n    struct ShipmentHistory{\r\n        string location;\r\n        string description;\r\n        uint arrivedAt;\r\n        uint sentAt;\r\n    }\r\n\r\n    mapping (uint => Product) products;\r\n    mapping (address => uint[]) ownerProducts;\r\n    //Product Id mapped to an array of productHistories\r\n    mapping (uint => History[]) productHistories;\r\n    string[] public allProducts;\r\n    mapping (uint => OrderShipment) orderShipments;\r\n    mapping (address => uint[]) userPurchaseIds;\r\n    mapping (address => uint[]) sellerPurchaseIds;\r\n    mapping (uint => ShipmentHistory[]) shipmentHistoryHistories;\r\n\r\n    function addProduct(\r\n        string memory _mongoId,\r\n        string memory _productName,\r\n        string memory _category,\r\n        uint _price,\r\n        string memory _description,\r\n        uint _instanceNumber,\r\n        address productOwner\r\n    ) external {\r\n        require(msg.sender == supplyChainAddress, \"Unauthorized access!\");\r\n        // require(users[msg.sender].isCreated, \"You are not Registered as Seller\"); //check user role\r\n\r\n        for (uint i = 0; i < _instanceNumber; i++){\r\n            Product memory product = Product(\r\n                productId,\r\n                _mongoId,\r\n                _productName,\r\n                _category,\r\n                _price,\r\n                _description,\r\n                productOwner,\r\n                true,\r\n                true,\r\n                block.timestamp,\r\n                block.timestamp\r\n            );\r\n\r\n            products[productId] = product;\r\n            ownerProducts[productOwner].push(productId);\r\n            productId += 1;\r\n        }\r\n    }\r\n\r\n    function getProductById(uint _productId) external view returns (Product memory){\r\n        Product memory res = products[_productId];\r\n        return res;\r\n    }\r\n\r\n    function getAllProducts() external view returns (ProductView[] memory){\r\n        ProductView[] memory res = new ProductView[](productId);\r\n        for(uint i = 0; i < productId; i++) {\r\n            string memory mongoId = products[i].mongoId;\r\n            uint product_id = products[i].productId;\r\n            string memory name = products[i].productName;\r\n            uint price = products[i].price;\r\n            string memory category = products[i].category;\r\n            string memory description = products[i].description;\r\n            address productOwner = products[i].owner;\r\n            res[i] = ProductView(product_id, mongoId, name, price, category, description, productOwner);\r\n        }\r\n        return res;\r\n    }\r\n\r\n    function getUserProducts(address _productOwner) external view returns (ProductView[] memory){\r\n        require(msg.sender == supplyChainAddress, \"Unauthorized access!\");\r\n\r\n        uint[] memory op = ownerProducts[_productOwner];\r\n        ProductView[] memory res = new ProductView[](op.length);\r\n        for(uint i = 0; i < op.length; i++) {\r\n            string memory mongoId = products[op[i]].mongoId;\r\n            uint product_id = products[op[i]].productId;\r\n            string memory name = products[op[i]].productName;\r\n            uint price = products[op[i]].price;\r\n            string memory category = products[op[i]].category;\r\n            string memory description = products[op[i]].description;\r\n            address productOwner = products[op[i]].owner;\r\n            res[i] = ProductView(product_id, mongoId, name, price, category, description, productOwner);\r\n        }\r\n        return res;\r\n    }\r\n\r\n    function getProductHistory(uint _productId) external view returns(History[] memory) {\r\n        return productHistories[_productId];\r\n    }\r\n\r\n    function changeProductAvailability(uint _productId, bool _available, address productOwner) external {\r\n        require(msg.sender == supplyChainAddress, \"Unauthorized access!\");\r\n        require(products[_productId].isCreated, \"Product does not exist!\");\r\n        require(products[_productId].owner == productOwner, \"Access denied!\");\r\n        products[_productId].isAvailable = _available;\r\n    }\r\n\r\n    function buyProduct(uint _productId, address buyerAddress, string memory buyerDeliveryAddress) external { //payable\r\n        require(msg.sender == supplyChainAddress, \"Unauthorized access!\");\r\n        require(products[_productId].isCreated, \"Item does not exist!\");\r\n        require(products[_productId].isAvailable, \"Item is not available for sell.\");\r\n        require(products[_productId].owner != buyerAddress, \"You Can not buy your own Item!\");\r\n        // products[_productId].seller.transfer(msg.value);\r\n\r\n        purchaseId = id++;\r\n\r\n        OrderShipment memory order = OrderShipment(\r\n            purchaseId,\r\n            _productId,\r\n            products[_productId].mongoId,\r\n            \"initial shipment status\",\r\n            buyerDeliveryAddress,\r\n            buyerAddress,\r\n            false,\r\n            true,\r\n            false,\r\n            block.timestamp,\r\n            block.timestamp\r\n        );\r\n        orderShipments[purchaseId] = order;\r\n\r\n        userPurchaseIds[buyerAddress].push(purchaseId);\r\n        sellerPurchaseIds[products[_productId].owner].push(purchaseId);\r\n    }\r\n\r\n    function getUserOrders(address userAddress) external view returns(OrderShipment[] memory) {\r\n        require(msg.sender == supplyChainAddress, \"Unauthorized access!\");\r\n\r\n        uint[] memory purchaseIds = userPurchaseIds[userAddress];\r\n        OrderShipment[] memory orders = new OrderShipment[](purchaseIds.length);\r\n        for(uint i = 0; i < purchaseIds.length; i++){\r\n            orders[i] = orderShipments[purchaseIds[i]];\r\n        }\r\n        return orders;\r\n    }\r\n\r\n    function getUserPurchaseId(uint _purchaseId, address userAddress) private view returns (bool) {\r\n        uint[] memory purchaseIds = userPurchaseIds[userAddress];\r\n        for(uint i = 0; i < purchaseIds.length; i++){\r\n            if (purchaseIds[i] == _purchaseId){\r\n                return true;\r\n            }\r\n        }\r\n        return false;\r\n    }\r\n\r\n    function getUserOrderDetail (uint _purchaseId, address userAddress) external view returns (OrderShipment memory) {\r\n        require(msg.sender == supplyChainAddress, \"Unauthorized access!\");\r\n\r\n        require(getUserPurchaseId(_purchaseId, userAddress), \"Purchase Id does not exist\");\r\n        return orderShipments[_purchaseId];\r\n    }\r\n\r\n    function getSellerOrders(address sellerAddress) external view returns (OrderShipment[] memory) {\r\n        require(msg.sender == supplyChainAddress, \"Unauthorized access!\");\r\n\r\n        uint[] memory purchaseIds = sellerPurchaseIds[sellerAddress];\r\n        OrderShipment[] memory orders = new OrderShipment[](purchaseIds.length);\r\n        for(uint i = 0; i < purchaseIds.length; i++){\r\n            orders[i] = orderShipments[purchaseIds[i]];\r\n        }\r\n        return orders;\r\n    }\r\n\r\n    function getSellerPurchaseId(uint _purchaseId, address sellerAddress) private view returns (bool) {\r\n        uint[] memory purchaseIds = sellerPurchaseIds[sellerAddress];\r\n        for(uint i = 0; i < purchaseIds.length; i++){\r\n            if (purchaseIds[i] == _purchaseId){\r\n                return true;\r\n            }\r\n        }\r\n        return false;\r\n    }\r\n\r\n    function getSellerOrderDetail (uint _purchaseId, address sellerAddress) external view returns (OrderShipment memory) {\r\n        require(msg.sender == supplyChainAddress, \"Unauthorized access!\");\r\n        require(getSellerPurchaseId(_purchaseId, sellerAddress), \"Purchase Id does not exist\");\r\n        return orderShipments[_purchaseId];\r\n    }\r\n\r\n    function updateShipmentStatus(\r\n        uint _purchaseId,\r\n        string memory _newShipmentStatus,\r\n        address deliveryUserAddress,\r\n        address sellerAddress,\r\n        string memory deliveryUserRole\r\n    ) external {\r\n        require(msg.sender == supplyChainAddress, \"Unauthorized access!\");\r\n        require(getSellerPurchaseId(_purchaseId, sellerAddress), \"Purchase Id does not exist\");\r\n        require(orderShipments[_purchaseId].isActive, \"Order is either inActive or cancelled\");\r\n        require(Library.compareStrings(deliveryUserRole, \"DELIVERY\"), \"User is not registered as a delivery agent.\");\r\n\r\n        OrderShipment memory shipment = orderShipments[_purchaseId];\r\n        orderShipments[_purchaseId].shipmentStatus = _newShipmentStatus;\r\n\r\n        uint product_id = shipment.productId;\r\n        //if status id delivered\r\n        if (Library.compareStrings(_newShipmentStatus, \"DELIVERED\")) {\r\n            products[product_id].owner = shipment.orderedBy;\r\n        } else {\r\n            products[product_id].owner = deliveryUserAddress;\r\n            sellerPurchaseIds[deliveryUserAddress].push(_purchaseId);\r\n        }\r\n\r\n        Product memory product = products[product_id];\r\n\r\n        string memory mongoId = product.mongoId;\r\n        string memory productName = product.productName;\r\n        string memory category = product.category;\r\n        uint price = product.price;\r\n        string memory description = product.description;\r\n\r\n        History memory history = History(\r\n            sellerAddress,\r\n            product_id,\r\n            mongoId,\r\n            productName,\r\n            category,\r\n            price,\r\n            description,\r\n            block.timestamp\r\n        );\r\n        productHistories[product_id].push(history);\r\n    }\r\n\r\n    function confirmUserOrder (uint _purchaseId, address userAddress) external {\r\n        require(msg.sender == supplyChainAddress, \"Unauthorized access!\");\r\n        require(getUserPurchaseId(_purchaseId, userAddress), \"Purchase Id does not exist\");\r\n        orderShipments[_purchaseId].isConfirmed = true;\r\n    }\r\n\r\n    function cancelOrder(uint _purchaseId, address userAddress) external { //payable\r\n        require(msg.sender == supplyChainAddress, \"Unauthorized access!\");\r\n        require(\r\n            getUserPurchaseId(_purchaseId, userAddress) ||\r\n            getSellerPurchaseId(_purchaseId, userAddress),\r\n            \"Purchase Id does not exist\"\r\n        );\r\n        require(!orderShipments[_purchaseId].isActive, \"You Already Canceled This order!\");\r\n        require(!Library.compareStrings(orderShipments[_purchaseId].shipmentStatus, \"initial shipment status\"),\r\n            \"You Already Canceled This order!\");\r\n\r\n        orderShipments[_purchaseId].isActive = false;\r\n    }\r\n}",
  "sourcePath": "C:\\Users\\nathn\\Desktop\\final project\\blockchain-api\\blockchain-contracts\\contracts\\ProductContract.sol",
  "compiler": {
    "name": "solc",
    "version": "0.8.14+commit.80d49f37.Emscripten.clang"
  },
  "schemaVersion": "3.4.7",
  "updatedAt": "2022-05-25T12:42:07.753Z",
  "devdoc": {
    "kind": "dev",
    "methods": {},
    "version": 1
  },
  "userdoc": {
    "kind": "user",
    "methods": {},
    "version": 1
  }
}