{
  "contractName": "ProductContract",
  "abi": [
    {
      "inputs": [
        {
          "internalType": "address",
          "name": "add",
          "type": "address"
        }
      ],
      "stateMutability": "nonpayable",
      "type": "constructor"
    },
    {
      "inputs": [
        {
          "internalType": "uint256",
          "name": "",
          "type": "uint256"
        }
      ],
      "name": "allProducts",
      "outputs": [
        {
          "internalType": "string",
          "name": "",
          "type": "string"
        }
      ],
      "stateMutability": "view",
      "type": "function"
    },
    {
      "inputs": [],
      "name": "supplyChainAddress",
      "outputs": [
        {
          "internalType": "address",
          "name": "",
          "type": "address"
        }
      ],
      "stateMutability": "view",
      "type": "function"
    },
    {
      "inputs": [
        {
          "internalType": "address",
          "name": "add",
          "type": "address"
        }
      ],
      "name": "setSupplyChainAddress",
      "outputs": [],
      "stateMutability": "nonpayable",
      "type": "function"
    },
    {
      "inputs": [
        {
          "internalType": "string",
          "name": "_mongoId",
          "type": "string"
        },
        {
          "internalType": "string",
          "name": "_productName",
          "type": "string"
        },
        {
          "internalType": "string",
          "name": "_category",
          "type": "string"
        },
        {
          "internalType": "uint256",
          "name": "_price",
          "type": "uint256"
        },
        {
          "internalType": "string",
          "name": "_description",
          "type": "string"
        },
        {
          "internalType": "uint256",
          "name": "_instanceNumber",
          "type": "uint256"
        },
        {
          "internalType": "address",
          "name": "productOwner",
          "type": "address"
        }
      ],
      "name": "addProduct",
      "outputs": [],
      "stateMutability": "nonpayable",
      "type": "function"
    },
    {
      "inputs": [
        {
          "internalType": "uint256",
          "name": "_productId",
          "type": "uint256"
        }
      ],
      "name": "getProductById",
      "outputs": [
        {
          "components": [
            {
              "internalType": "uint256",
              "name": "productId",
              "type": "uint256"
            },
            {
              "internalType": "string",
              "name": "mongoId",
              "type": "string"
            },
            {
              "internalType": "string",
              "name": "productName",
              "type": "string"
            },
            {
              "internalType": "string",
              "name": "category",
              "type": "string"
            },
            {
              "internalType": "uint256",
              "name": "price",
              "type": "uint256"
            },
            {
              "internalType": "string",
              "name": "description",
              "type": "string"
            },
            {
              "internalType": "address",
              "name": "owner",
              "type": "address"
            },
            {
              "internalType": "bool",
              "name": "isAvailable",
              "type": "bool"
            },
            {
              "internalType": "bool",
              "name": "isCreated",
              "type": "bool"
            },
            {
              "internalType": "uint256",
              "name": "createdAt",
              "type": "uint256"
            },
            {
              "internalType": "uint256",
              "name": "updatedAt",
              "type": "uint256"
            }
          ],
          "internalType": "struct ProductContract.Product",
          "name": "",
          "type": "tuple"
        }
      ],
      "stateMutability": "view",
      "type": "function"
    },
    {
      "inputs": [],
      "name": "getAllProducts",
      "outputs": [
        {
          "components": [
            {
              "internalType": "uint256",
              "name": "productId",
              "type": "uint256"
            },
            {
              "internalType": "string",
              "name": "mongoId",
              "type": "string"
            },
            {
              "internalType": "string",
              "name": "name",
              "type": "string"
            },
            {
              "internalType": "uint256",
              "name": "price",
              "type": "uint256"
            },
            {
              "internalType": "string",
              "name": "category",
              "type": "string"
            },
            {
              "internalType": "string",
              "name": "description",
              "type": "string"
            },
            {
              "internalType": "address",
              "name": "owner",
              "type": "address"
            }
          ],
          "internalType": "struct ProductContract.ProductView[]",
          "name": "",
          "type": "tuple[]"
        }
      ],
      "stateMutability": "view",
      "type": "function"
    },
    {
      "inputs": [
        {
          "internalType": "address",
          "name": "_productOwner",
          "type": "address"
        }
      ],
      "name": "getUserProducts",
      "outputs": [
        {
          "components": [
            {
              "internalType": "uint256",
              "name": "productId",
              "type": "uint256"
            },
            {
              "internalType": "string",
              "name": "mongoId",
              "type": "string"
            },
            {
              "internalType": "string",
              "name": "name",
              "type": "string"
            },
            {
              "internalType": "uint256",
              "name": "price",
              "type": "uint256"
            },
            {
              "internalType": "string",
              "name": "category",
              "type": "string"
            },
            {
              "internalType": "string",
              "name": "description",
              "type": "string"
            },
            {
              "internalType": "address",
              "name": "owner",
              "type": "address"
            }
          ],
          "internalType": "struct ProductContract.ProductView[]",
          "name": "",
          "type": "tuple[]"
        }
      ],
      "stateMutability": "view",
      "type": "function"
    },
    {
      "inputs": [
        {
          "internalType": "uint256",
          "name": "_productId",
          "type": "uint256"
        }
      ],
      "name": "getProductHistory",
      "outputs": [
        {
          "components": [
            {
              "internalType": "address",
              "name": "prevOwner",
              "type": "address"
            },
            {
              "internalType": "uint256",
              "name": "productId",
              "type": "uint256"
            },
            {
              "internalType": "string",
              "name": "mongoId",
              "type": "string"
            },
            {
              "internalType": "string",
              "name": "productName",
              "type": "string"
            },
            {
              "internalType": "string",
              "name": "category",
              "type": "string"
            },
            {
              "internalType": "uint256",
              "name": "price",
              "type": "uint256"
            },
            {
              "internalType": "string",
              "name": "description",
              "type": "string"
            },
            {
              "internalType": "uint256",
              "name": "transferDate",
              "type": "uint256"
            }
          ],
          "internalType": "struct ProductContract.History[]",
          "name": "",
          "type": "tuple[]"
        }
      ],
      "stateMutability": "view",
      "type": "function"
    },
    {
      "inputs": [
        {
          "internalType": "uint256",
          "name": "_productId",
          "type": "uint256"
        },
        {
          "internalType": "bool",
          "name": "_available",
          "type": "bool"
        },
        {
          "internalType": "address",
          "name": "productOwner",
          "type": "address"
        }
      ],
      "name": "changeProductAvailability",
      "outputs": [],
      "stateMutability": "nonpayable",
      "type": "function"
    },
    {
      "inputs": [
        {
          "internalType": "uint256",
          "name": "_productId",
          "type": "uint256"
        },
        {
          "internalType": "address",
          "name": "buyerAddress",
          "type": "address"
        },
        {
          "internalType": "string",
          "name": "buyerDeliveryAddress",
          "type": "string"
        }
      ],
      "name": "buyProduct",
      "outputs": [],
      "stateMutability": "nonpayable",
      "type": "function"
    },
    {
      "inputs": [
        {
          "internalType": "address",
          "name": "userAddress",
          "type": "address"
        }
      ],
      "name": "getUserOrders",
      "outputs": [
        {
          "components": [
            {
              "internalType": "uint256",
              "name": "purchaseId",
              "type": "uint256"
            },
            {
              "internalType": "uint256",
              "name": "productId",
              "type": "uint256"
            },
            {
              "internalType": "string",
              "name": "mongoId",
              "type": "string"
            },
            {
              "internalType": "string",
              "name": "shipmentStatus",
              "type": "string"
            },
            {
              "internalType": "string",
              "name": "deliveryAddress",
              "type": "string"
            },
            {
              "internalType": "address",
              "name": "orderedBy",
              "type": "address"
            },
            {
              "internalType": "bool",
              "name": "isConfirmed",
              "type": "bool"
            },
            {
              "internalType": "bool",
              "name": "isActive",
              "type": "bool"
            },
            {
              "internalType": "bool",
              "name": "isCanceled",
              "type": "bool"
            },
            {
              "internalType": "uint256",
              "name": "createdAt",
              "type": "uint256"
            },
            {
              "internalType": "uint256",
              "name": "updatedAt",
              "type": "uint256"
            }
          ],
          "internalType": "struct ProductContract.OrderShipment[]",
          "name": "",
          "type": "tuple[]"
        }
      ],
      "stateMutability": "view",
      "type": "function"
    },
    {
      "inputs": [
        {
          "internalType": "uint256",
          "name": "_purchaseId",
          "type": "uint256"
        },
        {
          "internalType": "address",
          "name": "userAddress",
          "type": "address"
        }
      ],
      "name": "getUserOrderDetail",
      "outputs": [
        {
          "components": [
            {
              "internalType": "uint256",
              "name": "purchaseId",
              "type": "uint256"
            },
            {
              "internalType": "uint256",
              "name": "productId",
              "type": "uint256"
            },
            {
              "internalType": "string",
              "name": "mongoId",
              "type": "string"
            },
            {
              "internalType": "string",
              "name": "shipmentStatus",
              "type": "string"
            },
            {
              "internalType": "string",
              "name": "deliveryAddress",
              "type": "string"
            },
            {
              "internalType": "address",
              "name": "orderedBy",
              "type": "address"
            },
            {
              "internalType": "bool",
              "name": "isConfirmed",
              "type": "bool"
            },
            {
              "internalType": "bool",
              "name": "isActive",
              "type": "bool"
            },
            {
              "internalType": "bool",
              "name": "isCanceled",
              "type": "bool"
            },
            {
              "internalType": "uint256",
              "name": "createdAt",
              "type": "uint256"
            },
            {
              "internalType": "uint256",
              "name": "updatedAt",
              "type": "uint256"
            }
          ],
          "internalType": "struct ProductContract.OrderShipment",
          "name": "",
          "type": "tuple"
        }
      ],
      "stateMutability": "view",
      "type": "function"
    },
    {
      "inputs": [
        {
          "internalType": "address",
          "name": "sellerAddress",
          "type": "address"
        }
      ],
      "name": "getSellerOrders",
      "outputs": [
        {
          "components": [
            {
              "internalType": "uint256",
              "name": "purchaseId",
              "type": "uint256"
            },
            {
              "internalType": "uint256",
              "name": "productId",
              "type": "uint256"
            },
            {
              "internalType": "string",
              "name": "mongoId",
              "type": "string"
            },
            {
              "internalType": "string",
              "name": "shipmentStatus",
              "type": "string"
            },
            {
              "internalType": "string",
              "name": "deliveryAddress",
              "type": "string"
            },
            {
              "internalType": "address",
              "name": "orderedBy",
              "type": "address"
            },
            {
              "internalType": "bool",
              "name": "isConfirmed",
              "type": "bool"
            },
            {
              "internalType": "bool",
              "name": "isActive",
              "type": "bool"
            },
            {
              "internalType": "bool",
              "name": "isCanceled",
              "type": "bool"
            },
            {
              "internalType": "uint256",
              "name": "createdAt",
              "type": "uint256"
            },
            {
              "internalType": "uint256",
              "name": "updatedAt",
              "type": "uint256"
            }
          ],
          "internalType": "struct ProductContract.OrderShipment[]",
          "name": "",
          "type": "tuple[]"
        }
      ],
      "stateMutability": "view",
      "type": "function"
    },
    {
      "inputs": [
        {
          "internalType": "uint256",
          "name": "_purchaseId",
          "type": "uint256"
        },
        {
          "internalType": "address",
          "name": "sellerAddress",
          "type": "address"
        }
      ],
      "name": "getSellerOrderDetail",
      "outputs": [
        {
          "components": [
            {
              "internalType": "uint256",
              "name": "purchaseId",
              "type": "uint256"
            },
            {
              "internalType": "uint256",
              "name": "productId",
              "type": "uint256"
            },
            {
              "internalType": "string",
              "name": "mongoId",
              "type": "string"
            },
            {
              "internalType": "string",
              "name": "shipmentStatus",
              "type": "string"
            },
            {
              "internalType": "string",
              "name": "deliveryAddress",
              "type": "string"
            },
            {
              "internalType": "address",
              "name": "orderedBy",
              "type": "address"
            },
            {
              "internalType": "bool",
              "name": "isConfirmed",
              "type": "bool"
            },
            {
              "internalType": "bool",
              "name": "isActive",
              "type": "bool"
            },
            {
              "internalType": "bool",
              "name": "isCanceled",
              "type": "bool"
            },
            {
              "internalType": "uint256",
              "name": "createdAt",
              "type": "uint256"
            },
            {
              "internalType": "uint256",
              "name": "updatedAt",
              "type": "uint256"
            }
          ],
          "internalType": "struct ProductContract.OrderShipment",
          "name": "",
          "type": "tuple"
        }
      ],
      "stateMutability": "view",
      "type": "function"
    },
    {
      "inputs": [
        {
          "internalType": "uint256",
          "name": "_purchaseId",
          "type": "uint256"
        },
        {
          "internalType": "string",
          "name": "_newShipmentStatus",
          "type": "string"
        },
        {
          "internalType": "address",
          "name": "deliveryUserAddress",
          "type": "address"
        },
        {
          "internalType": "address",
          "name": "sellerAddress",
          "type": "address"
        },
        {
          "internalType": "string",
          "name": "deliveryUserRole",
          "type": "string"
        }
      ],
      "name": "updateShipmentStatus",
      "outputs": [],
      "stateMutability": "nonpayable",
      "type": "function"
    },
    {
      "inputs": [
        {
          "internalType": "uint256",
          "name": "_purchaseId",
          "type": "uint256"
        },
        {
          "internalType": "address",
          "name": "userAddress",
          "type": "address"
        }
      ],
      "name": "confirmUserOrder",
      "outputs": [],
      "stateMutability": "nonpayable",
      "type": "function"
    },
    {
      "inputs": [
        {
          "internalType": "uint256",
          "name": "_purchaseId",
          "type": "uint256"
        },
        {
          "internalType": "address",
          "name": "userAddress",
          "type": "address"
        }
      ],
      "name": "cancelOrder",
      "outputs": [],
      "stateMutability": "nonpayable",
      "type": "function"
    }
  ],
  "bytecode": "0x60806040523480156200001157600080fd5b5060405162005a1e38038062005a1e833981810160405281019062000037919062000129565b336000806101000a81548173ffffffffffffffffffffffffffffffffffffffff021916908373ffffffffffffffffffffffffffffffffffffffff16021790555080600160006101000a81548173ffffffffffffffffffffffffffffffffffffffff021916908373ffffffffffffffffffffffffffffffffffffffff160217905550506200015b565b600080fd5b600073ffffffffffffffffffffffffffffffffffffffff82169050919050565b6000620000f182620000c4565b9050919050565b6200010381620000e4565b81146200010f57600080fd5b50565b6000815190506200012381620000f8565b92915050565b600060208284031215620001425762000141620000bf565b5b6000620001528482850162000112565b91505092915050565b6158b3806200016b6000396000f3fe608060405234801561001057600080fd5b506004361061010b5760003560e01c806363c69f08116100a2578063b687fa8d11610071578063b687fa8d146102b4578063cfaaef56146102e4578063dec9e20914610314578063e4cbac4014610330578063fee7f53b146103605761010b565b806363c69f08146102305780637323a7d314610260578063995192fe1461027c578063b1593582146102985761010b565b80633b34711d116100de5780633b34711d146101985780633f70c2b4146101b4578063506f0531146101e457806357a096a1146102005761010b565b8063021574441461011057806302ee3a521461012c5780631709a8c81461014a5780632b84df7214610168575b600080fd5b61012a600480360381019061012591906143f1565b610390565b005b610134610939565b6040516101419190614679565b60405180910390f35b610152610d28565b60405161015f91906146aa565b60405180910390f35b610182600480360381019061017d91906146c5565b610d4e565b60405161018f919061481d565b60405180910390f35b6101b260048036038101906101ad919061483f565b6110db565b005b6101ce60048036038101906101c991906148f2565b611c09565b6040516101db9190614a23565b60405180910390f35b6101fe60048036038101906101f99190614a71565b611f39565b005b61021a600480360381019061021591906148f2565b612103565b6040516102279190614c4b565b60405180910390f35b61024a60048036038101906102459190614c6d565b612432565b6040516102579190614e59565b60405180910390f35b61027a600480360381019061027591906146c5565b6128b5565b005b61029660048036038101906102919190614e7b565b612b03565b005b6102b260048036038101906102ad9190614c6d565b612deb565b005b6102ce60048036038101906102c991906146c5565b612ebd565b6040516102db919061481d565b60405180910390f35b6102fe60048036038101906102f991906148f2565b61324a565b60405161030b9190614fd7565b60405180910390f35b61032e600480360381019061032991906146c5565b6132f6565b005b61034a60048036038101906103459190614c6d565b613402565b6040516103579190614e59565b60405180910390f35b61037a60048036038101906103759190614c6d565b613885565b6040516103879190614679565b60405180910390f35b600160009054906101000a900473ffffffffffffffffffffffffffffffffffffffff1673ffffffffffffffffffffffffffffffffffffffff163373ffffffffffffffffffffffffffffffffffffffff1614610420576040517f08c379a000000000000000000000000000000000000000000000000000000000815260040161041790615045565b60405180910390fd5b6005600084815260200190815260200160002060060160159054906101000a900460ff16610483576040517f08c379a000000000000000000000000000000000000000000000000000000000815260040161047a906150b1565b60405180910390fd5b6005600084815260200190815260200160002060060160149054906101000a900460ff166104e6576040517f08c379a00000000000000000000000000000000000000000000000000000000081526004016104dd9061511d565b60405180910390fd5b8173ffffffffffffffffffffffffffffffffffffffff166005600085815260200190815260200160002060060160009054906101000a900473ffffffffffffffffffffffffffffffffffffffff1673ffffffffffffffffffffffffffffffffffffffff160361058a576040517f08c379a000000000000000000000000000000000000000000000000000000000815260040161058190615189565b60405180910390fd5b6002600081548092919061059d906151d8565b91905055600381905550600060405180610160016040528060035481526020018581526020016005600087815260200190815260200160002060010180546105e49061524f565b80601f01602080910402602001604051908101604052809291908181526020018280546106109061524f565b801561065d5780601f106106325761010080835404028352916020019161065d565b820191906000526020600020905b81548152906001019060200180831161064057829003601f168201915b505050505081526020016040518060400160405280601781526020017f696e697469616c20736869706d656e742073746174757300000000000000000081525081526020018381526020018473ffffffffffffffffffffffffffffffffffffffff1681526020016000151581526020016001151581526020016000151581526020014281526020014281525090508060096000600354815260200190815260200160002060008201518160000155602082015181600101556040820151816002019080519060200190610731929190614023565b50606082015181600301908051906020019061074e929190614023565b50608082015181600401908051906020019061076b929190614023565b5060a08201518160050160006101000a81548173ffffffffffffffffffffffffffffffffffffffff021916908373ffffffffffffffffffffffffffffffffffffffff16021790555060c08201518160050160146101000a81548160ff02191690831515021790555060e08201518160050160156101000a81548160ff0219169083151502179055506101008201518160050160166101000a81548160ff02191690831515021790555061012082015181600601556101408201518160070155905050600a60008473ffffffffffffffffffffffffffffffffffffffff1673ffffffffffffffffffffffffffffffffffffffff1681526020019081526020016000206003549080600181540180825580915050600190039060005260206000200160009091909190915055600b60006005600087815260200190815260200160002060060160009054906101000a900473ffffffffffffffffffffffffffffffffffffffff1673ffffffffffffffffffffffffffffffffffffffff1673ffffffffffffffffffffffffffffffffffffffff168152602001908152602001600020600354908060018154018082558091505060019003906000526020600020016000909190919091505550505050565b6060600060045467ffffffffffffffff811115610959576109586142c6565b5b60405190808252806020026020018201604052801561099257816020015b61097f6140a9565b8152602001906001900390816109775790505b50905060005b600454811015610d205760006005600083815260200190815260200160002060010180546109c59061524f565b80601f01602080910402602001604051908101604052809291908181526020018280546109f19061524f565b8015610a3e5780601f10610a1357610100808354040283529160200191610a3e565b820191906000526020600020905b815481529060010190602001808311610a2157829003601f168201915b505050505090506000600560008481526020019081526020016000206000015490506000600560008581526020019081526020016000206002018054610a839061524f565b80601f0160208091040260200160405190810160405280929190818152602001828054610aaf9061524f565b8015610afc5780601f10610ad157610100808354040283529160200191610afc565b820191906000526020600020905b815481529060010190602001808311610adf57829003601f168201915b505050505090506000600560008681526020019081526020016000206004015490506000600560008781526020019081526020016000206003018054610b419061524f565b80601f0160208091040260200160405190810160405280929190818152602001828054610b6d9061524f565b8015610bba5780601f10610b8f57610100808354040283529160200191610bba565b820191906000526020600020905b815481529060010190602001808311610b9d57829003601f168201915b505050505090506000600560008881526020019081526020016000206005018054610be49061524f565b80601f0160208091040260200160405190810160405280929190818152602001828054610c109061524f565b8015610c5d5780601f10610c3257610100808354040283529160200191610c5d565b820191906000526020600020905b815481529060010190602001808311610c4057829003601f168201915b5050505050905060006005600089815260200190815260200160002060060160009054906101000a900473ffffffffffffffffffffffffffffffffffffffff1690506040518060e001604052808781526020018881526020018681526020018581526020018481526020018381526020018273ffffffffffffffffffffffffffffffffffffffff16815250898981518110610cfb57610cfa615280565b5b6020026020010181905250505050505050508080610d18906151d8565b915050610998565b508091505090565b600160009054906101000a900473ffffffffffffffffffffffffffffffffffffffff1681565b610d566140fc565b600160009054906101000a900473ffffffffffffffffffffffffffffffffffffffff1673ffffffffffffffffffffffffffffffffffffffff163373ffffffffffffffffffffffffffffffffffffffff1614610de6576040517f08c379a0000000000000000000000000000000000000000000000000000000008152600401610ddd90615045565b60405180910390fd5b610df08383613e4d565b610e2f576040517f08c379a0000000000000000000000000000000000000000000000000000000008152600401610e26906152fb565b60405180910390fd5b60096000848152602001908152602001600020604051806101600160405290816000820154815260200160018201548152602001600282018054610e729061524f565b80601f0160208091040260200160405190810160405280929190818152602001828054610e9e9061524f565b8015610eeb5780601f10610ec057610100808354040283529160200191610eeb565b820191906000526020600020905b815481529060010190602001808311610ece57829003601f168201915b50505050508152602001600382018054610f049061524f565b80601f0160208091040260200160405190810160405280929190818152602001828054610f309061524f565b8015610f7d5780601f10610f5257610100808354040283529160200191610f7d565b820191906000526020600020905b815481529060010190602001808311610f6057829003601f168201915b50505050508152602001600482018054610f969061524f565b80601f0160208091040260200160405190810160405280929190818152602001828054610fc29061524f565b801561100f5780601f10610fe45761010080835404028352916020019161100f565b820191906000526020600020905b815481529060010190602001808311610ff257829003601f168201915b505050505081526020016005820160009054906101000a900473ffffffffffffffffffffffffffffffffffffffff1673ffffffffffffffffffffffffffffffffffffffff1673ffffffffffffffffffffffffffffffffffffffff1681526020016005820160149054906101000a900460ff161515151581526020016005820160159054906101000a900460ff161515151581526020016005820160169054906101000a900460ff1615151515815260200160068201548152602001600782015481525050905092915050565b600160009054906101000a900473ffffffffffffffffffffffffffffffffffffffff1673ffffffffffffffffffffffffffffffffffffffff163373ffffffffffffffffffffffffffffffffffffffff161461116b576040517f08c379a000000000000000000000000000000000000000000000000000000000815260040161116290615045565b60405180910390fd5b6111758583613f38565b6111b4576040517f08c379a00000000000000000000000000000000000000000000000000000000081526004016111ab906152fb565b60405180910390fd5b6009600086815260200190815260200160002060050160159054906101000a900460ff16611217576040517f08c379a000000000000000000000000000000000000000000000000000000000815260040161120e9061538d565b60405180910390fd5b73__Library_______________________________63bed34bba826040518263ffffffff1660e01b815260040161124e9190615443565b602060405180830381865af415801561126b573d6000803e3d6000fd5b505050506040513d601f19601f8201168201806040525081019061128f919061548d565b6112ce576040517f08c379a00000000000000000000000000000000000000000000000000000000081526004016112c59061552c565b60405180910390fd5b6000600960008781526020019081526020016000206040518061016001604052908160008201548152602001600182015481526020016002820180546113139061524f565b80601f016020809104026020016040519081016040528092919081815260200182805461133f9061524f565b801561138c5780601f106113615761010080835404028352916020019161138c565b820191906000526020600020905b81548152906001019060200180831161136f57829003601f168201915b505050505081526020016003820180546113a59061524f565b80601f01602080910402602001604051908101604052809291908181526020018280546113d19061524f565b801561141e5780601f106113f35761010080835404028352916020019161141e565b820191906000526020600020905b81548152906001019060200180831161140157829003601f168201915b505050505081526020016004820180546114379061524f565b80601f01602080910402602001604051908101604052809291908181526020018280546114639061524f565b80156114b05780601f10611485576101008083540402835291602001916114b0565b820191906000526020600020905b81548152906001019060200180831161149357829003601f168201915b505050505081526020016005820160009054906101000a900473ffffffffffffffffffffffffffffffffffffffff1673ffffffffffffffffffffffffffffffffffffffff1673ffffffffffffffffffffffffffffffffffffffff1681526020016005820160149054906101000a900460ff161515151581526020016005820160159054906101000a900460ff161515151581526020016005820160169054906101000a900460ff16151515158152602001600682015481526020016007820154815250509050846009600088815260200190815260200160002060030190805190602001906115a0929190614023565b5060008160200151905073__Library_______________________________63bed34bba876040518263ffffffff1660e01b81526004016115e19190615598565b602060405180830381865af41580156115fe573d6000803e3d6000fd5b505050506040513d601f19601f82011682018060405250810190611622919061548d565b15611685578160a001516005600083815260200190815260200160002060060160006101000a81548173ffffffffffffffffffffffffffffffffffffffff021916908373ffffffffffffffffffffffffffffffffffffffff160217905550611741565b846005600083815260200190815260200160002060060160006101000a81548173ffffffffffffffffffffffffffffffffffffffff021916908373ffffffffffffffffffffffffffffffffffffffff160217905550600b60008673ffffffffffffffffffffffffffffffffffffffff1673ffffffffffffffffffffffffffffffffffffffff1681526020019081526020016000208790806001815401808255809150506001900390600052602060002001600090919091909150555b600060056000838152602001908152602001600020604051806101600160405290816000820154815260200160018201805461177c9061524f565b80601f01602080910402602001604051908101604052809291908181526020018280546117a89061524f565b80156117f55780601f106117ca576101008083540402835291602001916117f5565b820191906000526020600020905b8154815290600101906020018083116117d857829003601f168201915b5050505050815260200160028201805461180e9061524f565b80601f016020809104026020016040519081016040528092919081815260200182805461183a9061524f565b80156118875780601f1061185c57610100808354040283529160200191611887565b820191906000526020600020905b81548152906001019060200180831161186a57829003601f168201915b505050505081526020016003820180546118a09061524f565b80601f01602080910402602001604051908101604052809291908181526020018280546118cc9061524f565b80156119195780601f106118ee57610100808354040283529160200191611919565b820191906000526020600020905b8154815290600101906020018083116118fc57829003601f168201915b505050505081526020016004820154815260200160058201805461193c9061524f565b80601f01602080910402602001604051908101604052809291908181526020018280546119689061524f565b80156119b55780601f1061198a576101008083540402835291602001916119b5565b820191906000526020600020905b81548152906001019060200180831161199857829003601f168201915b505050505081526020016006820160009054906101000a900473ffffffffffffffffffffffffffffffffffffffff1673ffffffffffffffffffffffffffffffffffffffff1673ffffffffffffffffffffffffffffffffffffffff1681526020016006820160149054906101000a900460ff161515151581526020016006820160159054906101000a900460ff1615151515815260200160078201548152602001600882015481525050905060008160200151905060008260400151905060008360600151905060008460800151905060008560a00151905060006040518061010001604052808c73ffffffffffffffffffffffffffffffffffffffff1681526020018981526020018781526020018681526020018581526020018481526020018381526020014281525090506007600089815260200190815260200160002081908060018154018082558091505060019003906000526020600020906008020160009091909190915060008201518160000160006101000a81548173ffffffffffffffffffffffffffffffffffffffff021916908373ffffffffffffffffffffffffffffffffffffffff160217905550602082015181600101556040820151816002019080519060200190611b8b929190614023565b506060820151816003019080519060200190611ba8929190614023565b506080820151816004019080519060200190611bc5929190614023565b5060a0820151816005015560c0820151816006019080519060200190611bec929190614023565b5060e0820151816007015550505050505050505050505050505050565b611c11614172565b6000600560008481526020019081526020016000206040518061016001604052908160008201548152602001600182018054611c4c9061524f565b80601f0160208091040260200160405190810160405280929190818152602001828054611c789061524f565b8015611cc55780601f10611c9a57610100808354040283529160200191611cc5565b820191906000526020600020905b815481529060010190602001808311611ca857829003601f168201915b50505050508152602001600282018054611cde9061524f565b80601f0160208091040260200160405190810160405280929190818152602001828054611d0a9061524f565b8015611d575780601f10611d2c57610100808354040283529160200191611d57565b820191906000526020600020905b815481529060010190602001808311611d3a57829003601f168201915b50505050508152602001600382018054611d709061524f565b80601f0160208091040260200160405190810160405280929190818152602001828054611d9c9061524f565b8015611de95780601f10611dbe57610100808354040283529160200191611de9565b820191906000526020600020905b815481529060010190602001808311611dcc57829003601f168201915b5050505050815260200160048201548152602001600582018054611e0c9061524f565b80601f0160208091040260200160405190810160405280929190818152602001828054611e389061524f565b8015611e855780601f10611e5a57610100808354040283529160200191611e85565b820191906000526020600020905b815481529060010190602001808311611e6857829003601f168201915b505050505081526020016006820160009054906101000a900473ffffffffffffffffffffffffffffffffffffffff1673ffffffffffffffffffffffffffffffffffffffff1673ffffffffffffffffffffffffffffffffffffffff1681526020016006820160149054906101000a900460ff161515151581526020016006820160159054906101000a900460ff1615151515815260200160078201548152602001600882015481525050905080915050919050565b600160009054906101000a900473ffffffffffffffffffffffffffffffffffffffff1673ffffffffffffffffffffffffffffffffffffffff163373ffffffffffffffffffffffffffffffffffffffff1614611fc9576040517f08c379a0000000000000000000000000000000000000000000000000000000008152600401611fc090615045565b60405180910390fd5b6005600084815260200190815260200160002060060160159054906101000a900460ff1661202c576040517f08c379a000000000000000000000000000000000000000000000000000000000815260040161202390615619565b60405180910390fd5b8073ffffffffffffffffffffffffffffffffffffffff166005600085815260200190815260200160002060060160009054906101000a900473ffffffffffffffffffffffffffffffffffffffff1673ffffffffffffffffffffffffffffffffffffffff16146120d0576040517f08c379a00000000000000000000000000000000000000000000000000000000081526004016120c790615685565b60405180910390fd5b816005600085815260200190815260200160002060060160146101000a81548160ff021916908315150217905550505050565b606060076000838152602001908152602001600020805480602002602001604051908101604052809291908181526020016000905b828210156124275783829060005260206000209060080201604051806101000160405290816000820160009054906101000a900473ffffffffffffffffffffffffffffffffffffffff1673ffffffffffffffffffffffffffffffffffffffff1673ffffffffffffffffffffffffffffffffffffffff168152602001600182015481526020016002820180546121cc9061524f565b80601f01602080910402602001604051908101604052809291908181526020018280546121f89061524f565b80156122455780601f1061221a57610100808354040283529160200191612245565b820191906000526020600020905b81548152906001019060200180831161222857829003601f168201915b5050505050815260200160038201805461225e9061524f565b80601f016020809104026020016040519081016040528092919081815260200182805461228a9061524f565b80156122d75780601f106122ac576101008083540402835291602001916122d7565b820191906000526020600020905b8154815290600101906020018083116122ba57829003601f168201915b505050505081526020016004820180546122f09061524f565b80601f016020809104026020016040519081016040528092919081815260200182805461231c9061524f565b80156123695780601f1061233e57610100808354040283529160200191612369565b820191906000526020600020905b81548152906001019060200180831161234c57829003601f168201915b505050505081526020016005820154815260200160068201805461238c9061524f565b80601f01602080910402602001604051908101604052809291908181526020018280546123b89061524f565b80156124055780601f106123da57610100808354040283529160200191612405565b820191906000526020600020905b8154815290600101906020018083116123e857829003601f168201915b5050505050815260200160078201548152505081526020019060010190612138565b505050509050919050565b6060600160009054906101000a900473ffffffffffffffffffffffffffffffffffffffff1673ffffffffffffffffffffffffffffffffffffffff163373ffffffffffffffffffffffffffffffffffffffff16146124c4576040517f08c379a00000000000000000000000000000000000000000000000000000000081526004016124bb90615045565b60405180910390fd5b6000600a60008473ffffffffffffffffffffffffffffffffffffffff1673ffffffffffffffffffffffffffffffffffffffff16815260200190815260200160002080548060200260200160405190810160405280929190818152602001828054801561254f57602002820191906000526020600020905b81548152602001906001019080831161253b575b505050505090506000815167ffffffffffffffff811115612573576125726142c6565b5b6040519080825280602002602001820160405280156125ac57816020015b6125996140fc565b8152602001906001900390816125915790505b50905060005b82518110156128aa57600960008483815181106125d2576125d1615280565b5b602002602001015181526020019081526020016000206040518061016001604052908160008201548152602001600182015481526020016002820180546126189061524f565b80601f01602080910402602001604051908101604052809291908181526020018280546126449061524f565b80156126915780601f1061266657610100808354040283529160200191612691565b820191906000526020600020905b81548152906001019060200180831161267457829003601f168201915b505050505081526020016003820180546126aa9061524f565b80601f01602080910402602001604051908101604052809291908181526020018280546126d69061524f565b80156127235780601f106126f857610100808354040283529160200191612723565b820191906000526020600020905b81548152906001019060200180831161270657829003601f168201915b5050505050815260200160048201805461273c9061524f565b80601f01602080910402602001604051908101604052809291908181526020018280546127689061524f565b80156127b55780601f1061278a576101008083540402835291602001916127b5565b820191906000526020600020905b81548152906001019060200180831161279857829003601f168201915b505050505081526020016005820160009054906101000a900473ffffffffffffffffffffffffffffffffffffffff1673ffffffffffffffffffffffffffffffffffffffff1673ffffffffffffffffffffffffffffffffffffffff1681526020016005820160149054906101000a900460ff161515151581526020016005820160159054906101000a900460ff161515151581526020016005820160169054906101000a900460ff161515151581526020016006820154815260200160078201548152505082828151811061288c5761288b615280565b5b602002602001018190525080806128a2906151d8565b9150506125b2565b508092505050919050565b600160009054906101000a900473ffffffffffffffffffffffffffffffffffffffff1673ffffffffffffffffffffffffffffffffffffffff163373ffffffffffffffffffffffffffffffffffffffff1614612945576040517f08c379a000000000000000000000000000000000000000000000000000000000815260040161293c90615045565b60405180910390fd5b61294f8282613e4d565b80612960575061295f8282613f38565b5b61299f576040517f08c379a0000000000000000000000000000000000000000000000000000000008152600401612996906152fb565b60405180910390fd5b6009600083815260200190815260200160002060050160159054906101000a900460ff1615612a03576040517f08c379a00000000000000000000000000000000000000000000000000000000081526004016129fa906156f1565b60405180910390fd5b73__Library_______________________________63bed34bba600960008581526020019081526020016000206003016040518263ffffffff1660e01b8152600401612a4f91906157f2565b602060405180830381865af4158015612a6c573d6000803e3d6000fd5b505050506040513d601f19601f82011682018060405250810190612a90919061548d565b15612ad0576040517f08c379a0000000000000000000000000000000000000000000000000000000008152600401612ac7906156f1565b60405180910390fd5b60006009600084815260200190815260200160002060050160156101000a81548160ff0219169083151502179055505050565b600160009054906101000a900473ffffffffffffffffffffffffffffffffffffffff1673ffffffffffffffffffffffffffffffffffffffff163373ffffffffffffffffffffffffffffffffffffffff1614612b93576040517f08c379a0000000000000000000000000000000000000000000000000000000008152600401612b8a90615045565b60405180910390fd5b60005b82811015612de157600060405180610160016040528060045481526020018a81526020018981526020018881526020018781526020018681526020018473ffffffffffffffffffffffffffffffffffffffff16815260200160011515815260200160011515815260200142815260200142815250905080600560006004548152602001908152602001600020600082015181600001556020820151816001019080519060200190612c48929190614023565b506040820151816002019080519060200190612c65929190614023565b506060820151816003019080519060200190612c82929190614023565b506080820151816004015560a0820151816005019080519060200190612ca9929190614023565b5060c08201518160060160006101000a81548173ffffffffffffffffffffffffffffffffffffffff021916908373ffffffffffffffffffffffffffffffffffffffff16021790555060e08201518160060160146101000a81548160ff0219169083151502179055506101008201518160060160156101000a81548160ff02191690831515021790555061012082015181600701556101408201518160080155905050600660008473ffffffffffffffffffffffffffffffffffffffff1673ffffffffffffffffffffffffffffffffffffffff1681526020019081526020016000206004549080600181540180825580915050600190039060005260206000200160009091909190915055600160046000828254612dc69190615827565b92505081905550508080612dd9906151d8565b915050612b96565b5050505050505050565b60008054906101000a900473ffffffffffffffffffffffffffffffffffffffff1673ffffffffffffffffffffffffffffffffffffffff163373ffffffffffffffffffffffffffffffffffffffff1614612e79576040517f08c379a0000000000000000000000000000000000000000000000000000000008152600401612e7090615045565b60405180910390fd5b80600160006101000a81548173ffffffffffffffffffffffffffffffffffffffff021916908373ffffffffffffffffffffffffffffffffffffffff16021790555050565b612ec56140fc565b600160009054906101000a900473ffffffffffffffffffffffffffffffffffffffff1673ffffffffffffffffffffffffffffffffffffffff163373ffffffffffffffffffffffffffffffffffffffff1614612f55576040517f08c379a0000000000000000000000000000000000000000000000000000000008152600401612f4c90615045565b60405180910390fd5b612f5f8383613f38565b612f9e576040517f08c379a0000000000000000000000000000000000000000000000000000000008152600401612f95906152fb565b60405180910390fd5b60096000848152602001908152602001600020604051806101600160405290816000820154815260200160018201548152602001600282018054612fe19061524f565b80601f016020809104026020016040519081016040528092919081815260200182805461300d9061524f565b801561305a5780601f1061302f5761010080835404028352916020019161305a565b820191906000526020600020905b81548152906001019060200180831161303d57829003601f168201915b505050505081526020016003820180546130739061524f565b80601f016020809104026020016040519081016040528092919081815260200182805461309f9061524f565b80156130ec5780601f106130c1576101008083540402835291602001916130ec565b820191906000526020600020905b8154815290600101906020018083116130cf57829003601f168201915b505050505081526020016004820180546131059061524f565b80601f01602080910402602001604051908101604052809291908181526020018280546131319061524f565b801561317e5780601f106131535761010080835404028352916020019161317e565b820191906000526020600020905b81548152906001019060200180831161316157829003601f168201915b505050505081526020016005820160009054906101000a900473ffffffffffffffffffffffffffffffffffffffff1673ffffffffffffffffffffffffffffffffffffffff1673ffffffffffffffffffffffffffffffffffffffff1681526020016005820160149054906101000a900460ff161515151581526020016005820160159054906101000a900460ff161515151581526020016005820160169054906101000a900460ff1615151515815260200160068201548152602001600782015481525050905092915050565b6008818154811061325a57600080fd5b9060005260206000200160009150905080546132759061524f565b80601f01602080910402602001604051908101604052809291908181526020018280546132a19061524f565b80156132ee5780601f106132c3576101008083540402835291602001916132ee565b820191906000526020600020905b8154815290600101906020018083116132d157829003601f168201915b505050505081565b600160009054906101000a900473ffffffffffffffffffffffffffffffffffffffff1673ffffffffffffffffffffffffffffffffffffffff163373ffffffffffffffffffffffffffffffffffffffff1614613386576040517f08c379a000000000000000000000000000000000000000000000000000000000815260040161337d90615045565b60405180910390fd5b6133908282613e4d565b6133cf576040517f08c379a00000000000000000000000000000000000000000000000000000000081526004016133c6906152fb565b60405180910390fd5b60016009600084815260200190815260200160002060050160146101000a81548160ff0219169083151502179055505050565b6060600160009054906101000a900473ffffffffffffffffffffffffffffffffffffffff1673ffffffffffffffffffffffffffffffffffffffff163373ffffffffffffffffffffffffffffffffffffffff1614613494576040517f08c379a000000000000000000000000000000000000000000000000000000000815260040161348b90615045565b60405180910390fd5b6000600b60008473ffffffffffffffffffffffffffffffffffffffff1673ffffffffffffffffffffffffffffffffffffffff16815260200190815260200160002080548060200260200160405190810160405280929190818152602001828054801561351f57602002820191906000526020600020905b81548152602001906001019080831161350b575b505050505090506000815167ffffffffffffffff811115613543576135426142c6565b5b60405190808252806020026020018201604052801561357c57816020015b6135696140fc565b8152602001906001900390816135615790505b50905060005b825181101561387a57600960008483815181106135a2576135a1615280565b5b602002602001015181526020019081526020016000206040518061016001604052908160008201548152602001600182015481526020016002820180546135e89061524f565b80601f01602080910402602001604051908101604052809291908181526020018280546136149061524f565b80156136615780601f1061363657610100808354040283529160200191613661565b820191906000526020600020905b81548152906001019060200180831161364457829003601f168201915b5050505050815260200160038201805461367a9061524f565b80601f01602080910402602001604051908101604052809291908181526020018280546136a69061524f565b80156136f35780601f106136c8576101008083540402835291602001916136f3565b820191906000526020600020905b8154815290600101906020018083116136d657829003601f168201915b5050505050815260200160048201805461370c9061524f565b80601f01602080910402602001604051908101604052809291908181526020018280546137389061524f565b80156137855780601f1061375a57610100808354040283529160200191613785565b820191906000526020600020905b81548152906001019060200180831161376857829003601f168201915b505050505081526020016005820160009054906101000a900473ffffffffffffffffffffffffffffffffffffffff1673ffffffffffffffffffffffffffffffffffffffff1673ffffffffffffffffffffffffffffffffffffffff1681526020016005820160149054906101000a900460ff161515151581526020016005820160159054906101000a900460ff161515151581526020016005820160169054906101000a900460ff161515151581526020016006820154815260200160078201548152505082828151811061385c5761385b615280565b5b60200260200101819052508080613872906151d8565b915050613582565b508092505050919050565b6060600160009054906101000a900473ffffffffffffffffffffffffffffffffffffffff1673ffffffffffffffffffffffffffffffffffffffff163373ffffffffffffffffffffffffffffffffffffffff1614613917576040517f08c379a000000000000000000000000000000000000000000000000000000000815260040161390e90615045565b60405180910390fd5b6000600660008473ffffffffffffffffffffffffffffffffffffffff1673ffffffffffffffffffffffffffffffffffffffff1681526020019081526020016000208054806020026020016040519081016040528092919081815260200182805480156139a257602002820191906000526020600020905b81548152602001906001019080831161398e575b505050505090506000815167ffffffffffffffff8111156139c6576139c56142c6565b5b6040519080825280602002602001820160405280156139ff57816020015b6139ec6140a9565b8152602001906001900390816139e45790505b50905060005b8251811015613e4257600060056000858481518110613a2757613a26615280565b5b602002602001015181526020019081526020016000206001018054613a4b9061524f565b80601f0160208091040260200160405190810160405280929190818152602001828054613a779061524f565b8015613ac45780601f10613a9957610100808354040283529160200191613ac4565b820191906000526020600020905b815481529060010190602001808311613aa757829003601f168201915b50505050509050600060056000868581518110613ae457613ae3615280565b5b60200260200101518152602001908152602001600020600001549050600060056000878681518110613b1957613b18615280565b5b602002602001015181526020019081526020016000206002018054613b3d9061524f565b80601f0160208091040260200160405190810160405280929190818152602001828054613b699061524f565b8015613bb65780601f10613b8b57610100808354040283529160200191613bb6565b820191906000526020600020905b815481529060010190602001808311613b9957829003601f168201915b50505050509050600060056000888781518110613bd657613bd5615280565b5b60200260200101518152602001908152602001600020600401549050600060056000898881518110613c0b57613c0a615280565b5b602002602001015181526020019081526020016000206003018054613c2f9061524f565b80601f0160208091040260200160405190810160405280929190818152602001828054613c5b9061524f565b8015613ca85780601f10613c7d57610100808354040283529160200191613ca8565b820191906000526020600020905b815481529060010190602001808311613c8b57829003601f168201915b505050505090506000600560008a8981518110613cc857613cc7615280565b5b602002602001015181526020019081526020016000206005018054613cec9061524f565b80601f0160208091040260200160405190810160405280929190818152602001828054613d189061524f565b8015613d655780601f10613d3a57610100808354040283529160200191613d65565b820191906000526020600020905b815481529060010190602001808311613d4857829003601f168201915b505050505090506000600560008b8a81518110613d8557613d84615280565b5b6020026020010151815260200190815260200160002060060160009054906101000a900473ffffffffffffffffffffffffffffffffffffffff1690506040518060e001604052808781526020018881526020018681526020018581526020018481526020018381526020018273ffffffffffffffffffffffffffffffffffffffff16815250898981518110613e1d57613e1c615280565b5b6020026020010181905250505050505050508080613e3a906151d8565b915050613a05565b508092505050919050565b600080600a60008473ffffffffffffffffffffffffffffffffffffffff1673ffffffffffffffffffffffffffffffffffffffff168152602001908152602001600020805480602002602001604051908101604052809291908181526020018280548015613ed957602002820191906000526020600020905b815481526020019060010190808311613ec5575b5050505050905060005b8151811015613f2b5784828281518110613f0057613eff615280565b5b602002602001015103613f1857600192505050613f32565b8080613f23906151d8565b915050613ee3565b5060009150505b92915050565b600080600b60008473ffffffffffffffffffffffffffffffffffffffff1673ffffffffffffffffffffffffffffffffffffffff168152602001908152602001600020805480602002602001604051908101604052809291908181526020018280548015613fc457602002820191906000526020600020905b815481526020019060010190808311613fb0575b5050505050905060005b81518110156140165784828281518110613feb57613fea615280565b5b6020026020010151036140035760019250505061401d565b808061400e906151d8565b915050613fce565b5060009150505b92915050565b82805461402f9061524f565b90600052602060002090601f0160209004810192826140515760008555614098565b82601f1061406a57805160ff1916838001178555614098565b82800160010185558215614098579182015b8281111561409757825182559160200191906001019061407c565b5b5090506140a591906141e6565b5090565b6040518060e00160405280600081526020016060815260200160608152602001600081526020016060815260200160608152602001600073ffffffffffffffffffffffffffffffffffffffff1681525090565b6040518061016001604052806000815260200160008152602001606081526020016060815260200160608152602001600073ffffffffffffffffffffffffffffffffffffffff16815260200160001515815260200160001515815260200160001515815260200160008152602001600081525090565b604051806101600160405280600081526020016060815260200160608152602001606081526020016000815260200160608152602001600073ffffffffffffffffffffffffffffffffffffffff16815260200160001515815260200160001515815260200160008152602001600081525090565b5b808211156141ff5760008160009055506001016141e7565b5090565b6000604051905090565b600080fd5b600080fd5b6000819050919050565b61422a81614217565b811461423557600080fd5b50565b60008135905061424781614221565b92915050565b600073ffffffffffffffffffffffffffffffffffffffff82169050919050565b60006142788261424d565b9050919050565b6142888161426d565b811461429357600080fd5b50565b6000813590506142a58161427f565b92915050565b600080fd5b600080fd5b6000601f19601f8301169050919050565b7f4e487b7100000000000000000000000000000000000000000000000000000000600052604160045260246000fd5b6142fe826142b5565b810181811067ffffffffffffffff8211171561431d5761431c6142c6565b5b80604052505050565b6000614330614203565b905061433c82826142f5565b919050565b600067ffffffffffffffff82111561435c5761435b6142c6565b5b614365826142b5565b9050602081019050919050565b82818337600083830152505050565b600061439461438f84614341565b614326565b9050828152602081018484840111156143b0576143af6142b0565b5b6143bb848285614372565b509392505050565b600082601f8301126143d8576143d76142ab565b5b81356143e8848260208601614381565b91505092915050565b60008060006060848603121561440a5761440961420d565b5b600061441886828701614238565b935050602061442986828701614296565b925050604084013567ffffffffffffffff81111561444a57614449614212565b5b614456868287016143c3565b9150509250925092565b600081519050919050565b600082825260208201905092915050565b6000819050602082019050919050565b61449581614217565b82525050565b600081519050919050565b600082825260208201905092915050565b60005b838110156144d55780820151818401526020810190506144ba565b838111156144e4576000848401525b50505050565b60006144f58261449b565b6144ff81856144a6565b935061450f8185602086016144b7565b614518816142b5565b840191505092915050565b61452c8161426d565b82525050565b600060e08301600083015161454a600086018261448c565b506020830151848203602086015261456282826144ea565b9150506040830151848203604086015261457c82826144ea565b9150506060830151614591606086018261448c565b50608083015184820360808601526145a982826144ea565b91505060a083015184820360a08601526145c382826144ea565b91505060c08301516145d860c0860182614523565b508091505092915050565b60006145ef8383614532565b905092915050565b6000602082019050919050565b600061460f82614460565b614619818561446b565b93508360208202850161462b8561447c565b8060005b85811015614667578484038952815161464885826145e3565b9450614653836145f7565b925060208a0199505060018101905061462f565b50829750879550505050505092915050565b600060208201905081810360008301526146938184614604565b905092915050565b6146a48161426d565b82525050565b60006020820190506146bf600083018461469b565b92915050565b600080604083850312156146dc576146db61420d565b5b60006146ea85828601614238565b92505060206146fb85828601614296565b9150509250929050565b60008115159050919050565b61471a81614705565b82525050565b600061016083016000830151614739600086018261448c565b50602083015161474c602086018261448c565b506040830151848203604086015261476482826144ea565b9150506060830151848203606086015261477e82826144ea565b9150506080830151848203608086015261479882826144ea565b91505060a08301516147ad60a0860182614523565b5060c08301516147c060c0860182614711565b5060e08301516147d360e0860182614711565b506101008301516147e8610100860182614711565b506101208301516147fd61012086018261448c565b5061014083015161481261014086018261448c565b508091505092915050565b600060208201905081810360008301526148378184614720565b905092915050565b600080600080600060a0868803121561485b5761485a61420d565b5b600061486988828901614238565b955050602086013567ffffffffffffffff81111561488a57614889614212565b5b614896888289016143c3565b94505060406148a788828901614296565b93505060606148b888828901614296565b925050608086013567ffffffffffffffff8111156148d9576148d8614212565b5b6148e5888289016143c3565b9150509295509295909350565b6000602082840312156149085761490761420d565b5b600061491684828501614238565b91505092915050565b600061016083016000830151614938600086018261448c565b506020830151848203602086015261495082826144ea565b9150506040830151848203604086015261496a82826144ea565b9150506060830151848203606086015261498482826144ea565b9150506080830151614999608086018261448c565b5060a083015184820360a08601526149b182826144ea565b91505060c08301516149c660c0860182614523565b5060e08301516149d960e0860182614711565b506101008301516149ee610100860182614711565b50610120830151614a0361012086018261448c565b50610140830151614a1861014086018261448c565b508091505092915050565b60006020820190508181036000830152614a3d818461491f565b905092915050565b614a4e81614705565b8114614a5957600080fd5b50565b600081359050614a6b81614a45565b92915050565b600080600060608486031215614a8a57614a8961420d565b5b6000614a9886828701614238565b9350506020614aa986828701614a5c565b9250506040614aba86828701614296565b9150509250925092565b600081519050919050565b600082825260208201905092915050565b6000819050602082019050919050565b600061010083016000830151614b096000860182614523565b506020830151614b1c602086018261448c565b5060408301518482036040860152614b3482826144ea565b91505060608301518482036060860152614b4e82826144ea565b91505060808301518482036080860152614b6882826144ea565b91505060a0830151614b7d60a086018261448c565b5060c083015184820360c0860152614b9582826144ea565b91505060e0830151614baa60e086018261448c565b508091505092915050565b6000614bc18383614af0565b905092915050565b6000602082019050919050565b6000614be182614ac4565b614beb8185614acf565b935083602082028501614bfd85614ae0565b8060005b85811015614c395784840389528151614c1a8582614bb5565b9450614c2583614bc9565b925060208a01995050600181019050614c01565b50829750879550505050505092915050565b60006020820190508181036000830152614c658184614bd6565b905092915050565b600060208284031215614c8357614c8261420d565b5b6000614c9184828501614296565b91505092915050565b600081519050919050565b600082825260208201905092915050565b6000819050602082019050919050565b600061016083016000830151614cdf600086018261448c565b506020830151614cf2602086018261448c565b5060408301518482036040860152614d0a82826144ea565b91505060608301518482036060860152614d2482826144ea565b91505060808301518482036080860152614d3e82826144ea565b91505060a0830151614d5360a0860182614523565b5060c0830151614d6660c0860182614711565b5060e0830151614d7960e0860182614711565b50610100830151614d8e610100860182614711565b50610120830151614da361012086018261448c565b50610140830151614db861014086018261448c565b508091505092915050565b6000614dcf8383614cc6565b905092915050565b6000602082019050919050565b6000614def82614c9a565b614df98185614ca5565b935083602082028501614e0b85614cb6565b8060005b85811015614e475784840389528151614e288582614dc3565b9450614e3383614dd7565b925060208a01995050600181019050614e0f565b50829750879550505050505092915050565b60006020820190508181036000830152614e738184614de4565b905092915050565b600080600080600080600060e0888a031215614e9a57614e9961420d565b5b600088013567ffffffffffffffff811115614eb857614eb7614212565b5b614ec48a828b016143c3565b975050602088013567ffffffffffffffff811115614ee557614ee4614212565b5b614ef18a828b016143c3565b965050604088013567ffffffffffffffff811115614f1257614f11614212565b5b614f1e8a828b016143c3565b9550506060614f2f8a828b01614238565b945050608088013567ffffffffffffffff811115614f5057614f4f614212565b5b614f5c8a828b016143c3565b93505060a0614f6d8a828b01614238565b92505060c0614f7e8a828b01614296565b91505092959891949750929550565b600082825260208201905092915050565b6000614fa98261449b565b614fb38185614f8d565b9350614fc38185602086016144b7565b614fcc816142b5565b840191505092915050565b60006020820190508181036000830152614ff18184614f9e565b905092915050565b7f556e617574686f72697a65642061636365737321000000000000000000000000600082015250565b600061502f601483614f8d565b915061503a82614ff9565b602082019050919050565b6000602082019050818103600083015261505e81615022565b9050919050565b7f4974656d20646f6573206e6f7420657869737421000000000000000000000000600082015250565b600061509b601483614f8d565b91506150a682615065565b602082019050919050565b600060208201905081810360008301526150ca8161508e565b9050919050565b7f4974656d206973206e6f7420617661696c61626c6520666f722073656c6c2e00600082015250565b6000615107601f83614f8d565b9150615112826150d1565b602082019050919050565b60006020820190508181036000830152615136816150fa565b9050919050565b7f596f752043616e206e6f742062757920796f7572206f776e204974656d210000600082015250565b6000615173601e83614f8d565b915061517e8261513d565b602082019050919050565b600060208201905081810360008301526151a281615166565b9050919050565b7f4e487b7100000000000000000000000000000000000000000000000000000000600052601160045260246000fd5b60006151e382614217565b91507fffffffffffffffffffffffffffffffffffffffffffffffffffffffffffffffff8203615215576152146151a9565b5b600182019050919050565b7f4e487b7100000000000000000000000000000000000000000000000000000000600052602260045260246000fd5b6000600282049050600182168061526757607f821691505b60208210810361527a57615279615220565b5b50919050565b7f4e487b7100000000000000000000000000000000000000000000000000000000600052603260045260246000fd5b7f507572636861736520496420646f6573206e6f74206578697374000000000000600082015250565b60006152e5601a83614f8d565b91506152f0826152af565b602082019050919050565b60006020820190508181036000830152615314816152d8565b9050919050565b7f4f726465722069732065697468657220696e416374697665206f722063616e6360008201527f656c6c6564000000000000000000000000000000000000000000000000000000602082015250565b6000615377602583614f8d565b91506153828261531b565b604082019050919050565b600060208201905081810360008301526153a68161536a565b9050919050565b600082825260208201905092915050565b60006153c98261449b565b6153d381856153ad565b93506153e38185602086016144b7565b6153ec816142b5565b840191505092915050565b7f44454c4956455259000000000000000000000000000000000000000000000000600082015250565b600061542d6008836153ad565b9150615438826153f7565b602082019050919050565b6000604082019050818103600083015261545d81846153be565b9050818103602083015261547081615420565b905092915050565b60008151905061548781614a45565b92915050565b6000602082840312156154a3576154a261420d565b5b60006154b184828501615478565b91505092915050565b7f55736572206973206e6f74207265676973746572656420617320612064656c6960008201527f76657279206167656e742e000000000000000000000000000000000000000000602082015250565b6000615516602b83614f8d565b9150615521826154ba565b604082019050919050565b6000602082019050818103600083015261554581615509565b9050919050565b7f44454c4956455245440000000000000000000000000000000000000000000000600082015250565b60006155826009836153ad565b915061558d8261554c565b602082019050919050565b600060408201905081810360008301526155b281846153be565b905081810360208301526155c581615575565b905092915050565b7f50726f6475637420646f6573206e6f7420657869737421000000000000000000600082015250565b6000615603601783614f8d565b915061560e826155cd565b602082019050919050565b60006020820190508181036000830152615632816155f6565b9050919050565b7f4163636573732064656e69656421000000000000000000000000000000000000600082015250565b600061566f600e83614f8d565b915061567a82615639565b602082019050919050565b6000602082019050818103600083015261569e81615662565b9050919050565b7f596f7520416c72656164792043616e63656c65642054686973206f7264657221600082015250565b60006156db602083614f8d565b91506156e6826156a5565b602082019050919050565b6000602082019050818103600083015261570a816156ce565b9050919050565b60008190508160005260206000209050919050565b600081546157338161524f565b61573d81866153ad565b94506001821660008114615758576001811461576a5761579d565b60ff198316865260208601935061579d565b61577385615711565b60005b8381101561579557815481890152600182019150602081019050615776565b808801955050505b50505092915050565b7f696e697469616c20736869706d656e7420737461747573000000000000000000600082015250565b60006157dc6017836153ad565b91506157e7826157a6565b602082019050919050565b6000604082019050818103600083015261580c8184615726565b9050818103602083015261581f816157cf565b905092915050565b600061583282614217565b915061583d83614217565b9250827fffffffffffffffffffffffffffffffffffffffffffffffffffffffffffffffff03821115615872576158716151a9565b5b82820190509291505056fea2646970667358221220104e23136e5f1ce7796b154eebbd4aa5ff9f7dc38762177f70448b7725a5742064736f6c634300080e0033",
  "immutableReferences": {},
  "source": "// SPDX-License-Identifier: MIT\r\npragma solidity ^0.8.0;\r\n\r\nimport \"./Library.sol\";\r\n\r\ncontract ProductContract {\r\n    /*\r\n        The owner of the contract is the deployer\r\n    */\r\n    address _owner;\r\n    address public supplyChainAddress;\r\n    // address payable public owner;\r\n\r\n    /*\r\n        Set owner of the contract to the deployer\r\n    */\r\n    constructor(address add) {\r\n        _owner = msg.sender;\r\n        supplyChainAddress = add;\r\n    }\r\n\r\n    function setSupplyChainAddress(address add) external {\r\n        require(msg.sender == _owner, \"Unauthorized access!\");\r\n        supplyChainAddress = add;\r\n    }\r\n\r\n    uint id;\r\n    uint purchaseId;\r\n    uint productId;\r\n\r\n    /*\r\n        Item fields\r\n    */\r\n    struct Product {\r\n        uint productId;\r\n        string mongoId;\r\n        string productName;\r\n        string category;\r\n        uint price;\r\n        string description;\r\n        address owner;\r\n        bool isAvailable;\r\n        bool isCreated;\r\n        uint createdAt;\r\n        uint updatedAt;\r\n    }\r\n    struct ProductView {\r\n        uint productId;\r\n        string mongoId;\r\n        string name;\r\n        uint price;\r\n        string category;\r\n        string description;\r\n        address owner;\r\n    }\r\n\r\n    struct History{\r\n        address prevOwner;\r\n        uint productId;\r\n        string mongoId;\r\n        string productName;\r\n        string category;\r\n        uint price;\r\n        string description;\r\n        uint transferDate;\r\n    }\r\n\r\n    struct OrderShipment {\r\n        uint purchaseId;\r\n        uint productId;\r\n        string mongoId;\r\n        string shipmentStatus;\r\n        string deliveryAddress;\r\n        address orderedBy;\r\n        bool isConfirmed;\r\n        bool isActive;\r\n        bool isCanceled;\r\n        uint createdAt;\r\n        uint updatedAt;\r\n    }\r\n\r\n    struct ShipmentHistory{\r\n        string location;\r\n        string description;\r\n        uint arrivedAt;\r\n        uint sentAt;\r\n    }\r\n\r\n    mapping (uint => Product) products;\r\n    mapping (address => uint[]) ownerProducts;\r\n    //Product Id mapped to an array of productHistories\r\n    mapping (uint => History[]) productHistories;\r\n    string[] public allProducts;\r\n    mapping (uint => OrderShipment) orderShipments;\r\n    mapping (address => uint[]) userPurchaseIds;\r\n    mapping (address => uint[]) sellerPurchaseIds;\r\n    mapping (uint => ShipmentHistory[]) shipmentHistoryHistories;\r\n\r\n    function addProduct(\r\n        string memory _mongoId,\r\n        string memory _productName,\r\n        string memory _category,\r\n        uint _price,\r\n        string memory _description,\r\n        uint _instanceNumber,\r\n        address productOwner\r\n    ) external {\r\n        require(msg.sender == supplyChainAddress, \"Unauthorized access!\");\r\n        // require(users[msg.sender].isCreated, \"You are not Registered as Seller\"); //check user role\r\n\r\n        for (uint i = 0; i < _instanceNumber; i++){\r\n            Product memory product = Product(\r\n                productId,\r\n                _mongoId,\r\n                _productName,\r\n                _category,\r\n                _price,\r\n                _description,\r\n                productOwner,\r\n                true,\r\n                true,\r\n                block.timestamp,\r\n                block.timestamp\r\n            );\r\n\r\n            products[productId] = product;\r\n            ownerProducts[productOwner].push(productId);\r\n            productId += 1;\r\n        }\r\n    }\r\n\r\n    function getProductById(uint _productId) external view returns (Product memory){\r\n        Product memory res = products[_productId];\r\n        return res;\r\n    }\r\n\r\n    function getAllProducts() external view returns (ProductView[] memory){\r\n        ProductView[] memory res = new ProductView[](productId);\r\n        for(uint i = 0; i < productId; i++) {\r\n            string memory mongoId = products[i].mongoId;\r\n            uint product_id = products[i].productId;\r\n            string memory name = products[i].productName;\r\n            uint price = products[i].price;\r\n            string memory category = products[i].category;\r\n            string memory description = products[i].description;\r\n            address productOwner = products[i].owner;\r\n            res[i] = ProductView(product_id, mongoId, name, price, category, description, productOwner);\r\n        }\r\n        return res;\r\n    }\r\n\r\n    function getUserProducts(address _productOwner) external view returns (ProductView[] memory){\r\n        require(msg.sender == supplyChainAddress, \"Unauthorized access!\");\r\n\r\n        uint[] memory op = ownerProducts[_productOwner];\r\n        ProductView[] memory res = new ProductView[](op.length);\r\n        for(uint i = 0; i < op.length; i++) {\r\n            string memory mongoId = products[op[i]].mongoId;\r\n            uint product_id = products[op[i]].productId;\r\n            string memory name = products[op[i]].productName;\r\n            uint price = products[op[i]].price;\r\n            string memory category = products[op[i]].category;\r\n            string memory description = products[op[i]].description;\r\n            address productOwner = products[op[i]].owner;\r\n            res[i] = ProductView(product_id, mongoId, name, price, category, description, productOwner);\r\n        }\r\n        return res;\r\n    }\r\n\r\n    function getProductHistory(uint _productId) external view returns(History[] memory) {\r\n        return productHistories[_productId];\r\n    }\r\n\r\n    function changeProductAvailability(uint _productId, bool _available, address productOwner) external {\r\n        require(msg.sender == supplyChainAddress, \"Unauthorized access!\");\r\n        require(products[_productId].isCreated, \"Product does not exist!\");\r\n        require(products[_productId].owner == productOwner, \"Access denied!\");\r\n        products[_productId].isAvailable = _available;\r\n    }\r\n\r\n    function buyProduct(uint _productId, address buyerAddress, string memory buyerDeliveryAddress) external { //payable\r\n        require(msg.sender == supplyChainAddress, \"Unauthorized access!\");\r\n        require(products[_productId].isCreated, \"Item does not exist!\");\r\n        require(products[_productId].isAvailable, \"Item is not available for sell.\");\r\n        require(products[_productId].owner != buyerAddress, \"You Can not buy your own Item!\");\r\n        // products[_productId].seller.transfer(msg.value);\r\n\r\n        purchaseId = id++;\r\n\r\n        OrderShipment memory order = OrderShipment(\r\n            purchaseId,\r\n            _productId,\r\n            products[_productId].mongoId,\r\n            \"initial shipment status\",\r\n            buyerDeliveryAddress,\r\n            buyerAddress,\r\n            false,\r\n            true,\r\n            false,\r\n            block.timestamp,\r\n            block.timestamp\r\n        );\r\n        orderShipments[purchaseId] = order;\r\n\r\n        userPurchaseIds[buyerAddress].push(purchaseId);\r\n        sellerPurchaseIds[products[_productId].owner].push(purchaseId);\r\n    }\r\n\r\n    function getUserOrders(address userAddress) external view returns(OrderShipment[] memory) {\r\n        require(msg.sender == supplyChainAddress, \"Unauthorized access!\");\r\n\r\n        uint[] memory purchaseIds = userPurchaseIds[userAddress];\r\n        OrderShipment[] memory orders = new OrderShipment[](purchaseIds.length);\r\n        for(uint i = 0; i < purchaseIds.length; i++){\r\n            orders[i] = orderShipments[purchaseIds[i]];\r\n        }\r\n        return orders;\r\n    }\r\n\r\n    function getUserPurchaseId(uint _purchaseId, address userAddress) private view returns (bool) {\r\n        uint[] memory purchaseIds = userPurchaseIds[userAddress];\r\n        for(uint i = 0; i < purchaseIds.length; i++){\r\n            if (purchaseIds[i] == _purchaseId){\r\n                return true;\r\n            }\r\n        }\r\n        return false;\r\n    }\r\n\r\n    function getUserOrderDetail (uint _purchaseId, address userAddress) external view returns (OrderShipment memory) {\r\n        require(msg.sender == supplyChainAddress, \"Unauthorized access!\");\r\n\r\n        require(getUserPurchaseId(_purchaseId, userAddress), \"Purchase Id does not exist\");\r\n        return orderShipments[_purchaseId];\r\n    }\r\n\r\n    function getSellerOrders(address sellerAddress) external view returns (OrderShipment[] memory) {\r\n        require(msg.sender == supplyChainAddress, \"Unauthorized access!\");\r\n\r\n        uint[] memory purchaseIds = sellerPurchaseIds[sellerAddress];\r\n        OrderShipment[] memory orders = new OrderShipment[](purchaseIds.length);\r\n        for(uint i = 0; i < purchaseIds.length; i++){\r\n            orders[i] = orderShipments[purchaseIds[i]];\r\n        }\r\n        return orders;\r\n    }\r\n\r\n    function getSellerPurchaseId(uint _purchaseId, address sellerAddress) private view returns (bool) {\r\n        uint[] memory purchaseIds = sellerPurchaseIds[sellerAddress];\r\n        for(uint i = 0; i < purchaseIds.length; i++){\r\n            if (purchaseIds[i] == _purchaseId){\r\n                return true;\r\n            }\r\n        }\r\n        return false;\r\n    }\r\n\r\n    function getSellerOrderDetail (uint _purchaseId, address sellerAddress) external view returns (OrderShipment memory) {\r\n        require(msg.sender == supplyChainAddress, \"Unauthorized access!\");\r\n        require(getSellerPurchaseId(_purchaseId, sellerAddress), \"Purchase Id does not exist\");\r\n        return orderShipments[_purchaseId];\r\n    }\r\n\r\n    function updateShipmentStatus(\r\n        uint _purchaseId,\r\n        string memory _newShipmentStatus,\r\n        address deliveryUserAddress,\r\n        address sellerAddress,\r\n        string memory deliveryUserRole\r\n    ) external {\r\n        require(msg.sender == supplyChainAddress, \"Unauthorized access!\");\r\n        require(getSellerPurchaseId(_purchaseId, sellerAddress), \"Purchase Id does not exist\");\r\n        require(orderShipments[_purchaseId].isActive, \"Order is either inActive or cancelled\");\r\n        require(Library.compareStrings(deliveryUserRole, \"DELIVERY\"), \"User is not registered as a delivery agent.\");\r\n\r\n        OrderShipment memory shipment = orderShipments[_purchaseId];\r\n        orderShipments[_purchaseId].shipmentStatus = _newShipmentStatus;\r\n\r\n        uint product_id = shipment.productId;\r\n        //if status id delivered\r\n        if (Library.compareStrings(_newShipmentStatus, \"DELIVERED\")) {\r\n            products[product_id].owner = shipment.orderedBy;\r\n        } else {\r\n            products[product_id].owner = deliveryUserAddress;\r\n            sellerPurchaseIds[deliveryUserAddress].push(_purchaseId);\r\n        }\r\n\r\n        Product memory product = products[product_id];\r\n\r\n        string memory mongoId = product.mongoId;\r\n        string memory productName = product.productName;\r\n        string memory category = product.category;\r\n        uint price = product.price;\r\n        string memory description = product.description;\r\n\r\n        History memory history = History(\r\n            sellerAddress,\r\n            product_id,\r\n            mongoId,\r\n            productName,\r\n            category,\r\n            price,\r\n            description,\r\n            block.timestamp\r\n        );\r\n        productHistories[product_id].push(history);\r\n    }\r\n\r\n    function confirmUserOrder (uint _purchaseId, address userAddress) external {\r\n        require(msg.sender == supplyChainAddress, \"Unauthorized access!\");\r\n        require(getUserPurchaseId(_purchaseId, userAddress), \"Purchase Id does not exist\");\r\n        orderShipments[_purchaseId].isConfirmed = true;\r\n    }\r\n\r\n    function cancelOrder(uint _purchaseId, address userAddress) external { //payable\r\n        require(msg.sender == supplyChainAddress, \"Unauthorized access!\");\r\n        require(\r\n            getUserPurchaseId(_purchaseId, userAddress) ||\r\n            getSellerPurchaseId(_purchaseId, userAddress),\r\n            \"Purchase Id does not exist\"\r\n        );\r\n        require(!orderShipments[_purchaseId].isActive, \"You Already Canceled This order!\");\r\n        require(!Library.compareStrings(orderShipments[_purchaseId].shipmentStatus, \"initial shipment status\"),\r\n            \"You Already Canceled This order!\");\r\n\r\n        orderShipments[_purchaseId].isActive = false;\r\n    }\r\n}",
  "sourcePath": "C:\\Users\\nathn\\Desktop\\final project\\blockchain-api\\blockchain-contracts\\contracts\\ProductContract.sol",
  "compiler": {
    "name": "solc",
    "version": "0.8.14+commit.80d49f37.Emscripten.clang"
  },
  "schemaVersion": "3.4.7",
  "updatedAt": "2022-05-25T18:09:16.272Z",
  "devdoc": {
    "kind": "dev",
    "methods": {},
    "version": 1
  },
  "userdoc": {
    "kind": "user",
    "methods": {},
    "version": 1
  }
}