{
  "contractName": "SupplyChain",
  "abi": [
    {
      "inputs": [],
      "stateMutability": "nonpayable",
      "type": "constructor"
    },
    {
      "inputs": [
        {
          "internalType": "address",
          "name": "add",
          "type": "address"
        }
      ],
      "name": "setProductContractAddress",
      "outputs": [],
      "stateMutability": "nonpayable",
      "type": "function"
    },
    {
      "inputs": [
        {
          "internalType": "address",
          "name": "add",
          "type": "address"
        }
      ],
      "name": "setUserContractAddress",
      "outputs": [],
      "stateMutability": "nonpayable",
      "type": "function"
    },
    {
      "inputs": [
        {
          "internalType": "string",
          "name": "_mongoId",
          "type": "string"
        },
        {
          "internalType": "string",
          "name": "_name",
          "type": "string"
        },
        {
          "internalType": "string",
          "name": "_email",
          "type": "string"
        },
        {
          "internalType": "string",
          "name": "_deliveryAddress",
          "type": "string"
        },
        {
          "internalType": "string",
          "name": "_role",
          "type": "string"
        }
      ],
      "name": "userSignUp",
      "outputs": [],
      "stateMutability": "nonpayable",
      "type": "function"
    },
    {
      "inputs": [
        {
          "internalType": "address",
          "name": "_userId",
          "type": "address"
        }
      ],
      "name": "getUserByAddress",
      "outputs": [
        {
          "components": [
            {
              "internalType": "address",
              "name": "id",
              "type": "address"
            },
            {
              "internalType": "string",
              "name": "mongoId",
              "type": "string"
            },
            {
              "internalType": "string",
              "name": "name",
              "type": "string"
            },
            {
              "internalType": "string",
              "name": "email",
              "type": "string"
            },
            {
              "internalType": "string",
              "name": "deliveryAddress",
              "type": "string"
            },
            {
              "internalType": "string",
              "name": "role",
              "type": "string"
            },
            {
              "internalType": "bool",
              "name": "isCreated",
              "type": "bool"
            },
            {
              "internalType": "uint256",
              "name": "createdAt",
              "type": "uint256"
            },
            {
              "internalType": "uint256",
              "name": "updatedAt",
              "type": "uint256"
            }
          ],
          "internalType": "struct UserContract.User",
          "name": "",
          "type": "tuple"
        }
      ],
      "stateMutability": "view",
      "type": "function",
      "constant": true
    },
    {
      "inputs": [],
      "name": "getAllUser",
      "outputs": [
        {
          "components": [
            {
              "internalType": "string",
              "name": "mongoId",
              "type": "string"
            },
            {
              "internalType": "string",
              "name": "name",
              "type": "string"
            },
            {
              "internalType": "string",
              "name": "email",
              "type": "string"
            },
            {
              "internalType": "string",
              "name": "deliveryAddress",
              "type": "string"
            },
            {
              "internalType": "address",
              "name": "id",
              "type": "address"
            }
          ],
          "internalType": "struct UserContract.UserView[]",
          "name": "",
          "type": "tuple[]"
        }
      ],
      "stateMutability": "view",
      "type": "function",
      "constant": true
    },
    {
      "inputs": [
        {
          "internalType": "string",
          "name": "_mongoId",
          "type": "string"
        },
        {
          "internalType": "string",
          "name": "_productName",
          "type": "string"
        },
        {
          "internalType": "string",
          "name": "_category",
          "type": "string"
        },
        {
          "internalType": "uint256",
          "name": "_price",
          "type": "uint256"
        },
        {
          "internalType": "string",
          "name": "_description",
          "type": "string"
        },
        {
          "internalType": "uint256",
          "name": "_instanceNumber",
          "type": "uint256"
        }
      ],
      "name": "addProduct",
      "outputs": [],
      "stateMutability": "nonpayable",
      "type": "function"
    },
    {
      "inputs": [
        {
          "internalType": "uint256",
          "name": "_productId",
          "type": "uint256"
        }
      ],
      "name": "getProductById",
      "outputs": [
        {
          "components": [
            {
              "internalType": "uint256",
              "name": "productId",
              "type": "uint256"
            },
            {
              "internalType": "string",
              "name": "mongoId",
              "type": "string"
            },
            {
              "internalType": "string",
              "name": "productName",
              "type": "string"
            },
            {
              "internalType": "string",
              "name": "category",
              "type": "string"
            },
            {
              "internalType": "uint256",
              "name": "price",
              "type": "uint256"
            },
            {
              "internalType": "string",
              "name": "description",
              "type": "string"
            },
            {
              "internalType": "address",
              "name": "owner",
              "type": "address"
            },
            {
              "internalType": "bool",
              "name": "isAvailable",
              "type": "bool"
            },
            {
              "internalType": "bool",
              "name": "isCreated",
              "type": "bool"
            },
            {
              "internalType": "uint256",
              "name": "createdAt",
              "type": "uint256"
            },
            {
              "internalType": "uint256",
              "name": "updatedAt",
              "type": "uint256"
            }
          ],
          "internalType": "struct ProductContract.Product",
          "name": "",
          "type": "tuple"
        }
      ],
      "stateMutability": "view",
      "type": "function",
      "constant": true
    },
    {
      "inputs": [],
      "name": "getAllProducts",
      "outputs": [
        {
          "components": [
            {
              "internalType": "uint256",
              "name": "productId",
              "type": "uint256"
            },
            {
              "internalType": "string",
              "name": "mongoId",
              "type": "string"
            },
            {
              "internalType": "string",
              "name": "name",
              "type": "string"
            },
            {
              "internalType": "uint256",
              "name": "price",
              "type": "uint256"
            },
            {
              "internalType": "string",
              "name": "category",
              "type": "string"
            },
            {
              "internalType": "string",
              "name": "description",
              "type": "string"
            },
            {
              "internalType": "address",
              "name": "owner",
              "type": "address"
            }
          ],
          "internalType": "struct ProductContract.ProductView[]",
          "name": "",
          "type": "tuple[]"
        }
      ],
      "stateMutability": "view",
      "type": "function",
      "constant": true
    },
    {
      "inputs": [],
      "name": "getUserProducts",
      "outputs": [
        {
          "components": [
            {
              "internalType": "uint256",
              "name": "productId",
              "type": "uint256"
            },
            {
              "internalType": "string",
              "name": "mongoId",
              "type": "string"
            },
            {
              "internalType": "string",
              "name": "name",
              "type": "string"
            },
            {
              "internalType": "uint256",
              "name": "price",
              "type": "uint256"
            },
            {
              "internalType": "string",
              "name": "category",
              "type": "string"
            },
            {
              "internalType": "string",
              "name": "description",
              "type": "string"
            },
            {
              "internalType": "address",
              "name": "owner",
              "type": "address"
            }
          ],
          "internalType": "struct ProductContract.ProductView[]",
          "name": "",
          "type": "tuple[]"
        }
      ],
      "stateMutability": "view",
      "type": "function",
      "constant": true
    },
    {
      "inputs": [
        {
          "internalType": "uint256",
          "name": "_productId",
          "type": "uint256"
        }
      ],
      "name": "getProductHistory",
      "outputs": [
        {
          "components": [
            {
              "internalType": "address",
              "name": "prevOwner",
              "type": "address"
            },
            {
              "internalType": "uint256",
              "name": "productId",
              "type": "uint256"
            },
            {
              "internalType": "string",
              "name": "mongoId",
              "type": "string"
            },
            {
              "internalType": "string",
              "name": "productName",
              "type": "string"
            },
            {
              "internalType": "string",
              "name": "category",
              "type": "string"
            },
            {
              "internalType": "uint256",
              "name": "price",
              "type": "uint256"
            },
            {
              "internalType": "string",
              "name": "description",
              "type": "string"
            },
            {
              "internalType": "uint256",
              "name": "transferDate",
              "type": "uint256"
            }
          ],
          "internalType": "struct ProductContract.History[]",
          "name": "",
          "type": "tuple[]"
        }
      ],
      "stateMutability": "view",
      "type": "function",
      "constant": true
    },
    {
      "inputs": [
        {
          "internalType": "uint256",
          "name": "_productId",
          "type": "uint256"
        },
        {
          "internalType": "bool",
          "name": "_available",
          "type": "bool"
        }
      ],
      "name": "changeProductAvailability",
      "outputs": [],
      "stateMutability": "nonpayable",
      "type": "function"
    },
    {
      "inputs": [
        {
          "internalType": "uint256",
          "name": "_productId",
          "type": "uint256"
        }
      ],
      "name": "buyProduct",
      "outputs": [],
      "stateMutability": "nonpayable",
      "type": "function"
    },
    {
      "inputs": [],
      "name": "getUserOrders",
      "outputs": [
        {
          "components": [
            {
              "internalType": "uint256",
              "name": "purchaseId",
              "type": "uint256"
            },
            {
              "internalType": "uint256",
              "name": "productId",
              "type": "uint256"
            },
            {
              "internalType": "string",
              "name": "mongoId",
              "type": "string"
            },
            {
              "internalType": "string",
              "name": "shipmentStatus",
              "type": "string"
            },
            {
              "internalType": "string",
              "name": "deliveryAddress",
              "type": "string"
            },
            {
              "internalType": "address",
              "name": "orderedBy",
              "type": "address"
            },
            {
              "internalType": "bool",
              "name": "isConfirmed",
              "type": "bool"
            },
            {
              "internalType": "bool",
              "name": "isActive",
              "type": "bool"
            },
            {
              "internalType": "bool",
              "name": "isCanceled",
              "type": "bool"
            },
            {
              "internalType": "uint256",
              "name": "createdAt",
              "type": "uint256"
            },
            {
              "internalType": "uint256",
              "name": "updatedAt",
              "type": "uint256"
            }
          ],
          "internalType": "struct ProductContract.OrderShipment[]",
          "name": "",
          "type": "tuple[]"
        }
      ],
      "stateMutability": "view",
      "type": "function",
      "constant": true
    },
    {
      "inputs": [
        {
          "internalType": "uint256",
          "name": "_purchaseId",
          "type": "uint256"
        }
      ],
      "name": "getUserOrderDetail",
      "outputs": [
        {
          "components": [
            {
              "internalType": "uint256",
              "name": "purchaseId",
              "type": "uint256"
            },
            {
              "internalType": "uint256",
              "name": "productId",
              "type": "uint256"
            },
            {
              "internalType": "string",
              "name": "mongoId",
              "type": "string"
            },
            {
              "internalType": "string",
              "name": "shipmentStatus",
              "type": "string"
            },
            {
              "internalType": "string",
              "name": "deliveryAddress",
              "type": "string"
            },
            {
              "internalType": "address",
              "name": "orderedBy",
              "type": "address"
            },
            {
              "internalType": "bool",
              "name": "isConfirmed",
              "type": "bool"
            },
            {
              "internalType": "bool",
              "name": "isActive",
              "type": "bool"
            },
            {
              "internalType": "bool",
              "name": "isCanceled",
              "type": "bool"
            },
            {
              "internalType": "uint256",
              "name": "createdAt",
              "type": "uint256"
            },
            {
              "internalType": "uint256",
              "name": "updatedAt",
              "type": "uint256"
            }
          ],
          "internalType": "struct ProductContract.OrderShipment",
          "name": "",
          "type": "tuple"
        }
      ],
      "stateMutability": "view",
      "type": "function",
      "constant": true
    },
    {
      "inputs": [],
      "name": "getSellerOrders",
      "outputs": [
        {
          "components": [
            {
              "internalType": "uint256",
              "name": "purchaseId",
              "type": "uint256"
            },
            {
              "internalType": "uint256",
              "name": "productId",
              "type": "uint256"
            },
            {
              "internalType": "string",
              "name": "mongoId",
              "type": "string"
            },
            {
              "internalType": "string",
              "name": "shipmentStatus",
              "type": "string"
            },
            {
              "internalType": "string",
              "name": "deliveryAddress",
              "type": "string"
            },
            {
              "internalType": "address",
              "name": "orderedBy",
              "type": "address"
            },
            {
              "internalType": "bool",
              "name": "isConfirmed",
              "type": "bool"
            },
            {
              "internalType": "bool",
              "name": "isActive",
              "type": "bool"
            },
            {
              "internalType": "bool",
              "name": "isCanceled",
              "type": "bool"
            },
            {
              "internalType": "uint256",
              "name": "createdAt",
              "type": "uint256"
            },
            {
              "internalType": "uint256",
              "name": "updatedAt",
              "type": "uint256"
            }
          ],
          "internalType": "struct ProductContract.OrderShipment[]",
          "name": "",
          "type": "tuple[]"
        }
      ],
      "stateMutability": "view",
      "type": "function",
      "constant": true
    },
    {
      "inputs": [
        {
          "internalType": "uint256",
          "name": "_purchaseId",
          "type": "uint256"
        }
      ],
      "name": "getSellerOrderDetail",
      "outputs": [
        {
          "components": [
            {
              "internalType": "uint256",
              "name": "purchaseId",
              "type": "uint256"
            },
            {
              "internalType": "uint256",
              "name": "productId",
              "type": "uint256"
            },
            {
              "internalType": "string",
              "name": "mongoId",
              "type": "string"
            },
            {
              "internalType": "string",
              "name": "shipmentStatus",
              "type": "string"
            },
            {
              "internalType": "string",
              "name": "deliveryAddress",
              "type": "string"
            },
            {
              "internalType": "address",
              "name": "orderedBy",
              "type": "address"
            },
            {
              "internalType": "bool",
              "name": "isConfirmed",
              "type": "bool"
            },
            {
              "internalType": "bool",
              "name": "isActive",
              "type": "bool"
            },
            {
              "internalType": "bool",
              "name": "isCanceled",
              "type": "bool"
            },
            {
              "internalType": "uint256",
              "name": "createdAt",
              "type": "uint256"
            },
            {
              "internalType": "uint256",
              "name": "updatedAt",
              "type": "uint256"
            }
          ],
          "internalType": "struct ProductContract.OrderShipment",
          "name": "",
          "type": "tuple"
        }
      ],
      "stateMutability": "view",
      "type": "function",
      "constant": true
    },
    {
      "inputs": [
        {
          "internalType": "uint256",
          "name": "_purchaseId",
          "type": "uint256"
        },
        {
          "internalType": "string",
          "name": "_newShipmentStatus",
          "type": "string"
        },
        {
          "internalType": "address",
          "name": "deliveryUserAddress",
          "type": "address"
        }
      ],
      "name": "updateShipmentStatus",
      "outputs": [],
      "stateMutability": "nonpayable",
      "type": "function"
    },
    {
      "inputs": [
        {
          "internalType": "uint256",
          "name": "_purchaseId",
          "type": "uint256"
        }
      ],
      "name": "confirmUserOrder",
      "outputs": [],
      "stateMutability": "nonpayable",
      "type": "function"
    },
    {
      "inputs": [
        {
          "internalType": "uint256",
          "name": "_purchaseId",
          "type": "uint256"
        }
      ],
      "name": "cancelOrder",
      "outputs": [],
      "stateMutability": "nonpayable",
      "type": "function"
    }
  ],
  "bytecode": "0x608060405234801561001057600080fd5b50336000806101000a81548173ffffffffffffffffffffffffffffffffffffffff021916908373ffffffffffffffffffffffffffffffffffffffff16021790555061366c806100606000396000f3fe608060405234801561001057600080fd5b50600436106101215760003560e01c806357a096a1116100ad5780639107cc8e116100715780639107cc8e1461031a578063aba7b31414610336578063d9b7b8a414610354578063dd43640514610370578063fa3747a21461038c57610121565b806357a096a1146102645780635fe5de7f1461029457806369c212f6146102b0578063700db752146102e05780638642269e146102fe57610121565b80633f019c06116100f45780633f019c06146101ae5780633f70c2b4146101de57806347531df81461020e578063514fcac71461022c57806356f61b591461024857610121565b806302ee3a52146101265780631d7e37ad146101445780631d7e48f5146101605780631e4b919b14610190575b600080fd5b61012e6103a8565b60405161013b91906116d6565b60405180910390f35b61015e60048036038101906101599190611738565b610445565b005b61017a60048036038101906101759190611791565b610517565b60405161018791906118d6565b60405180910390f35b6101986105c9565b6040516101a59190611ab7565b60405180910390f35b6101c860048036038101906101c39190611791565b610671565b6040516101d591906118d6565b60405180910390f35b6101f860048036038101906101f39190611791565b610723565b6040516102059190611bdd565b60405180910390f35b6102166107d3565b6040516102239190611d4c565b60405180910390f35b61024660048036038101906102419190611791565b610870565b005b610262600480360381019061025d9190611ea3565b610902565b005b61027e60048036038101906102799190611791565b610a40565b60405161028b9190612099565b60405180910390f35b6102ae60048036038101906102a991906120e7565b610aea565b005b6102ca60048036038101906102c59190611738565b610b7f565b6040516102d79190612208565b60405180910390f35b6102e8610c2f565b6040516102f59190611ab7565b60405180910390f35b61031860048036038101906103139190611791565b610cd7565b005b610334600480360381019061032f919061222a565b610ef3565b005b61033e610f91565b60405161034b91906116d6565b60405180910390f35b61036e60048036038101906103699190612331565b611039565b005b61038a60048036038101906103859190611791565b6111be565b005b6103a660048036038101906103a19190611738565b611250565b005b6060600360009054906101000a900473ffffffffffffffffffffffffffffffffffffffff1673ffffffffffffffffffffffffffffffffffffffff166302ee3a526040518163ffffffff1660e01b8152600401600060405180830381865afa158015610417573d6000803e3d6000fd5b505050506040513d6000823e3d601f19601f8201168201806040525081019061044091906126dc565b905090565b60008054906101000a900473ffffffffffffffffffffffffffffffffffffffff1673ffffffffffffffffffffffffffffffffffffffff163373ffffffffffffffffffffffffffffffffffffffff16146104d3576040517f08c379a00000000000000000000000000000000000000000000000000000000081526004016104ca90612782565b60405180910390fd5b80600460006101000a81548173ffffffffffffffffffffffffffffffffffffffff021916908373ffffffffffffffffffffffffffffffffffffffff16021790555050565b61051f611322565b600360009054906101000a900473ffffffffffffffffffffffffffffffffffffffff1673ffffffffffffffffffffffffffffffffffffffff16632b84df7283336040518363ffffffff1660e01b815260040161057c9291906127c0565b600060405180830381865afa158015610599573d6000803e3d6000fd5b505050506040513d6000823e3d601f19601f820116820180604052508101906105c2919061295e565b9050919050565b6060600360009054906101000a900473ffffffffffffffffffffffffffffffffffffffff1673ffffffffffffffffffffffffffffffffffffffff166363c69f08336040518263ffffffff1660e01b815260040161062691906129a7565b600060405180830381865afa158015610643573d6000803e3d6000fd5b505050506040513d6000823e3d601f19601f8201168201806040525081019061066c9190612aa3565b905090565b610679611322565b600360009054906101000a900473ffffffffffffffffffffffffffffffffffffffff1673ffffffffffffffffffffffffffffffffffffffff1663b687fa8d83336040518363ffffffff1660e01b81526004016106d69291906127c0565b600060405180830381865afa1580156106f3573d6000803e3d6000fd5b505050506040513d6000823e3d601f19601f8201168201806040525081019061071c919061295e565b9050919050565b61072b611398565b600360009054906101000a900473ffffffffffffffffffffffffffffffffffffffff1673ffffffffffffffffffffffffffffffffffffffff16633f70c2b4836040518263ffffffff1660e01b81526004016107869190612aec565b600060405180830381865afa1580156107a3573d6000803e3d6000fd5b505050506040513d6000823e3d601f19601f820116820180604052508101906107cc9190612c83565b9050919050565b6060600460009054906101000a900473ffffffffffffffffffffffffffffffffffffffff1673ffffffffffffffffffffffffffffffffffffffff166347531df86040518163ffffffff1660e01b8152600401600060405180830381865afa158015610842573d6000803e3d6000fd5b505050506040513d6000823e3d601f19601f8201168201806040525081019061086b9190612ea9565b905090565b600360009054906101000a900473ffffffffffffffffffffffffffffffffffffffff1673ffffffffffffffffffffffffffffffffffffffff16637323a7d382336040518363ffffffff1660e01b81526004016108cd9291906127c0565b600060405180830381600087803b1580156108e757600080fd5b505af11580156108fb573d6000803e3d6000fd5b5050505050565b600360009054906101000a900473ffffffffffffffffffffffffffffffffffffffff1673ffffffffffffffffffffffffffffffffffffffff16633b34711d84848433600460009054906101000a900473ffffffffffffffffffffffffffffffffffffffff1673ffffffffffffffffffffffffffffffffffffffff166369c212f6886040518263ffffffff1660e01b815260040161099f91906129a7565b600060405180830381865afa1580156109bc573d6000803e3d6000fd5b505050506040513d6000823e3d601f19601f820116820180604052508101906109e5919061305e565b60a001516040518663ffffffff1660e01b8152600401610a099594939291906130e0565b600060405180830381600087803b158015610a2357600080fd5b505af1158015610a37573d6000803e3d6000fd5b50505050505050565b6060600360009054906101000a900473ffffffffffffffffffffffffffffffffffffffff1673ffffffffffffffffffffffffffffffffffffffff166357a096a1836040518263ffffffff1660e01b8152600401610a9d9190612aec565b600060405180830381865afa158015610aba573d6000803e3d6000fd5b505050506040513d6000823e3d601f19601f82011682018060405250810190610ae3919061335c565b9050919050565b600360009054906101000a900473ffffffffffffffffffffffffffffffffffffffff1673ffffffffffffffffffffffffffffffffffffffff1663506f05318383336040518463ffffffff1660e01b8152600401610b49939291906133b4565b600060405180830381600087803b158015610b6357600080fd5b505af1158015610b77573d6000803e3d6000fd5b505050505050565b610b8761140c565b600460009054906101000a900473ffffffffffffffffffffffffffffffffffffffff1673ffffffffffffffffffffffffffffffffffffffff166369c212f6836040518263ffffffff1660e01b8152600401610be291906129a7565b600060405180830381865afa158015610bff573d6000803e3d6000fd5b505050506040513d6000823e3d601f19601f82011682018060405250810190610c28919061305e565b9050919050565b6060600360009054906101000a900473ffffffffffffffffffffffffffffffffffffffff1673ffffffffffffffffffffffffffffffffffffffff1663e4cbac40336040518263ffffffff1660e01b8152600401610c8c91906129a7565b600060405180830381865afa158015610ca9573d6000803e3d6000fd5b505050506040513d6000823e3d601f19601f82011682018060405250810190610cd29190612aa3565b905090565b600460009054906101000a900473ffffffffffffffffffffffffffffffffffffffff1673ffffffffffffffffffffffffffffffffffffffff166369c212f6336040518263ffffffff1660e01b8152600401610d3291906129a7565b600060405180830381865afa158015610d4f573d6000803e3d6000fd5b505050506040513d6000823e3d601f19601f82011682018060405250810190610d78919061305e565b60c00151610dbb576040517f08c379a0000000000000000000000000000000000000000000000000000000008152600401610db290613437565b60405180910390fd5b600360009054906101000a900473ffffffffffffffffffffffffffffffffffffffff1673ffffffffffffffffffffffffffffffffffffffff1663021574448233600460009054906101000a900473ffffffffffffffffffffffffffffffffffffffff1673ffffffffffffffffffffffffffffffffffffffff166369c212f6336040518263ffffffff1660e01b8152600401610e5691906129a7565b600060405180830381865afa158015610e73573d6000803e3d6000fd5b505050506040513d6000823e3d601f19601f82011682018060405250810190610e9c919061305e565b608001516040518463ffffffff1660e01b8152600401610ebe93929190613457565b600060405180830381600087803b158015610ed857600080fd5b505af1158015610eec573d6000803e3d6000fd5b5050505050565b600460009054906101000a900473ffffffffffffffffffffffffffffffffffffffff1673ffffffffffffffffffffffffffffffffffffffff1663cd973ffc8686868686336040518763ffffffff1660e01b8152600401610f5896959493929190613495565b600060405180830381600087803b158015610f7257600080fd5b505af1158015610f86573d6000803e3d6000fd5b505050505050505050565b6060600360009054906101000a900473ffffffffffffffffffffffffffffffffffffffff1673ffffffffffffffffffffffffffffffffffffffff1663fee7f53b336040518263ffffffff1660e01b8152600401610fee91906129a7565b600060405180830381865afa15801561100b573d6000803e3d6000fd5b505050506040513d6000823e3d601f19601f8201168201806040525081019061103491906126dc565b905090565b600460009054906101000a900473ffffffffffffffffffffffffffffffffffffffff1673ffffffffffffffffffffffffffffffffffffffff166369c212f6336040518263ffffffff1660e01b815260040161109491906129a7565b600060405180830381865afa1580156110b1573d6000803e3d6000fd5b505050506040513d6000823e3d601f19601f820116820180604052508101906110da919061305e565b60c0015161111d576040517f08c379a00000000000000000000000000000000000000000000000000000000081526004016111149061358b565b60405180910390fd5b600360009054906101000a900473ffffffffffffffffffffffffffffffffffffffff1673ffffffffffffffffffffffffffffffffffffffff1663995192fe878787878787336040518863ffffffff1660e01b815260040161118497969594939291906135ab565b600060405180830381600087803b15801561119e57600080fd5b505af11580156111b2573d6000803e3d6000fd5b50505050505050505050565b600360009054906101000a900473ffffffffffffffffffffffffffffffffffffffff1673ffffffffffffffffffffffffffffffffffffffff1663dec9e20982336040518363ffffffff1660e01b815260040161121b9291906127c0565b600060405180830381600087803b15801561123557600080fd5b505af1158015611249573d6000803e3d6000fd5b5050505050565b60008054906101000a900473ffffffffffffffffffffffffffffffffffffffff1673ffffffffffffffffffffffffffffffffffffffff163373ffffffffffffffffffffffffffffffffffffffff16146112de576040517f08c379a00000000000000000000000000000000000000000000000000000000081526004016112d590612782565b60405180910390fd5b80600360006101000a81548173ffffffffffffffffffffffffffffffffffffffff021916908373ffffffffffffffffffffffffffffffffffffffff16021790555050565b6040518061016001604052806000815260200160008152602001606081526020016060815260200160608152602001600073ffffffffffffffffffffffffffffffffffffffff16815260200160001515815260200160001515815260200160001515815260200160008152602001600081525090565b604051806101600160405280600081526020016060815260200160608152602001606081526020016000815260200160608152602001600073ffffffffffffffffffffffffffffffffffffffff16815260200160001515815260200160001515815260200160008152602001600081525090565b604051806101200160405280600073ffffffffffffffffffffffffffffffffffffffff168152602001606081526020016060815260200160608152602001606081526020016060815260200160001515815260200160008152602001600081525090565b600081519050919050565b600082825260208201905092915050565b6000819050602082019050919050565b6000819050919050565b6114af8161149c565b82525050565b600081519050919050565b600082825260208201905092915050565b60005b838110156114ef5780820151818401526020810190506114d4565b838111156114fe576000848401525b50505050565b6000601f19601f8301169050919050565b6000611520826114b5565b61152a81856114c0565b935061153a8185602086016114d1565b61154381611504565b840191505092915050565b600073ffffffffffffffffffffffffffffffffffffffff82169050919050565b60006115798261154e565b9050919050565b6115898161156e565b82525050565b600060e0830160008301516115a760008601826114a6565b50602083015184820360208601526115bf8282611515565b915050604083015184820360408601526115d98282611515565b91505060608301516115ee60608601826114a6565b50608083015184820360808601526116068282611515565b91505060a083015184820360a08601526116208282611515565b91505060c083015161163560c0860182611580565b508091505092915050565b600061164c838361158f565b905092915050565b6000602082019050919050565b600061166c82611470565b611676818561147b565b9350836020820285016116888561148c565b8060005b858110156116c457848403895281516116a58582611640565b94506116b083611654565b925060208a0199505060018101905061168c565b50829750879550505050505092915050565b600060208201905081810360008301526116f08184611661565b905092915050565b6000604051905090565b600080fd5b600080fd5b6117158161156e565b811461172057600080fd5b50565b6000813590506117328161170c565b92915050565b60006020828403121561174e5761174d611702565b5b600061175c84828501611723565b91505092915050565b61176e8161149c565b811461177957600080fd5b50565b60008135905061178b81611765565b92915050565b6000602082840312156117a7576117a6611702565b5b60006117b58482850161177c565b91505092915050565b60008115159050919050565b6117d3816117be565b82525050565b6000610160830160008301516117f260008601826114a6565b50602083015161180560208601826114a6565b506040830151848203604086015261181d8282611515565b915050606083015184820360608601526118378282611515565b915050608083015184820360808601526118518282611515565b91505060a083015161186660a0860182611580565b5060c083015161187960c08601826117ca565b5060e083015161188c60e08601826117ca565b506101008301516118a16101008601826117ca565b506101208301516118b66101208601826114a6565b506101408301516118cb6101408601826114a6565b508091505092915050565b600060208201905081810360008301526118f081846117d9565b905092915050565b600081519050919050565b600082825260208201905092915050565b6000819050602082019050919050565b60006101608301600083015161193d60008601826114a6565b50602083015161195060208601826114a6565b50604083015184820360408601526119688282611515565b915050606083015184820360608601526119828282611515565b9150506080830151848203608086015261199c8282611515565b91505060a08301516119b160a0860182611580565b5060c08301516119c460c08601826117ca565b5060e08301516119d760e08601826117ca565b506101008301516119ec6101008601826117ca565b50610120830151611a016101208601826114a6565b50610140830151611a166101408601826114a6565b508091505092915050565b6000611a2d8383611924565b905092915050565b6000602082019050919050565b6000611a4d826118f8565b611a578185611903565b935083602082028501611a6985611914565b8060005b85811015611aa55784840389528151611a868582611a21565b9450611a9183611a35565b925060208a01995050600181019050611a6d565b50829750879550505050505092915050565b60006020820190508181036000830152611ad18184611a42565b905092915050565b600061016083016000830151611af260008601826114a6565b5060208301518482036020860152611b0a8282611515565b91505060408301518482036040860152611b248282611515565b91505060608301518482036060860152611b3e8282611515565b9150506080830151611b5360808601826114a6565b5060a083015184820360a0860152611b6b8282611515565b91505060c0830151611b8060c0860182611580565b5060e0830151611b9360e08601826117ca565b50610100830151611ba86101008601826117ca565b50610120830151611bbd6101208601826114a6565b50610140830151611bd26101408601826114a6565b508091505092915050565b60006020820190508181036000830152611bf78184611ad9565b905092915050565b600081519050919050565b600082825260208201905092915050565b6000819050602082019050919050565b600060a0830160008301518482036000860152611c488282611515565b91505060208301518482036020860152611c628282611515565b91505060408301518482036040860152611c7c8282611515565b91505060608301518482036060860152611c968282611515565b9150506080830151611cab6080860182611580565b508091505092915050565b6000611cc28383611c2b565b905092915050565b6000602082019050919050565b6000611ce282611bff565b611cec8185611c0a565b935083602082028501611cfe85611c1b565b8060005b85811015611d3a5784840389528151611d1b8582611cb6565b9450611d2683611cca565b925060208a01995050600181019050611d02565b50829750879550505050505092915050565b60006020820190508181036000830152611d668184611cd7565b905092915050565b600080fd5b600080fd5b7f4e487b7100000000000000000000000000000000000000000000000000000000600052604160045260246000fd5b611db082611504565b810181811067ffffffffffffffff82111715611dcf57611dce611d78565b5b80604052505050565b6000611de26116f8565b9050611dee8282611da7565b919050565b600067ffffffffffffffff821115611e0e57611e0d611d78565b5b611e1782611504565b9050602081019050919050565b82818337600083830152505050565b6000611e46611e4184611df3565b611dd8565b905082815260208101848484011115611e6257611e61611d73565b5b611e6d848285611e24565b509392505050565b600082601f830112611e8a57611e89611d6e565b5b8135611e9a848260208601611e33565b91505092915050565b600080600060608486031215611ebc57611ebb611702565b5b6000611eca8682870161177c565b935050602084013567ffffffffffffffff811115611eeb57611eea611707565b5b611ef786828701611e75565b9250506040611f0886828701611723565b9150509250925092565b600081519050919050565b600082825260208201905092915050565b6000819050602082019050919050565b600061010083016000830151611f576000860182611580565b506020830151611f6a60208601826114a6565b5060408301518482036040860152611f828282611515565b91505060608301518482036060860152611f9c8282611515565b91505060808301518482036080860152611fb68282611515565b91505060a0830151611fcb60a08601826114a6565b5060c083015184820360c0860152611fe38282611515565b91505060e0830151611ff860e08601826114a6565b508091505092915050565b600061200f8383611f3e565b905092915050565b6000602082019050919050565b600061202f82611f12565b6120398185611f1d565b93508360208202850161204b85611f2e565b8060005b8581101561208757848403895281516120688582612003565b945061207383612017565b925060208a0199505060018101905061204f565b50829750879550505050505092915050565b600060208201905081810360008301526120b38184612024565b905092915050565b6120c4816117be565b81146120cf57600080fd5b50565b6000813590506120e1816120bb565b92915050565b600080604083850312156120fe576120fd611702565b5b600061210c8582860161177c565b925050602061211d858286016120d2565b9150509250929050565b6000610120830160008301516121406000860182611580565b50602083015184820360208601526121588282611515565b915050604083015184820360408601526121728282611515565b9150506060830151848203606086015261218c8282611515565b915050608083015184820360808601526121a68282611515565b91505060a083015184820360a08601526121c08282611515565b91505060c08301516121d560c08601826117ca565b5060e08301516121e860e08601826114a6565b506101008301516121fd6101008601826114a6565b508091505092915050565b600060208201905081810360008301526122228184612127565b905092915050565b600080600080600060a0868803121561224657612245611702565b5b600086013567ffffffffffffffff81111561226457612263611707565b5b61227088828901611e75565b955050602086013567ffffffffffffffff81111561229157612290611707565b5b61229d88828901611e75565b945050604086013567ffffffffffffffff8111156122be576122bd611707565b5b6122ca88828901611e75565b935050606086013567ffffffffffffffff8111156122eb576122ea611707565b5b6122f788828901611e75565b925050608086013567ffffffffffffffff81111561231857612317611707565b5b61232488828901611e75565b9150509295509295909350565b60008060008060008060c0878903121561234e5761234d611702565b5b600087013567ffffffffffffffff81111561236c5761236b611707565b5b61237889828a01611e75565b965050602087013567ffffffffffffffff81111561239957612398611707565b5b6123a589828a01611e75565b955050604087013567ffffffffffffffff8111156123c6576123c5611707565b5b6123d289828a01611e75565b94505060606123e389828a0161177c565b935050608087013567ffffffffffffffff81111561240457612403611707565b5b61241089828a01611e75565b92505060a061242189828a0161177c565b9150509295509295509295565b600067ffffffffffffffff82111561244957612448611d78565b5b602082029050602081019050919050565b600080fd5b600080fd5b600080fd5b60008151905061247881611765565b92915050565b600061249161248c84611df3565b611dd8565b9050828152602081018484840111156124ad576124ac611d73565b5b6124b88482856114d1565b509392505050565b600082601f8301126124d5576124d4611d6e565b5b81516124e584826020860161247e565b91505092915050565b6000815190506124fd8161170c565b92915050565b600060e082840312156125195761251861245f565b5b61252360e0611dd8565b9050600061253384828501612469565b600083015250602082015167ffffffffffffffff81111561255757612556612464565b5b612563848285016124c0565b602083015250604082015167ffffffffffffffff81111561258757612586612464565b5b612593848285016124c0565b60408301525060606125a784828501612469565b606083015250608082015167ffffffffffffffff8111156125cb576125ca612464565b5b6125d7848285016124c0565b60808301525060a082015167ffffffffffffffff8111156125fb576125fa612464565b5b612607848285016124c0565b60a08301525060c061261b848285016124ee565b60c08301525092915050565b600061263a6126358461242e565b611dd8565b9050808382526020820190506020840283018581111561265d5761265c61245a565b5b835b818110156126a457805167ffffffffffffffff81111561268257612681611d6e565b5b80860161268f8982612503565b8552602085019450505060208101905061265f565b5050509392505050565b600082601f8301126126c3576126c2611d6e565b5b81516126d3848260208601612627565b91505092915050565b6000602082840312156126f2576126f1611702565b5b600082015167ffffffffffffffff8111156127105761270f611707565b5b61271c848285016126ae565b91505092915050565b600082825260208201905092915050565b7f556e617574686f72697a65642061636365737321000000000000000000000000600082015250565b600061276c601483612725565b915061277782612736565b602082019050919050565b6000602082019050818103600083015261279b8161275f565b9050919050565b6127ab8161149c565b82525050565b6127ba8161156e565b82525050565b60006040820190506127d560008301856127a2565b6127e260208301846127b1565b9392505050565b6000815190506127f8816120bb565b92915050565b600061016082840312156128155761281461245f565b5b612820610160611dd8565b9050600061283084828501612469565b600083015250602061284484828501612469565b602083015250604082015167ffffffffffffffff81111561286857612867612464565b5b612874848285016124c0565b604083015250606082015167ffffffffffffffff81111561289857612897612464565b5b6128a4848285016124c0565b606083015250608082015167ffffffffffffffff8111156128c8576128c7612464565b5b6128d4848285016124c0565b60808301525060a06128e8848285016124ee565b60a08301525060c06128fc848285016127e9565b60c08301525060e0612910848285016127e9565b60e083015250610100612925848285016127e9565b6101008301525061012061293b84828501612469565b6101208301525061014061295184828501612469565b6101408301525092915050565b60006020828403121561297457612973611702565b5b600082015167ffffffffffffffff81111561299257612991611707565b5b61299e848285016127fe565b91505092915050565b60006020820190506129bc60008301846127b1565b92915050565b600067ffffffffffffffff8211156129dd576129dc611d78565b5b602082029050602081019050919050565b6000612a016129fc846129c2565b611dd8565b90508083825260208201905060208402830185811115612a2457612a2361245a565b5b835b81811015612a6b57805167ffffffffffffffff811115612a4957612a48611d6e565b5b808601612a5689826127fe565b85526020850194505050602081019050612a26565b5050509392505050565b600082601f830112612a8a57612a89611d6e565b5b8151612a9a8482602086016129ee565b91505092915050565b600060208284031215612ab957612ab8611702565b5b600082015167ffffffffffffffff811115612ad757612ad6611707565b5b612ae384828501612a75565b91505092915050565b6000602082019050612b0160008301846127a2565b92915050565b60006101608284031215612b1e57612b1d61245f565b5b612b29610160611dd8565b90506000612b3984828501612469565b600083015250602082015167ffffffffffffffff811115612b5d57612b5c612464565b5b612b69848285016124c0565b602083015250604082015167ffffffffffffffff811115612b8d57612b8c612464565b5b612b99848285016124c0565b604083015250606082015167ffffffffffffffff811115612bbd57612bbc612464565b5b612bc9848285016124c0565b6060830152506080612bdd84828501612469565b60808301525060a082015167ffffffffffffffff811115612c0157612c00612464565b5b612c0d848285016124c0565b60a08301525060c0612c21848285016124ee565b60c08301525060e0612c35848285016127e9565b60e083015250610100612c4a848285016127e9565b61010083015250610120612c6084828501612469565b61012083015250610140612c7684828501612469565b6101408301525092915050565b600060208284031215612c9957612c98611702565b5b600082015167ffffffffffffffff811115612cb757612cb6611707565b5b612cc384828501612b07565b91505092915050565b600067ffffffffffffffff821115612ce757612ce6611d78565b5b602082029050602081019050919050565b600060a08284031215612d0e57612d0d61245f565b5b612d1860a0611dd8565b9050600082015167ffffffffffffffff811115612d3857612d37612464565b5b612d44848285016124c0565b600083015250602082015167ffffffffffffffff811115612d6857612d67612464565b5b612d74848285016124c0565b602083015250604082015167ffffffffffffffff811115612d9857612d97612464565b5b612da4848285016124c0565b604083015250606082015167ffffffffffffffff811115612dc857612dc7612464565b5b612dd4848285016124c0565b6060830152506080612de8848285016124ee565b60808301525092915050565b6000612e07612e0284612ccc565b611dd8565b90508083825260208201905060208402830185811115612e2a57612e2961245a565b5b835b81811015612e7157805167ffffffffffffffff811115612e4f57612e4e611d6e565b5b808601612e5c8982612cf8565b85526020850194505050602081019050612e2c565b5050509392505050565b600082601f830112612e9057612e8f611d6e565b5b8151612ea0848260208601612df4565b91505092915050565b600060208284031215612ebf57612ebe611702565b5b600082015167ffffffffffffffff811115612edd57612edc611707565b5b612ee984828501612e7b565b91505092915050565b60006101208284031215612f0957612f0861245f565b5b612f14610120611dd8565b90506000612f24848285016124ee565b600083015250602082015167ffffffffffffffff811115612f4857612f47612464565b5b612f54848285016124c0565b602083015250604082015167ffffffffffffffff811115612f7857612f77612464565b5b612f84848285016124c0565b604083015250606082015167ffffffffffffffff811115612fa857612fa7612464565b5b612fb4848285016124c0565b606083015250608082015167ffffffffffffffff811115612fd857612fd7612464565b5b612fe4848285016124c0565b60808301525060a082015167ffffffffffffffff81111561300857613007612464565b5b613014848285016124c0565b60a08301525060c0613028848285016127e9565b60c08301525060e061303c84828501612469565b60e08301525061010061305184828501612469565b6101008301525092915050565b60006020828403121561307457613073611702565b5b600082015167ffffffffffffffff81111561309257613091611707565b5b61309e84828501612ef2565b91505092915050565b60006130b2826114b5565b6130bc8185612725565b93506130cc8185602086016114d1565b6130d581611504565b840191505092915050565b600060a0820190506130f560008301886127a2565b818103602083015261310781876130a7565b905061311660408301866127b1565b61312360608301856127b1565b818103608083015261313581846130a7565b90509695505050505050565b600067ffffffffffffffff82111561315c5761315b611d78565b5b602082029050602081019050919050565b600061010082840312156131845761318361245f565b5b61318f610100611dd8565b9050600061319f848285016124ee565b60008301525060206131b384828501612469565b602083015250604082015167ffffffffffffffff8111156131d7576131d6612464565b5b6131e3848285016124c0565b604083015250606082015167ffffffffffffffff81111561320757613206612464565b5b613213848285016124c0565b606083015250608082015167ffffffffffffffff81111561323757613236612464565b5b613243848285016124c0565b60808301525060a061325784828501612469565b60a08301525060c082015167ffffffffffffffff81111561327b5761327a612464565b5b613287848285016124c0565b60c08301525060e061329b84828501612469565b60e08301525092915050565b60006132ba6132b584613141565b611dd8565b905080838252602082019050602084028301858111156132dd576132dc61245a565b5b835b8181101561332457805167ffffffffffffffff81111561330257613301611d6e565b5b80860161330f898261316d565b855260208501945050506020810190506132df565b5050509392505050565b600082601f83011261334357613342611d6e565b5b81516133538482602086016132a7565b91505092915050565b60006020828403121561337257613371611702565b5b600082015167ffffffffffffffff8111156133905761338f611707565b5b61339c8482850161332e565b91505092915050565b6133ae816117be565b82525050565b60006060820190506133c960008301866127a2565b6133d660208301856133a5565b6133e360408301846127b1565b949350505050565b7f596f75204d757374204265205265676973746572656420746f20427579210000600082015250565b6000613421601e83612725565b915061342c826133eb565b602082019050919050565b6000602082019050818103600083015261345081613414565b9050919050565b600060608201905061346c60008301866127a2565b61347960208301856127b1565b818103604083015261348b81846130a7565b9050949350505050565b600060c08201905081810360008301526134af81896130a7565b905081810360208301526134c381886130a7565b905081810360408301526134d781876130a7565b905081810360608301526134eb81866130a7565b905081810360808301526134ff81856130a7565b905061350e60a08301846127b1565b979650505050505050565b7f596f7520617265206e6f7420526567697374657265642061732053656c6c657260008201527f2100000000000000000000000000000000000000000000000000000000000000602082015250565b6000613575602183612725565b915061358082613519565b604082019050919050565b600060208201905081810360008301526135a481613568565b9050919050565b600060e08201905081810360008301526135c5818a6130a7565b905081810360208301526135d981896130a7565b905081810360408301526135ed81886130a7565b90506135fc60608301876127a2565b818103608083015261360e81866130a7565b905061361d60a08301856127a2565b61362a60c08301846127b1565b9897505050505050505056fea2646970667358221220b8aecb76419a4790841272f6e4cb280c7f70c68c861ef3ed8c5bf5067b06685864736f6c634300080e0033",
  "immutableReferences": {},
  "source": "// SPDX-License-Identifier: MIT\r\npragma solidity ^0.8.0;\r\n\r\nimport \"./ProductContract.sol\";\r\nimport \"./UserContract.sol\";\r\nimport \"./Library.sol\";\r\n\r\ncontract SupplyChain {\r\n    /*\r\n        The owner of the contract is the deployer\r\n    */\r\n    address _owner;\r\n    address productContractAddress;\r\n    address userContractAddress;\r\n\r\n    ProductContract product;\r\n    UserContract user;\r\n    // address payable public owner;\r\n\r\n    /*\r\n        Set owner of the contract to the deployer\r\n    */\r\n    constructor() {\r\n        _owner = msg.sender;\r\n    }\r\n\r\n    uint id;\r\n    uint purchaseId;\r\n    uint productId;\r\n\r\n    function setProductContractAddress(address add) external {\r\n        require(msg.sender == _owner, \"Unauthorized access!\");\r\n        product = ProductContract(add);\r\n    }\r\n\r\n    function setUserContractAddress(address add) external {\r\n        require(msg.sender == _owner, \"Unauthorized access!\");\r\n        user = UserContract(add);\r\n    }\r\n\r\n    function userSignUp(\r\n        string memory _mongoId,\r\n        string memory _name,\r\n        string memory _email,\r\n        string memory _deliveryAddress,\r\n        string memory _role\r\n    ) public { //payable\r\n        user.userSignUp(\r\n            _mongoId,\r\n            _name,\r\n            _email,\r\n            _deliveryAddress,\r\n            _role,\r\n            msg.sender\r\n        );\r\n    }\r\n\r\n    function getUserByAddress(address _userId) public view returns (UserContract.User memory){\r\n        return user.getUserByAddress(_userId);\r\n    }\r\n\r\n    function getAllUser() public view returns (UserContract.UserView[] memory){\r\n        return user.getAllUser();\r\n    }\r\n\r\n    function addProduct(\r\n        string memory _mongoId,\r\n        string memory _productName,\r\n        string memory _category,\r\n        uint _price,\r\n        string memory _description,\r\n        uint _instanceNumber\r\n    ) public {\r\n        require(user.getUserByAddress(msg.sender).isCreated, \"You are not Registered as Seller!\");\r\n        // require(users[msg.sender].isCreated, \"You are not Registered as Seller\"); //check user role\r\n\r\n        product.addProduct(\r\n            _mongoId,\r\n            _productName,\r\n            _category,\r\n            _price,\r\n            _description,\r\n            _instanceNumber,\r\n            msg.sender\r\n        );\r\n    }\r\n\r\n    function getProductById(uint _productId) public view returns (ProductContract.Product memory){\r\n        return product.getProductById(_productId);\r\n    }\r\n\r\n    function getAllProducts() public view returns (ProductContract.ProductView[] memory){\r\n        return product.getAllProducts();\r\n    }\r\n\r\n    function getUserProducts() public view returns (ProductContract.ProductView[] memory){\r\n        return product.getUserProducts(msg.sender);\r\n    }\r\n\r\n    function getProductHistory(uint _productId) public view returns(ProductContract.History[] memory) {\r\n        return product.getProductHistory(_productId);\r\n    }\r\n\r\n    function changeProductAvailability(uint _productId, bool _available) public {\r\n        return product.changeProductAvailability(_productId, _available, msg.sender);\r\n    }\r\n\r\n    function buyProduct(uint _productId) public { //payable\r\n        require(user.getUserByAddress(msg.sender).isCreated, \"You Must Be Registered to Buy!\");\r\n        product.buyProduct(_productId, msg.sender, user.getUserByAddress(msg.sender).deliveryAddress);\r\n    }\r\n\r\n    function getUserOrders() public view returns(ProductContract.OrderShipment[] memory) {\r\n        return product.getUserOrders(msg.sender);\r\n    }\r\n\r\n    function getUserOrderDetail (uint _purchaseId) public view returns (ProductContract.OrderShipment memory) {\r\n        return product.getUserOrderDetail(_purchaseId, msg.sender);\r\n    }\r\n\r\n    function getSellerOrders() public view returns (ProductContract.OrderShipment[] memory) {\r\n        return product.getSellerOrders(msg.sender);\r\n    }\r\n\r\n    function getSellerOrderDetail (uint _purchaseId) public view returns (ProductContract.OrderShipment memory) {\r\n        return product.getSellerOrderDetail(_purchaseId, msg.sender);\r\n    }\r\n\r\n    function updateShipmentStatus(\r\n        uint _purchaseId,\r\n        string memory _newShipmentStatus,\r\n        address deliveryUserAddress\r\n    ) public {\r\n\r\n        product.updateShipmentStatus(\r\n            _purchaseId,\r\n            _newShipmentStatus,\r\n            deliveryUserAddress,\r\n            msg.sender,\r\n            user.getUserByAddress(deliveryUserAddress).role\r\n        );\r\n    }\r\n\r\n    function confirmUserOrder(uint _purchaseId) public {\r\n        product.confirmUserOrder(_purchaseId, msg.sender);\r\n    }\r\n\r\n    function cancelOrder(uint _purchaseId) public { //payable\r\n        product.cancelOrder(_purchaseId, msg.sender);\r\n    }\r\n\r\n}",
  "sourcePath": "C:\\Users\\nathn\\Desktop\\final project\\blockchain-api\\blockchain-contracts\\contracts\\SupplyChain.sol",
  "compiler": {
    "name": "solc",
    "version": "0.8.14+commit.80d49f37.Emscripten.clang"
  },
  "schemaVersion": "3.4.7",
  "updatedAt": "2022-05-25T12:42:14.871Z",
  "networkType": "ethereum",
  "devdoc": {
    "kind": "dev",
    "methods": {},
    "version": 1
  },
  "userdoc": {
    "kind": "user",
    "methods": {},
    "version": 1
  }
}