{
  "contractName": "SupplyChain",
  "abi": [
    {
      "inputs": [],
      "stateMutability": "nonpayable",
      "type": "constructor"
    },
    {
      "inputs": [],
      "name": "productContractAddress",
      "outputs": [
        {
          "internalType": "address",
          "name": "",
          "type": "address"
        }
      ],
      "stateMutability": "view",
      "type": "function"
    },
    {
      "inputs": [],
      "name": "userContractAddress",
      "outputs": [
        {
          "internalType": "address",
          "name": "",
          "type": "address"
        }
      ],
      "stateMutability": "view",
      "type": "function"
    },
    {
      "inputs": [
        {
          "internalType": "address",
          "name": "add",
          "type": "address"
        }
      ],
      "name": "setProductContractAddress",
      "outputs": [],
      "stateMutability": "nonpayable",
      "type": "function"
    },
    {
      "inputs": [
        {
          "internalType": "address",
          "name": "add",
          "type": "address"
        }
      ],
      "name": "setUserContractAddress",
      "outputs": [],
      "stateMutability": "nonpayable",
      "type": "function"
    },
    {
      "inputs": [
        {
          "internalType": "string",
          "name": "_mongoId",
          "type": "string"
        },
        {
          "internalType": "string",
          "name": "_name",
          "type": "string"
        },
        {
          "internalType": "string",
          "name": "_email",
          "type": "string"
        },
        {
          "internalType": "string",
          "name": "_deliveryAddress",
          "type": "string"
        },
        {
          "internalType": "string",
          "name": "_role",
          "type": "string"
        }
      ],
      "name": "userSignUp",
      "outputs": [],
      "stateMutability": "nonpayable",
      "type": "function"
    },
    {
      "inputs": [
        {
          "internalType": "address",
          "name": "_userId",
          "type": "address"
        }
      ],
      "name": "getUserByAddress",
      "outputs": [
        {
          "components": [
            {
              "internalType": "address",
              "name": "id",
              "type": "address"
            },
            {
              "internalType": "string",
              "name": "mongoId",
              "type": "string"
            },
            {
              "internalType": "string",
              "name": "name",
              "type": "string"
            },
            {
              "internalType": "string",
              "name": "email",
              "type": "string"
            },
            {
              "internalType": "string",
              "name": "deliveryAddress",
              "type": "string"
            },
            {
              "internalType": "string",
              "name": "role",
              "type": "string"
            },
            {
              "internalType": "bool",
              "name": "isCreated",
              "type": "bool"
            },
            {
              "internalType": "uint256",
              "name": "createdAt",
              "type": "uint256"
            },
            {
              "internalType": "uint256",
              "name": "updatedAt",
              "type": "uint256"
            }
          ],
          "internalType": "struct UserContract.User",
          "name": "",
          "type": "tuple"
        }
      ],
      "stateMutability": "view",
      "type": "function"
    },
    {
      "inputs": [],
      "name": "getAllUser",
      "outputs": [
        {
          "components": [
            {
              "internalType": "string",
              "name": "mongoId",
              "type": "string"
            },
            {
              "internalType": "string",
              "name": "name",
              "type": "string"
            },
            {
              "internalType": "string",
              "name": "email",
              "type": "string"
            },
            {
              "internalType": "string",
              "name": "deliveryAddress",
              "type": "string"
            },
            {
              "internalType": "address",
              "name": "id",
              "type": "address"
            }
          ],
          "internalType": "struct UserContract.UserView[]",
          "name": "",
          "type": "tuple[]"
        }
      ],
      "stateMutability": "view",
      "type": "function"
    },
    {
      "inputs": [
        {
          "internalType": "string",
          "name": "_mongoId",
          "type": "string"
        },
        {
          "internalType": "string",
          "name": "_productName",
          "type": "string"
        },
        {
          "internalType": "string",
          "name": "_category",
          "type": "string"
        },
        {
          "internalType": "uint256",
          "name": "_price",
          "type": "uint256"
        },
        {
          "internalType": "string",
          "name": "_description",
          "type": "string"
        },
        {
          "internalType": "uint256",
          "name": "_instanceNumber",
          "type": "uint256"
        }
      ],
      "name": "addProduct",
      "outputs": [],
      "stateMutability": "nonpayable",
      "type": "function"
    },
    {
      "inputs": [
        {
          "internalType": "uint256",
          "name": "_productId",
          "type": "uint256"
        }
      ],
      "name": "getProductById",
      "outputs": [
        {
          "components": [
            {
              "internalType": "uint256",
              "name": "productId",
              "type": "uint256"
            },
            {
              "internalType": "string",
              "name": "mongoId",
              "type": "string"
            },
            {
              "internalType": "string",
              "name": "productName",
              "type": "string"
            },
            {
              "internalType": "string",
              "name": "category",
              "type": "string"
            },
            {
              "internalType": "uint256",
              "name": "price",
              "type": "uint256"
            },
            {
              "internalType": "string",
              "name": "description",
              "type": "string"
            },
            {
              "internalType": "address",
              "name": "owner",
              "type": "address"
            },
            {
              "internalType": "bool",
              "name": "isAvailable",
              "type": "bool"
            },
            {
              "internalType": "bool",
              "name": "isCreated",
              "type": "bool"
            },
            {
              "internalType": "uint256",
              "name": "createdAt",
              "type": "uint256"
            },
            {
              "internalType": "uint256",
              "name": "updatedAt",
              "type": "uint256"
            }
          ],
          "internalType": "struct ProductContract.Product",
          "name": "",
          "type": "tuple"
        }
      ],
      "stateMutability": "view",
      "type": "function"
    },
    {
      "inputs": [],
      "name": "getAllProducts",
      "outputs": [
        {
          "components": [
            {
              "internalType": "uint256",
              "name": "productId",
              "type": "uint256"
            },
            {
              "internalType": "string",
              "name": "mongoId",
              "type": "string"
            },
            {
              "internalType": "string",
              "name": "name",
              "type": "string"
            },
            {
              "internalType": "uint256",
              "name": "price",
              "type": "uint256"
            },
            {
              "internalType": "string",
              "name": "category",
              "type": "string"
            },
            {
              "internalType": "string",
              "name": "description",
              "type": "string"
            },
            {
              "internalType": "address",
              "name": "owner",
              "type": "address"
            }
          ],
          "internalType": "struct ProductContract.ProductView[]",
          "name": "",
          "type": "tuple[]"
        }
      ],
      "stateMutability": "view",
      "type": "function"
    },
    {
      "inputs": [],
      "name": "getUserProducts",
      "outputs": [
        {
          "components": [
            {
              "internalType": "uint256",
              "name": "productId",
              "type": "uint256"
            },
            {
              "internalType": "string",
              "name": "mongoId",
              "type": "string"
            },
            {
              "internalType": "string",
              "name": "name",
              "type": "string"
            },
            {
              "internalType": "uint256",
              "name": "price",
              "type": "uint256"
            },
            {
              "internalType": "string",
              "name": "category",
              "type": "string"
            },
            {
              "internalType": "string",
              "name": "description",
              "type": "string"
            },
            {
              "internalType": "address",
              "name": "owner",
              "type": "address"
            }
          ],
          "internalType": "struct ProductContract.ProductView[]",
          "name": "",
          "type": "tuple[]"
        }
      ],
      "stateMutability": "view",
      "type": "function"
    },
    {
      "inputs": [
        {
          "internalType": "uint256",
          "name": "_productId",
          "type": "uint256"
        }
      ],
      "name": "getProductHistory",
      "outputs": [
        {
          "components": [
            {
              "internalType": "address",
              "name": "prevOwner",
              "type": "address"
            },
            {
              "internalType": "uint256",
              "name": "productId",
              "type": "uint256"
            },
            {
              "internalType": "string",
              "name": "mongoId",
              "type": "string"
            },
            {
              "internalType": "string",
              "name": "productName",
              "type": "string"
            },
            {
              "internalType": "string",
              "name": "category",
              "type": "string"
            },
            {
              "internalType": "uint256",
              "name": "price",
              "type": "uint256"
            },
            {
              "internalType": "string",
              "name": "description",
              "type": "string"
            },
            {
              "internalType": "uint256",
              "name": "transferDate",
              "type": "uint256"
            }
          ],
          "internalType": "struct ProductContract.History[]",
          "name": "",
          "type": "tuple[]"
        }
      ],
      "stateMutability": "view",
      "type": "function"
    },
    {
      "inputs": [
        {
          "internalType": "uint256",
          "name": "_productId",
          "type": "uint256"
        },
        {
          "internalType": "bool",
          "name": "_available",
          "type": "bool"
        }
      ],
      "name": "changeProductAvailability",
      "outputs": [],
      "stateMutability": "nonpayable",
      "type": "function"
    },
    {
      "inputs": [
        {
          "internalType": "uint256",
          "name": "_productId",
          "type": "uint256"
        }
      ],
      "name": "buyProduct",
      "outputs": [],
      "stateMutability": "nonpayable",
      "type": "function"
    },
    {
      "inputs": [],
      "name": "getUserOrders",
      "outputs": [
        {
          "components": [
            {
              "internalType": "uint256",
              "name": "purchaseId",
              "type": "uint256"
            },
            {
              "internalType": "uint256",
              "name": "productId",
              "type": "uint256"
            },
            {
              "internalType": "string",
              "name": "mongoId",
              "type": "string"
            },
            {
              "internalType": "string",
              "name": "shipmentStatus",
              "type": "string"
            },
            {
              "internalType": "string",
              "name": "deliveryAddress",
              "type": "string"
            },
            {
              "internalType": "address",
              "name": "orderedBy",
              "type": "address"
            },
            {
              "internalType": "bool",
              "name": "isConfirmed",
              "type": "bool"
            },
            {
              "internalType": "bool",
              "name": "isActive",
              "type": "bool"
            },
            {
              "internalType": "bool",
              "name": "isCanceled",
              "type": "bool"
            },
            {
              "internalType": "uint256",
              "name": "createdAt",
              "type": "uint256"
            },
            {
              "internalType": "uint256",
              "name": "updatedAt",
              "type": "uint256"
            }
          ],
          "internalType": "struct ProductContract.OrderShipment[]",
          "name": "",
          "type": "tuple[]"
        }
      ],
      "stateMutability": "view",
      "type": "function"
    },
    {
      "inputs": [
        {
          "internalType": "uint256",
          "name": "_purchaseId",
          "type": "uint256"
        }
      ],
      "name": "getUserOrderDetail",
      "outputs": [
        {
          "components": [
            {
              "internalType": "uint256",
              "name": "purchaseId",
              "type": "uint256"
            },
            {
              "internalType": "uint256",
              "name": "productId",
              "type": "uint256"
            },
            {
              "internalType": "string",
              "name": "mongoId",
              "type": "string"
            },
            {
              "internalType": "string",
              "name": "shipmentStatus",
              "type": "string"
            },
            {
              "internalType": "string",
              "name": "deliveryAddress",
              "type": "string"
            },
            {
              "internalType": "address",
              "name": "orderedBy",
              "type": "address"
            },
            {
              "internalType": "bool",
              "name": "isConfirmed",
              "type": "bool"
            },
            {
              "internalType": "bool",
              "name": "isActive",
              "type": "bool"
            },
            {
              "internalType": "bool",
              "name": "isCanceled",
              "type": "bool"
            },
            {
              "internalType": "uint256",
              "name": "createdAt",
              "type": "uint256"
            },
            {
              "internalType": "uint256",
              "name": "updatedAt",
              "type": "uint256"
            }
          ],
          "internalType": "struct ProductContract.OrderShipment",
          "name": "",
          "type": "tuple"
        }
      ],
      "stateMutability": "view",
      "type": "function"
    },
    {
      "inputs": [],
      "name": "getSellerOrders",
      "outputs": [
        {
          "components": [
            {
              "internalType": "uint256",
              "name": "purchaseId",
              "type": "uint256"
            },
            {
              "internalType": "uint256",
              "name": "productId",
              "type": "uint256"
            },
            {
              "internalType": "string",
              "name": "mongoId",
              "type": "string"
            },
            {
              "internalType": "string",
              "name": "shipmentStatus",
              "type": "string"
            },
            {
              "internalType": "string",
              "name": "deliveryAddress",
              "type": "string"
            },
            {
              "internalType": "address",
              "name": "orderedBy",
              "type": "address"
            },
            {
              "internalType": "bool",
              "name": "isConfirmed",
              "type": "bool"
            },
            {
              "internalType": "bool",
              "name": "isActive",
              "type": "bool"
            },
            {
              "internalType": "bool",
              "name": "isCanceled",
              "type": "bool"
            },
            {
              "internalType": "uint256",
              "name": "createdAt",
              "type": "uint256"
            },
            {
              "internalType": "uint256",
              "name": "updatedAt",
              "type": "uint256"
            }
          ],
          "internalType": "struct ProductContract.OrderShipment[]",
          "name": "",
          "type": "tuple[]"
        }
      ],
      "stateMutability": "view",
      "type": "function"
    },
    {
      "inputs": [
        {
          "internalType": "uint256",
          "name": "_purchaseId",
          "type": "uint256"
        }
      ],
      "name": "getSellerOrderDetail",
      "outputs": [
        {
          "components": [
            {
              "internalType": "uint256",
              "name": "purchaseId",
              "type": "uint256"
            },
            {
              "internalType": "uint256",
              "name": "productId",
              "type": "uint256"
            },
            {
              "internalType": "string",
              "name": "mongoId",
              "type": "string"
            },
            {
              "internalType": "string",
              "name": "shipmentStatus",
              "type": "string"
            },
            {
              "internalType": "string",
              "name": "deliveryAddress",
              "type": "string"
            },
            {
              "internalType": "address",
              "name": "orderedBy",
              "type": "address"
            },
            {
              "internalType": "bool",
              "name": "isConfirmed",
              "type": "bool"
            },
            {
              "internalType": "bool",
              "name": "isActive",
              "type": "bool"
            },
            {
              "internalType": "bool",
              "name": "isCanceled",
              "type": "bool"
            },
            {
              "internalType": "uint256",
              "name": "createdAt",
              "type": "uint256"
            },
            {
              "internalType": "uint256",
              "name": "updatedAt",
              "type": "uint256"
            }
          ],
          "internalType": "struct ProductContract.OrderShipment",
          "name": "",
          "type": "tuple"
        }
      ],
      "stateMutability": "view",
      "type": "function"
    },
    {
      "inputs": [
        {
          "internalType": "uint256",
          "name": "_purchaseId",
          "type": "uint256"
        },
        {
          "internalType": "string",
          "name": "_newShipmentStatus",
          "type": "string"
        },
        {
          "internalType": "address",
          "name": "deliveryUserAddress",
          "type": "address"
        }
      ],
      "name": "updateShipmentStatus",
      "outputs": [],
      "stateMutability": "nonpayable",
      "type": "function"
    },
    {
      "inputs": [
        {
          "internalType": "uint256",
          "name": "_purchaseId",
          "type": "uint256"
        }
      ],
      "name": "confirmUserOrder",
      "outputs": [],
      "stateMutability": "nonpayable",
      "type": "function"
    },
    {
      "inputs": [
        {
          "internalType": "uint256",
          "name": "_purchaseId",
          "type": "uint256"
        }
      ],
      "name": "cancelOrder",
      "outputs": [],
      "stateMutability": "nonpayable",
      "type": "function"
    }
  ],
  "bytecode": "0x608060405234801561001057600080fd5b50336000806101000a81548173ffffffffffffffffffffffffffffffffffffffff021916908373ffffffffffffffffffffffffffffffffffffffff16021790555061370a806100606000396000f3fe608060405234801561001057600080fd5b50600436106101375760003560e01c80635fe5de7f116100b85780639107cc8e1161007c5780639107cc8e1461034e578063aba7b3141461036a578063d92aabfc14610388578063d9b7b8a4146103a6578063dd436405146103c2578063fa3747a2146103de57610137565b80635fe5de7f146102aa57806369c212f6146102c6578063700db752146102f657806377408f21146103145780638642269e1461033257610137565b80633f70c2b4116100ff5780633f70c2b4146101f457806347531df814610224578063514fcac71461024257806356f61b591461025e57806357a096a11461027a57610137565b806302ee3a521461013c5780631d7e37ad1461015a5780631d7e48f5146101765780631e4b919b146101a65780633f019c06146101c4575b600080fd5b6101446103fa565b6040516101519190611774565b60405180910390f35b610174600480360381019061016f91906117d6565b610497565b005b610190600480360381019061018b919061182f565b610569565b60405161019d9190611974565b60405180910390f35b6101ae61061b565b6040516101bb9190611b55565b60405180910390f35b6101de60048036038101906101d9919061182f565b6106c3565b6040516101eb9190611974565b60405180910390f35b61020e6004803603810190610209919061182f565b610775565b60405161021b9190611c7b565b60405180910390f35b61022c610825565b6040516102399190611dea565b60405180910390f35b61025c6004803603810190610257919061182f565b6108c2565b005b61027860048036038101906102739190611f41565b610954565b005b610294600480360381019061028f919061182f565b610a92565b6040516102a19190612137565b60405180910390f35b6102c460048036038101906102bf9190612185565b610b3c565b005b6102e060048036038101906102db91906117d6565b610bd1565b6040516102ed91906122a6565b60405180910390f35b6102fe610c81565b60405161030b9190611b55565b60405180910390f35b61031c610d29565b60405161032991906122d7565b60405180910390f35b61034c6004803603810190610347919061182f565b610d4f565b005b610368600480360381019061036391906122f2565b610f6b565b005b610372611009565b60405161037f9190611774565b60405180910390f35b6103906110b1565b60405161039d91906122d7565b60405180910390f35b6103c060048036038101906103bb91906123f9565b6110d7565b005b6103dc60048036038101906103d7919061182f565b61125c565b005b6103f860048036038101906103f391906117d6565b6112ee565b005b6060600360009054906101000a900473ffffffffffffffffffffffffffffffffffffffff1673ffffffffffffffffffffffffffffffffffffffff166302ee3a526040518163ffffffff1660e01b8152600401600060405180830381865afa158015610469573d6000803e3d6000fd5b505050506040513d6000823e3d601f19601f8201168201806040525081019061049291906127a4565b905090565b60008054906101000a900473ffffffffffffffffffffffffffffffffffffffff1673ffffffffffffffffffffffffffffffffffffffff163373ffffffffffffffffffffffffffffffffffffffff1614610525576040517f08c379a000000000000000000000000000000000000000000000000000000000815260040161051c9061284a565b60405180910390fd5b80600460006101000a81548173ffffffffffffffffffffffffffffffffffffffff021916908373ffffffffffffffffffffffffffffffffffffffff16021790555050565b6105716113c0565b600360009054906101000a900473ffffffffffffffffffffffffffffffffffffffff1673ffffffffffffffffffffffffffffffffffffffff16632b84df7283336040518363ffffffff1660e01b81526004016105ce929190612879565b600060405180830381865afa1580156105eb573d6000803e3d6000fd5b505050506040513d6000823e3d601f19601f820116820180604052508101906106149190612a17565b9050919050565b6060600360009054906101000a900473ffffffffffffffffffffffffffffffffffffffff1673ffffffffffffffffffffffffffffffffffffffff166363c69f08336040518263ffffffff1660e01b815260040161067891906122d7565b600060405180830381865afa158015610695573d6000803e3d6000fd5b505050506040513d6000823e3d601f19601f820116820180604052508101906106be9190612b41565b905090565b6106cb6113c0565b600360009054906101000a900473ffffffffffffffffffffffffffffffffffffffff1673ffffffffffffffffffffffffffffffffffffffff1663b687fa8d83336040518363ffffffff1660e01b8152600401610728929190612879565b600060405180830381865afa158015610745573d6000803e3d6000fd5b505050506040513d6000823e3d601f19601f8201168201806040525081019061076e9190612a17565b9050919050565b61077d611436565b600360009054906101000a900473ffffffffffffffffffffffffffffffffffffffff1673ffffffffffffffffffffffffffffffffffffffff16633f70c2b4836040518263ffffffff1660e01b81526004016107d89190612b8a565b600060405180830381865afa1580156107f5573d6000803e3d6000fd5b505050506040513d6000823e3d601f19601f8201168201806040525081019061081e9190612d21565b9050919050565b6060600460009054906101000a900473ffffffffffffffffffffffffffffffffffffffff1673ffffffffffffffffffffffffffffffffffffffff166347531df86040518163ffffffff1660e01b8152600401600060405180830381865afa158015610894573d6000803e3d6000fd5b505050506040513d6000823e3d601f19601f820116820180604052508101906108bd9190612f47565b905090565b600360009054906101000a900473ffffffffffffffffffffffffffffffffffffffff1673ffffffffffffffffffffffffffffffffffffffff16637323a7d382336040518363ffffffff1660e01b815260040161091f929190612879565b600060405180830381600087803b15801561093957600080fd5b505af115801561094d573d6000803e3d6000fd5b5050505050565b600360009054906101000a900473ffffffffffffffffffffffffffffffffffffffff1673ffffffffffffffffffffffffffffffffffffffff16633b34711d84848433600460009054906101000a900473ffffffffffffffffffffffffffffffffffffffff1673ffffffffffffffffffffffffffffffffffffffff166369c212f6886040518263ffffffff1660e01b81526004016109f191906122d7565b600060405180830381865afa158015610a0e573d6000803e3d6000fd5b505050506040513d6000823e3d601f19601f82011682018060405250810190610a3791906130fc565b60a001516040518663ffffffff1660e01b8152600401610a5b95949392919061317e565b600060405180830381600087803b158015610a7557600080fd5b505af1158015610a89573d6000803e3d6000fd5b50505050505050565b6060600360009054906101000a900473ffffffffffffffffffffffffffffffffffffffff1673ffffffffffffffffffffffffffffffffffffffff166357a096a1836040518263ffffffff1660e01b8152600401610aef9190612b8a565b600060405180830381865afa158015610b0c573d6000803e3d6000fd5b505050506040513d6000823e3d601f19601f82011682018060405250810190610b3591906133fa565b9050919050565b600360009054906101000a900473ffffffffffffffffffffffffffffffffffffffff1673ffffffffffffffffffffffffffffffffffffffff1663506f05318383336040518463ffffffff1660e01b8152600401610b9b93929190613452565b600060405180830381600087803b158015610bb557600080fd5b505af1158015610bc9573d6000803e3d6000fd5b505050505050565b610bd96114aa565b600460009054906101000a900473ffffffffffffffffffffffffffffffffffffffff1673ffffffffffffffffffffffffffffffffffffffff166369c212f6836040518263ffffffff1660e01b8152600401610c3491906122d7565b600060405180830381865afa158015610c51573d6000803e3d6000fd5b505050506040513d6000823e3d601f19601f82011682018060405250810190610c7a91906130fc565b9050919050565b6060600360009054906101000a900473ffffffffffffffffffffffffffffffffffffffff1673ffffffffffffffffffffffffffffffffffffffff1663e4cbac40336040518263ffffffff1660e01b8152600401610cde91906122d7565b600060405180830381865afa158015610cfb573d6000803e3d6000fd5b505050506040513d6000823e3d601f19601f82011682018060405250810190610d249190612b41565b905090565b600160009054906101000a900473ffffffffffffffffffffffffffffffffffffffff1681565b600460009054906101000a900473ffffffffffffffffffffffffffffffffffffffff1673ffffffffffffffffffffffffffffffffffffffff166369c212f6336040518263ffffffff1660e01b8152600401610daa91906122d7565b600060405180830381865afa158015610dc7573d6000803e3d6000fd5b505050506040513d6000823e3d601f19601f82011682018060405250810190610df091906130fc565b60c00151610e33576040517f08c379a0000000000000000000000000000000000000000000000000000000008152600401610e2a906134d5565b60405180910390fd5b600360009054906101000a900473ffffffffffffffffffffffffffffffffffffffff1673ffffffffffffffffffffffffffffffffffffffff1663021574448233600460009054906101000a900473ffffffffffffffffffffffffffffffffffffffff1673ffffffffffffffffffffffffffffffffffffffff166369c212f6336040518263ffffffff1660e01b8152600401610ece91906122d7565b600060405180830381865afa158015610eeb573d6000803e3d6000fd5b505050506040513d6000823e3d601f19601f82011682018060405250810190610f1491906130fc565b608001516040518463ffffffff1660e01b8152600401610f36939291906134f5565b600060405180830381600087803b158015610f5057600080fd5b505af1158015610f64573d6000803e3d6000fd5b5050505050565b600460009054906101000a900473ffffffffffffffffffffffffffffffffffffffff1673ffffffffffffffffffffffffffffffffffffffff1663cd973ffc8686868686336040518763ffffffff1660e01b8152600401610fd096959493929190613533565b600060405180830381600087803b158015610fea57600080fd5b505af1158015610ffe573d6000803e3d6000fd5b505050505050505050565b6060600360009054906101000a900473ffffffffffffffffffffffffffffffffffffffff1673ffffffffffffffffffffffffffffffffffffffff1663fee7f53b336040518263ffffffff1660e01b815260040161106691906122d7565b600060405180830381865afa158015611083573d6000803e3d6000fd5b505050506040513d6000823e3d601f19601f820116820180604052508101906110ac91906127a4565b905090565b600260009054906101000a900473ffffffffffffffffffffffffffffffffffffffff1681565b600460009054906101000a900473ffffffffffffffffffffffffffffffffffffffff1673ffffffffffffffffffffffffffffffffffffffff166369c212f6336040518263ffffffff1660e01b815260040161113291906122d7565b600060405180830381865afa15801561114f573d6000803e3d6000fd5b505050506040513d6000823e3d601f19601f8201168201806040525081019061117891906130fc565b60c001516111bb576040517f08c379a00000000000000000000000000000000000000000000000000000000081526004016111b290613629565b60405180910390fd5b600360009054906101000a900473ffffffffffffffffffffffffffffffffffffffff1673ffffffffffffffffffffffffffffffffffffffff1663995192fe878787878787336040518863ffffffff1660e01b81526004016112229796959493929190613649565b600060405180830381600087803b15801561123c57600080fd5b505af1158015611250573d6000803e3d6000fd5b50505050505050505050565b600360009054906101000a900473ffffffffffffffffffffffffffffffffffffffff1673ffffffffffffffffffffffffffffffffffffffff1663dec9e20982336040518363ffffffff1660e01b81526004016112b9929190612879565b600060405180830381600087803b1580156112d357600080fd5b505af11580156112e7573d6000803e3d6000fd5b5050505050565b60008054906101000a900473ffffffffffffffffffffffffffffffffffffffff1673ffffffffffffffffffffffffffffffffffffffff163373ffffffffffffffffffffffffffffffffffffffff161461137c576040517f08c379a00000000000000000000000000000000000000000000000000000000081526004016113739061284a565b60405180910390fd5b80600360006101000a81548173ffffffffffffffffffffffffffffffffffffffff021916908373ffffffffffffffffffffffffffffffffffffffff16021790555050565b6040518061016001604052806000815260200160008152602001606081526020016060815260200160608152602001600073ffffffffffffffffffffffffffffffffffffffff16815260200160001515815260200160001515815260200160001515815260200160008152602001600081525090565b604051806101600160405280600081526020016060815260200160608152602001606081526020016000815260200160608152602001600073ffffffffffffffffffffffffffffffffffffffff16815260200160001515815260200160001515815260200160008152602001600081525090565b604051806101200160405280600073ffffffffffffffffffffffffffffffffffffffff168152602001606081526020016060815260200160608152602001606081526020016060815260200160001515815260200160008152602001600081525090565b600081519050919050565b600082825260208201905092915050565b6000819050602082019050919050565b6000819050919050565b61154d8161153a565b82525050565b600081519050919050565b600082825260208201905092915050565b60005b8381101561158d578082015181840152602081019050611572565b8381111561159c576000848401525b50505050565b6000601f19601f8301169050919050565b60006115be82611553565b6115c8818561155e565b93506115d881856020860161156f565b6115e1816115a2565b840191505092915050565b600073ffffffffffffffffffffffffffffffffffffffff82169050919050565b6000611617826115ec565b9050919050565b6116278161160c565b82525050565b600060e0830160008301516116456000860182611544565b506020830151848203602086015261165d82826115b3565b9150506040830151848203604086015261167782826115b3565b915050606083015161168c6060860182611544565b50608083015184820360808601526116a482826115b3565b91505060a083015184820360a08601526116be82826115b3565b91505060c08301516116d360c086018261161e565b508091505092915050565b60006116ea838361162d565b905092915050565b6000602082019050919050565b600061170a8261150e565b6117148185611519565b9350836020820285016117268561152a565b8060005b85811015611762578484038952815161174385826116de565b945061174e836116f2565b925060208a0199505060018101905061172a565b50829750879550505050505092915050565b6000602082019050818103600083015261178e81846116ff565b905092915050565b6000604051905090565b600080fd5b600080fd5b6117b38161160c565b81146117be57600080fd5b50565b6000813590506117d0816117aa565b92915050565b6000602082840312156117ec576117eb6117a0565b5b60006117fa848285016117c1565b91505092915050565b61180c8161153a565b811461181757600080fd5b50565b60008135905061182981611803565b92915050565b600060208284031215611845576118446117a0565b5b60006118538482850161181a565b91505092915050565b60008115159050919050565b6118718161185c565b82525050565b6000610160830160008301516118906000860182611544565b5060208301516118a36020860182611544565b50604083015184820360408601526118bb82826115b3565b915050606083015184820360608601526118d582826115b3565b915050608083015184820360808601526118ef82826115b3565b91505060a083015161190460a086018261161e565b5060c083015161191760c0860182611868565b5060e083015161192a60e0860182611868565b5061010083015161193f610100860182611868565b50610120830151611954610120860182611544565b50610140830151611969610140860182611544565b508091505092915050565b6000602082019050818103600083015261198e8184611877565b905092915050565b600081519050919050565b600082825260208201905092915050565b6000819050602082019050919050565b6000610160830160008301516119db6000860182611544565b5060208301516119ee6020860182611544565b5060408301518482036040860152611a0682826115b3565b91505060608301518482036060860152611a2082826115b3565b91505060808301518482036080860152611a3a82826115b3565b91505060a0830151611a4f60a086018261161e565b5060c0830151611a6260c0860182611868565b5060e0830151611a7560e0860182611868565b50610100830151611a8a610100860182611868565b50610120830151611a9f610120860182611544565b50610140830151611ab4610140860182611544565b508091505092915050565b6000611acb83836119c2565b905092915050565b6000602082019050919050565b6000611aeb82611996565b611af581856119a1565b935083602082028501611b07856119b2565b8060005b85811015611b435784840389528151611b248582611abf565b9450611b2f83611ad3565b925060208a01995050600181019050611b0b565b50829750879550505050505092915050565b60006020820190508181036000830152611b6f8184611ae0565b905092915050565b600061016083016000830151611b906000860182611544565b5060208301518482036020860152611ba882826115b3565b91505060408301518482036040860152611bc282826115b3565b91505060608301518482036060860152611bdc82826115b3565b9150506080830151611bf16080860182611544565b5060a083015184820360a0860152611c0982826115b3565b91505060c0830151611c1e60c086018261161e565b5060e0830151611c3160e0860182611868565b50610100830151611c46610100860182611868565b50610120830151611c5b610120860182611544565b50610140830151611c70610140860182611544565b508091505092915050565b60006020820190508181036000830152611c958184611b77565b905092915050565b600081519050919050565b600082825260208201905092915050565b6000819050602082019050919050565b600060a0830160008301518482036000860152611ce682826115b3565b91505060208301518482036020860152611d0082826115b3565b91505060408301518482036040860152611d1a82826115b3565b91505060608301518482036060860152611d3482826115b3565b9150506080830151611d49608086018261161e565b508091505092915050565b6000611d608383611cc9565b905092915050565b6000602082019050919050565b6000611d8082611c9d565b611d8a8185611ca8565b935083602082028501611d9c85611cb9565b8060005b85811015611dd85784840389528151611db98582611d54565b9450611dc483611d68565b925060208a01995050600181019050611da0565b50829750879550505050505092915050565b60006020820190508181036000830152611e048184611d75565b905092915050565b600080fd5b600080fd5b7f4e487b7100000000000000000000000000000000000000000000000000000000600052604160045260246000fd5b611e4e826115a2565b810181811067ffffffffffffffff82111715611e6d57611e6c611e16565b5b80604052505050565b6000611e80611796565b9050611e8c8282611e45565b919050565b600067ffffffffffffffff821115611eac57611eab611e16565b5b611eb5826115a2565b9050602081019050919050565b82818337600083830152505050565b6000611ee4611edf84611e91565b611e76565b905082815260208101848484011115611f0057611eff611e11565b5b611f0b848285611ec2565b509392505050565b600082601f830112611f2857611f27611e0c565b5b8135611f38848260208601611ed1565b91505092915050565b600080600060608486031215611f5a57611f596117a0565b5b6000611f688682870161181a565b935050602084013567ffffffffffffffff811115611f8957611f886117a5565b5b611f9586828701611f13565b9250506040611fa6868287016117c1565b9150509250925092565b600081519050919050565b600082825260208201905092915050565b6000819050602082019050919050565b600061010083016000830151611ff5600086018261161e565b5060208301516120086020860182611544565b506040830151848203604086015261202082826115b3565b9150506060830151848203606086015261203a82826115b3565b9150506080830151848203608086015261205482826115b3565b91505060a083015161206960a0860182611544565b5060c083015184820360c086015261208182826115b3565b91505060e083015161209660e0860182611544565b508091505092915050565b60006120ad8383611fdc565b905092915050565b6000602082019050919050565b60006120cd82611fb0565b6120d78185611fbb565b9350836020820285016120e985611fcc565b8060005b85811015612125578484038952815161210685826120a1565b9450612111836120b5565b925060208a019950506001810190506120ed565b50829750879550505050505092915050565b6000602082019050818103600083015261215181846120c2565b905092915050565b6121628161185c565b811461216d57600080fd5b50565b60008135905061217f81612159565b92915050565b6000806040838503121561219c5761219b6117a0565b5b60006121aa8582860161181a565b92505060206121bb85828601612170565b9150509250929050565b6000610120830160008301516121de600086018261161e565b50602083015184820360208601526121f682826115b3565b9150506040830151848203604086015261221082826115b3565b9150506060830151848203606086015261222a82826115b3565b9150506080830151848203608086015261224482826115b3565b91505060a083015184820360a086015261225e82826115b3565b91505060c083015161227360c0860182611868565b5060e083015161228660e0860182611544565b5061010083015161229b610100860182611544565b508091505092915050565b600060208201905081810360008301526122c081846121c5565b905092915050565b6122d18161160c565b82525050565b60006020820190506122ec60008301846122c8565b92915050565b600080600080600060a0868803121561230e5761230d6117a0565b5b600086013567ffffffffffffffff81111561232c5761232b6117a5565b5b61233888828901611f13565b955050602086013567ffffffffffffffff811115612359576123586117a5565b5b61236588828901611f13565b945050604086013567ffffffffffffffff811115612386576123856117a5565b5b61239288828901611f13565b935050606086013567ffffffffffffffff8111156123b3576123b26117a5565b5b6123bf88828901611f13565b925050608086013567ffffffffffffffff8111156123e0576123df6117a5565b5b6123ec88828901611f13565b9150509295509295909350565b60008060008060008060c08789031215612416576124156117a0565b5b600087013567ffffffffffffffff811115612434576124336117a5565b5b61244089828a01611f13565b965050602087013567ffffffffffffffff811115612461576124606117a5565b5b61246d89828a01611f13565b955050604087013567ffffffffffffffff81111561248e5761248d6117a5565b5b61249a89828a01611f13565b94505060606124ab89828a0161181a565b935050608087013567ffffffffffffffff8111156124cc576124cb6117a5565b5b6124d889828a01611f13565b92505060a06124e989828a0161181a565b9150509295509295509295565b600067ffffffffffffffff82111561251157612510611e16565b5b602082029050602081019050919050565b600080fd5b600080fd5b600080fd5b60008151905061254081611803565b92915050565b600061255961255484611e91565b611e76565b90508281526020810184848401111561257557612574611e11565b5b61258084828561156f565b509392505050565b600082601f83011261259d5761259c611e0c565b5b81516125ad848260208601612546565b91505092915050565b6000815190506125c5816117aa565b92915050565b600060e082840312156125e1576125e0612527565b5b6125eb60e0611e76565b905060006125fb84828501612531565b600083015250602082015167ffffffffffffffff81111561261f5761261e61252c565b5b61262b84828501612588565b602083015250604082015167ffffffffffffffff81111561264f5761264e61252c565b5b61265b84828501612588565b604083015250606061266f84828501612531565b606083015250608082015167ffffffffffffffff8111156126935761269261252c565b5b61269f84828501612588565b60808301525060a082015167ffffffffffffffff8111156126c3576126c261252c565b5b6126cf84828501612588565b60a08301525060c06126e3848285016125b6565b60c08301525092915050565b60006127026126fd846124f6565b611e76565b9050808382526020820190506020840283018581111561272557612724612522565b5b835b8181101561276c57805167ffffffffffffffff81111561274a57612749611e0c565b5b80860161275789826125cb565b85526020850194505050602081019050612727565b5050509392505050565b600082601f83011261278b5761278a611e0c565b5b815161279b8482602086016126ef565b91505092915050565b6000602082840312156127ba576127b96117a0565b5b600082015167ffffffffffffffff8111156127d8576127d76117a5565b5b6127e484828501612776565b91505092915050565b600082825260208201905092915050565b7f556e617574686f72697a65642061636365737321000000000000000000000000600082015250565b60006128346014836127ed565b915061283f826127fe565b602082019050919050565b6000602082019050818103600083015261286381612827565b9050919050565b6128738161153a565b82525050565b600060408201905061288e600083018561286a565b61289b60208301846122c8565b9392505050565b6000815190506128b181612159565b92915050565b600061016082840312156128ce576128cd612527565b5b6128d9610160611e76565b905060006128e984828501612531565b60008301525060206128fd84828501612531565b602083015250604082015167ffffffffffffffff8111156129215761292061252c565b5b61292d84828501612588565b604083015250606082015167ffffffffffffffff8111156129515761295061252c565b5b61295d84828501612588565b606083015250608082015167ffffffffffffffff8111156129815761298061252c565b5b61298d84828501612588565b60808301525060a06129a1848285016125b6565b60a08301525060c06129b5848285016128a2565b60c08301525060e06129c9848285016128a2565b60e0830152506101006129de848285016128a2565b610100830152506101206129f484828501612531565b61012083015250610140612a0a84828501612531565b6101408301525092915050565b600060208284031215612a2d57612a2c6117a0565b5b600082015167ffffffffffffffff811115612a4b57612a4a6117a5565b5b612a57848285016128b7565b91505092915050565b600067ffffffffffffffff821115612a7b57612a7a611e16565b5b602082029050602081019050919050565b6000612a9f612a9a84612a60565b611e76565b90508083825260208201905060208402830185811115612ac257612ac1612522565b5b835b81811015612b0957805167ffffffffffffffff811115612ae757612ae6611e0c565b5b808601612af489826128b7565b85526020850194505050602081019050612ac4565b5050509392505050565b600082601f830112612b2857612b27611e0c565b5b8151612b38848260208601612a8c565b91505092915050565b600060208284031215612b5757612b566117a0565b5b600082015167ffffffffffffffff811115612b7557612b746117a5565b5b612b8184828501612b13565b91505092915050565b6000602082019050612b9f600083018461286a565b92915050565b60006101608284031215612bbc57612bbb612527565b5b612bc7610160611e76565b90506000612bd784828501612531565b600083015250602082015167ffffffffffffffff811115612bfb57612bfa61252c565b5b612c0784828501612588565b602083015250604082015167ffffffffffffffff811115612c2b57612c2a61252c565b5b612c3784828501612588565b604083015250606082015167ffffffffffffffff811115612c5b57612c5a61252c565b5b612c6784828501612588565b6060830152506080612c7b84828501612531565b60808301525060a082015167ffffffffffffffff811115612c9f57612c9e61252c565b5b612cab84828501612588565b60a08301525060c0612cbf848285016125b6565b60c08301525060e0612cd3848285016128a2565b60e083015250610100612ce8848285016128a2565b61010083015250610120612cfe84828501612531565b61012083015250610140612d1484828501612531565b6101408301525092915050565b600060208284031215612d3757612d366117a0565b5b600082015167ffffffffffffffff811115612d5557612d546117a5565b5b612d6184828501612ba5565b91505092915050565b600067ffffffffffffffff821115612d8557612d84611e16565b5b602082029050602081019050919050565b600060a08284031215612dac57612dab612527565b5b612db660a0611e76565b9050600082015167ffffffffffffffff811115612dd657612dd561252c565b5b612de284828501612588565b600083015250602082015167ffffffffffffffff811115612e0657612e0561252c565b5b612e1284828501612588565b602083015250604082015167ffffffffffffffff811115612e3657612e3561252c565b5b612e4284828501612588565b604083015250606082015167ffffffffffffffff811115612e6657612e6561252c565b5b612e7284828501612588565b6060830152506080612e86848285016125b6565b60808301525092915050565b6000612ea5612ea084612d6a565b611e76565b90508083825260208201905060208402830185811115612ec857612ec7612522565b5b835b81811015612f0f57805167ffffffffffffffff811115612eed57612eec611e0c565b5b808601612efa8982612d96565b85526020850194505050602081019050612eca565b5050509392505050565b600082601f830112612f2e57612f2d611e0c565b5b8151612f3e848260208601612e92565b91505092915050565b600060208284031215612f5d57612f5c6117a0565b5b600082015167ffffffffffffffff811115612f7b57612f7a6117a5565b5b612f8784828501612f19565b91505092915050565b60006101208284031215612fa757612fa6612527565b5b612fb2610120611e76565b90506000612fc2848285016125b6565b600083015250602082015167ffffffffffffffff811115612fe657612fe561252c565b5b612ff284828501612588565b602083015250604082015167ffffffffffffffff8111156130165761301561252c565b5b61302284828501612588565b604083015250606082015167ffffffffffffffff8111156130465761304561252c565b5b61305284828501612588565b606083015250608082015167ffffffffffffffff8111156130765761307561252c565b5b61308284828501612588565b60808301525060a082015167ffffffffffffffff8111156130a6576130a561252c565b5b6130b284828501612588565b60a08301525060c06130c6848285016128a2565b60c08301525060e06130da84828501612531565b60e0830152506101006130ef84828501612531565b6101008301525092915050565b600060208284031215613112576131116117a0565b5b600082015167ffffffffffffffff8111156131305761312f6117a5565b5b61313c84828501612f90565b91505092915050565b600061315082611553565b61315a81856127ed565b935061316a81856020860161156f565b613173816115a2565b840191505092915050565b600060a082019050613193600083018861286a565b81810360208301526131a58187613145565b90506131b460408301866122c8565b6131c160608301856122c8565b81810360808301526131d38184613145565b90509695505050505050565b600067ffffffffffffffff8211156131fa576131f9611e16565b5b602082029050602081019050919050565b6000610100828403121561322257613221612527565b5b61322d610100611e76565b9050600061323d848285016125b6565b600083015250602061325184828501612531565b602083015250604082015167ffffffffffffffff8111156132755761327461252c565b5b61328184828501612588565b604083015250606082015167ffffffffffffffff8111156132a5576132a461252c565b5b6132b184828501612588565b606083015250608082015167ffffffffffffffff8111156132d5576132d461252c565b5b6132e184828501612588565b60808301525060a06132f584828501612531565b60a08301525060c082015167ffffffffffffffff8111156133195761331861252c565b5b61332584828501612588565b60c08301525060e061333984828501612531565b60e08301525092915050565b6000613358613353846131df565b611e76565b9050808382526020820190506020840283018581111561337b5761337a612522565b5b835b818110156133c257805167ffffffffffffffff8111156133a05761339f611e0c565b5b8086016133ad898261320b565b8552602085019450505060208101905061337d565b5050509392505050565b600082601f8301126133e1576133e0611e0c565b5b81516133f1848260208601613345565b91505092915050565b6000602082840312156134105761340f6117a0565b5b600082015167ffffffffffffffff81111561342e5761342d6117a5565b5b61343a848285016133cc565b91505092915050565b61344c8161185c565b82525050565b6000606082019050613467600083018661286a565b6134746020830185613443565b61348160408301846122c8565b949350505050565b7f596f75204d757374204265205265676973746572656420746f20427579210000600082015250565b60006134bf601e836127ed565b91506134ca82613489565b602082019050919050565b600060208201905081810360008301526134ee816134b2565b9050919050565b600060608201905061350a600083018661286a565b61351760208301856122c8565b81810360408301526135298184613145565b9050949350505050565b600060c082019050818103600083015261354d8189613145565b905081810360208301526135618188613145565b905081810360408301526135758187613145565b905081810360608301526135898186613145565b9050818103608083015261359d8185613145565b90506135ac60a08301846122c8565b979650505050505050565b7f596f7520617265206e6f7420526567697374657265642061732053656c6c657260008201527f2100000000000000000000000000000000000000000000000000000000000000602082015250565b60006136136021836127ed565b915061361e826135b7565b604082019050919050565b6000602082019050818103600083015261364281613606565b9050919050565b600060e0820190508181036000830152613663818a613145565b905081810360208301526136778189613145565b9050818103604083015261368b8188613145565b905061369a606083018761286a565b81810360808301526136ac8186613145565b90506136bb60a083018561286a565b6136c860c08301846122c8565b9897505050505050505056fea26469706673582212201bfbb1e6bfe2e66139bbb7648e05e7550182b3c27e0c04bec9bed6b44b05d06f64736f6c634300080e0033",
  "immutableReferences": {},
  "source": "// SPDX-License-Identifier: MIT\r\npragma solidity ^0.8.0;\r\n\r\nimport \"./ProductContract.sol\";\r\nimport \"./UserContract.sol\";\r\nimport \"./Library.sol\";\r\n\r\ncontract SupplyChain {\r\n    /*\r\n        The owner of the contract is the deployer\r\n    */\r\n    address _owner;\r\n    address public productContractAddress;\r\n    address public userContractAddress;\r\n\r\n    ProductContract product;\r\n    UserContract user;\r\n    // address payable public owner;\r\n\r\n    /*\r\n        Set owner of the contract to the deployer\r\n    */\r\n    constructor() {\r\n        _owner = msg.sender;\r\n    }\r\n\r\n    uint id;\r\n    uint purchaseId;\r\n    uint productId;\r\n\r\n    function setProductContractAddress(address add) external {\r\n        require(msg.sender == _owner, \"Unauthorized access!\");\r\n        product = ProductContract(add);\r\n    }\r\n\r\n    function setUserContractAddress(address add) external {\r\n        require(msg.sender == _owner, \"Unauthorized access!\");\r\n        user = UserContract(add);\r\n    }\r\n\r\n    function userSignUp(\r\n        string memory _mongoId,\r\n        string memory _name,\r\n        string memory _email,\r\n        string memory _deliveryAddress,\r\n        string memory _role\r\n    ) public { //payable\r\n        user.userSignUp(\r\n            _mongoId,\r\n            _name,\r\n            _email,\r\n            _deliveryAddress,\r\n            _role,\r\n            msg.sender\r\n        );\r\n    }\r\n\r\n    function getUserByAddress(address _userId) public view returns (UserContract.User memory){\r\n        return user.getUserByAddress(_userId);\r\n    }\r\n\r\n    function getAllUser() public view returns (UserContract.UserView[] memory){\r\n        return user.getAllUser();\r\n    }\r\n\r\n    function addProduct(\r\n        string memory _mongoId,\r\n        string memory _productName,\r\n        string memory _category,\r\n        uint _price,\r\n        string memory _description,\r\n        uint _instanceNumber\r\n    ) public {\r\n        require(user.getUserByAddress(msg.sender).isCreated, \"You are not Registered as Seller!\");\r\n        // require(users[msg.sender].isCreated, \"You are not Registered as Seller\"); //check user role\r\n\r\n        product.addProduct(\r\n            _mongoId,\r\n            _productName,\r\n            _category,\r\n            _price,\r\n            _description,\r\n            _instanceNumber,\r\n            msg.sender\r\n        );\r\n    }\r\n\r\n    function getProductById(uint _productId) public view returns (ProductContract.Product memory){\r\n        return product.getProductById(_productId);\r\n    }\r\n\r\n    function getAllProducts() public view returns (ProductContract.ProductView[] memory){\r\n        return product.getAllProducts();\r\n    }\r\n\r\n    function getUserProducts() public view returns (ProductContract.ProductView[] memory){\r\n        return product.getUserProducts(msg.sender);\r\n    }\r\n\r\n    function getProductHistory(uint _productId) public view returns(ProductContract.History[] memory) {\r\n        return product.getProductHistory(_productId);\r\n    }\r\n\r\n    function changeProductAvailability(uint _productId, bool _available) public {\r\n        return product.changeProductAvailability(_productId, _available, msg.sender);\r\n    }\r\n\r\n    function buyProduct(uint _productId) public { //payable\r\n        require(user.getUserByAddress(msg.sender).isCreated, \"You Must Be Registered to Buy!\");\r\n        product.buyProduct(_productId, msg.sender, user.getUserByAddress(msg.sender).deliveryAddress);\r\n    }\r\n\r\n    function getUserOrders() public view returns(ProductContract.OrderShipment[] memory) {\r\n        return product.getUserOrders(msg.sender);\r\n    }\r\n\r\n    function getUserOrderDetail (uint _purchaseId) public view returns (ProductContract.OrderShipment memory) {\r\n        return product.getUserOrderDetail(_purchaseId, msg.sender);\r\n    }\r\n\r\n    function getSellerOrders() public view returns (ProductContract.OrderShipment[] memory) {\r\n        return product.getSellerOrders(msg.sender);\r\n    }\r\n\r\n    function getSellerOrderDetail (uint _purchaseId) public view returns (ProductContract.OrderShipment memory) {\r\n        return product.getSellerOrderDetail(_purchaseId, msg.sender);\r\n    }\r\n\r\n    function updateShipmentStatus(\r\n        uint _purchaseId,\r\n        string memory _newShipmentStatus,\r\n        address deliveryUserAddress\r\n    ) public {\r\n\r\n        product.updateShipmentStatus(\r\n            _purchaseId,\r\n            _newShipmentStatus,\r\n            deliveryUserAddress,\r\n            msg.sender,\r\n            user.getUserByAddress(deliveryUserAddress).role\r\n        );\r\n    }\r\n\r\n    function confirmUserOrder(uint _purchaseId) public {\r\n        product.confirmUserOrder(_purchaseId, msg.sender);\r\n    }\r\n\r\n    function cancelOrder(uint _purchaseId) public { //payable\r\n        product.cancelOrder(_purchaseId, msg.sender);\r\n    }\r\n\r\n}",
  "sourcePath": "C:\\Users\\nathn\\Desktop\\final project\\blockchain-api\\blockchain-contracts\\contracts\\SupplyChain.sol",
  "compiler": {
    "name": "solc",
    "version": "0.8.14+commit.80d49f37.Emscripten.clang"
  },
  "schemaVersion": "3.4.7",
  "updatedAt": "2022-05-25T18:09:16.321Z",
  "devdoc": {
    "kind": "dev",
    "methods": {},
    "version": 1
  },
  "userdoc": {
    "kind": "user",
    "methods": {},
    "version": 1
  }
}