{
  "contractName": "UserContract",
  "abi": [
    {
      "inputs": [],
      "stateMutability": "nonpayable",
      "type": "constructor"
    },
    {
      "inputs": [
        {
          "internalType": "uint256",
          "name": "",
          "type": "uint256"
        }
      ],
      "name": "allUsers",
      "outputs": [
        {
          "internalType": "address",
          "name": "",
          "type": "address"
        }
      ],
      "stateMutability": "view",
      "type": "function"
    },
    {
      "inputs": [
        {
          "internalType": "address",
          "name": "add",
          "type": "address"
        }
      ],
      "name": "setAddress",
      "outputs": [],
      "stateMutability": "nonpayable",
      "type": "function"
    },
    {
      "inputs": [
        {
          "internalType": "string",
          "name": "_mongoId",
          "type": "string"
        },
        {
          "internalType": "string",
          "name": "_name",
          "type": "string"
        },
        {
          "internalType": "string",
          "name": "_email",
          "type": "string"
        },
        {
          "internalType": "string",
          "name": "_deliveryAddress",
          "type": "string"
        },
        {
          "internalType": "string",
          "name": "_role",
          "type": "string"
        },
        {
          "internalType": "address",
          "name": "userAddress",
          "type": "address"
        }
      ],
      "name": "userSignUp",
      "outputs": [],
      "stateMutability": "nonpayable",
      "type": "function"
    },
    {
      "inputs": [
        {
          "internalType": "address",
          "name": "_userId",
          "type": "address"
        }
      ],
      "name": "getUserByAddress",
      "outputs": [
        {
          "components": [
            {
              "internalType": "address",
              "name": "id",
              "type": "address"
            },
            {
              "internalType": "string",
              "name": "mongoId",
              "type": "string"
            },
            {
              "internalType": "string",
              "name": "name",
              "type": "string"
            },
            {
              "internalType": "string",
              "name": "email",
              "type": "string"
            },
            {
              "internalType": "string",
              "name": "deliveryAddress",
              "type": "string"
            },
            {
              "internalType": "string",
              "name": "role",
              "type": "string"
            },
            {
              "internalType": "bool",
              "name": "isCreated",
              "type": "bool"
            },
            {
              "internalType": "uint256",
              "name": "createdAt",
              "type": "uint256"
            },
            {
              "internalType": "uint256",
              "name": "updatedAt",
              "type": "uint256"
            }
          ],
          "internalType": "struct UserContract.User",
          "name": "",
          "type": "tuple"
        }
      ],
      "stateMutability": "view",
      "type": "function"
    },
    {
      "inputs": [],
      "name": "getAllUser",
      "outputs": [
        {
          "components": [
            {
              "internalType": "string",
              "name": "mongoId",
              "type": "string"
            },
            {
              "internalType": "string",
              "name": "name",
              "type": "string"
            },
            {
              "internalType": "string",
              "name": "email",
              "type": "string"
            },
            {
              "internalType": "string",
              "name": "deliveryAddress",
              "type": "string"
            },
            {
              "internalType": "address",
              "name": "id",
              "type": "address"
            }
          ],
          "internalType": "struct UserContract.UserView[]",
          "name": "",
          "type": "tuple[]"
        }
      ],
      "stateMutability": "view",
      "type": "function"
    }
  ],
  "bytecode": "0x608060405234801561001057600080fd5b50336000806101000a81548173ffffffffffffffffffffffffffffffffffffffff021916908373ffffffffffffffffffffffffffffffffffffffff160217905550611d75806100606000396000f3fe608060405234801561001057600080fd5b50600436106100575760003560e01c806347531df81461005c57806369c212f61461007a578063a2bdedf4146100aa578063cd973ffc146100da578063e30081a0146100f6575b600080fd5b610064610112565b6040516100719190611529565b60405180910390f35b610094600480360381019061008f919061158b565b610765565b6040516100a191906116cd565b60405180910390f35b6100c460048036038101906100bf919061171b565b610bb4565b6040516100d19190611757565b60405180910390f35b6100f460048036038101906100ef91906118a7565b610bf3565b005b610110600480360381019061010b919061158b565b6110e4565b005b6060600160009054906101000a900473ffffffffffffffffffffffffffffffffffffffff1673ffffffffffffffffffffffffffffffffffffffff163373ffffffffffffffffffffffffffffffffffffffff16146101a4576040517f08c379a000000000000000000000000000000000000000000000000000000000815260040161019b90611a1d565b60405180910390fd5b600060048054905067ffffffffffffffff8111156101c5576101c461177c565b5b6040519080825280602002602001820160405280156101fe57816020015b6101eb6111b6565b8152602001906001900390816101e35790505b50905060005b60048054905081101561075d576000600360006004848154811061022b5761022a611a3d565b5b9060005260206000200160009054906101000a900473ffffffffffffffffffffffffffffffffffffffff1673ffffffffffffffffffffffffffffffffffffffff1673ffffffffffffffffffffffffffffffffffffffff168152602001908152602001600020600101805461029e90611a9b565b80601f01602080910402602001604051908101604052809291908181526020018280546102ca90611a9b565b80156103175780601f106102ec57610100808354040283529160200191610317565b820191906000526020600020905b8154815290600101906020018083116102fa57829003601f168201915b505050505090506000600360006004858154811061033857610337611a3d565b5b9060005260206000200160009054906101000a900473ffffffffffffffffffffffffffffffffffffffff1673ffffffffffffffffffffffffffffffffffffffff1673ffffffffffffffffffffffffffffffffffffffff16815260200190815260200160002060020180546103ab90611a9b565b80601f01602080910402602001604051908101604052809291908181526020018280546103d790611a9b565b80156104245780601f106103f957610100808354040283529160200191610424565b820191906000526020600020905b81548152906001019060200180831161040757829003601f168201915b505050505090506000600360006004868154811061044557610444611a3d565b5b9060005260206000200160009054906101000a900473ffffffffffffffffffffffffffffffffffffffff1673ffffffffffffffffffffffffffffffffffffffff1673ffffffffffffffffffffffffffffffffffffffff16815260200190815260200160002060030180546104b890611a9b565b80601f01602080910402602001604051908101604052809291908181526020018280546104e490611a9b565b80156105315780601f1061050657610100808354040283529160200191610531565b820191906000526020600020905b81548152906001019060200180831161051457829003601f168201915b505050505090506000600360006004878154811061055257610551611a3d565b5b9060005260206000200160009054906101000a900473ffffffffffffffffffffffffffffffffffffffff1673ffffffffffffffffffffffffffffffffffffffff1673ffffffffffffffffffffffffffffffffffffffff16815260200190815260200160002060040180546105c590611a9b565b80601f01602080910402602001604051908101604052809291908181526020018280546105f190611a9b565b801561063e5780601f106106135761010080835404028352916020019161063e565b820191906000526020600020905b81548152906001019060200180831161062157829003601f168201915b505050505090506000600360006004888154811061065f5761065e611a3d565b5b9060005260206000200160009054906101000a900473ffffffffffffffffffffffffffffffffffffffff1673ffffffffffffffffffffffffffffffffffffffff1673ffffffffffffffffffffffffffffffffffffffff16815260200190815260200160002060000160009054906101000a900473ffffffffffffffffffffffffffffffffffffffff1690506040518060a001604052808681526020018581526020018481526020018381526020018273ffffffffffffffffffffffffffffffffffffffff1681525087878151811061073a57610739611a3d565b5b60200260200101819052505050505050808061075590611afb565b915050610204565b508091505090565b61076d6111fb565b600160009054906101000a900473ffffffffffffffffffffffffffffffffffffffff1673ffffffffffffffffffffffffffffffffffffffff163373ffffffffffffffffffffffffffffffffffffffff16146107fd576040517f08c379a00000000000000000000000000000000000000000000000000000000081526004016107f490611a1d565b60405180910390fd5b6000600360008473ffffffffffffffffffffffffffffffffffffffff1673ffffffffffffffffffffffffffffffffffffffff168152602001908152602001600020604051806101200160405290816000820160009054906101000a900473ffffffffffffffffffffffffffffffffffffffff1673ffffffffffffffffffffffffffffffffffffffff1673ffffffffffffffffffffffffffffffffffffffff1681526020016001820180546108b090611a9b565b80601f01602080910402602001604051908101604052809291908181526020018280546108dc90611a9b565b80156109295780601f106108fe57610100808354040283529160200191610929565b820191906000526020600020905b81548152906001019060200180831161090c57829003601f168201915b5050505050815260200160028201805461094290611a9b565b80601f016020809104026020016040519081016040528092919081815260200182805461096e90611a9b565b80156109bb5780601f10610990576101008083540402835291602001916109bb565b820191906000526020600020905b81548152906001019060200180831161099e57829003601f168201915b505050505081526020016003820180546109d490611a9b565b80601f0160208091040260200160405190810160405280929190818152602001828054610a0090611a9b565b8015610a4d5780601f10610a2257610100808354040283529160200191610a4d565b820191906000526020600020905b815481529060010190602001808311610a3057829003601f168201915b50505050508152602001600482018054610a6690611a9b565b80601f0160208091040260200160405190810160405280929190818152602001828054610a9290611a9b565b8015610adf5780601f10610ab457610100808354040283529160200191610adf565b820191906000526020600020905b815481529060010190602001808311610ac257829003601f168201915b50505050508152602001600582018054610af890611a9b565b80601f0160208091040260200160405190810160405280929190818152602001828054610b2490611a9b565b8015610b715780601f10610b4657610100808354040283529160200191610b71565b820191906000526020600020905b815481529060010190602001808311610b5457829003601f168201915b505050505081526020016006820160009054906101000a900460ff1615151515815260200160078201548152602001600882015481525050905080915050919050565b60048181548110610bc457600080fd5b906000526020600020016000915054906101000a900473ffffffffffffffffffffffffffffffffffffffff1681565b600160009054906101000a900473ffffffffffffffffffffffffffffffffffffffff1673ffffffffffffffffffffffffffffffffffffffff163373ffffffffffffffffffffffffffffffffffffffff1614610c83576040517f08c379a0000000000000000000000000000000000000000000000000000000008152600401610c7a90611a1d565b60405180910390fd5b600360008273ffffffffffffffffffffffffffffffffffffffff1673ffffffffffffffffffffffffffffffffffffffff16815260200190815260200160002060060160009054906101000a900460ff1615610d13576040517f08c379a0000000000000000000000000000000000000000000000000000000008152600401610d0a90611b8f565b60405180910390fd5b73__Library_______________________________63bed34bba876040518263ffffffff1660e01b8152600401610d4a9190611c1f565b602060405180830381865af4158015610d67573d6000803e3d6000fd5b505050506040513d601f19601f82011682018060405250810190610d8b9190611c80565b1580610e0c575073__Library_______________________________63bed34bba866040518263ffffffff1660e01b8152600401610dc99190611c1f565b602060405180830381865af4158015610de6573d6000803e3d6000fd5b505050506040513d601f19601f82011682018060405250810190610e0a9190611c80565b155b80610e8c575073__Library_______________________________63bed34bba856040518263ffffffff1660e01b8152600401610e499190611c1f565b602060405180830381865af4158015610e66573d6000803e3d6000fd5b505050506040513d601f19601f82011682018060405250810190610e8a9190611c80565b155b610ecb576040517f08c379a0000000000000000000000000000000000000000000000000000000008152600401610ec290611d1f565b60405180910390fd5b60006040518061012001604052808373ffffffffffffffffffffffffffffffffffffffff16815260200188815260200187815260200186815260200185815260200184815260200160011515815260200142815260200142815250905080600360008473ffffffffffffffffffffffffffffffffffffffff1673ffffffffffffffffffffffffffffffffffffffff16815260200190815260200160002060008201518160000160006101000a81548173ffffffffffffffffffffffffffffffffffffffff021916908373ffffffffffffffffffffffffffffffffffffffff1602179055506020820151816001019080519060200190610fcb92919061125f565b506040820151816002019080519060200190610fe892919061125f565b50606082015181600301908051906020019061100592919061125f565b50608082015181600401908051906020019061102292919061125f565b5060a082015181600501908051906020019061103f92919061125f565b5060c08201518160060160006101000a81548160ff02191690831515021790555060e0820151816007015561010082015181600801559050506004829080600181540180825580915050600190039060005260206000200160009091909190916101000a81548173ffffffffffffffffffffffffffffffffffffffff021916908373ffffffffffffffffffffffffffffffffffffffff16021790555050505050505050565b60008054906101000a900473ffffffffffffffffffffffffffffffffffffffff1673ffffffffffffffffffffffffffffffffffffffff163373ffffffffffffffffffffffffffffffffffffffff1614611172576040517f08c379a000000000000000000000000000000000000000000000000000000000815260040161116990611a1d565b60405180910390fd5b80600160006101000a81548173ffffffffffffffffffffffffffffffffffffffff021916908373ffffffffffffffffffffffffffffffffffffffff16021790555050565b6040518060a0016040528060608152602001606081526020016060815260200160608152602001600073ffffffffffffffffffffffffffffffffffffffff1681525090565b604051806101200160405280600073ffffffffffffffffffffffffffffffffffffffff168152602001606081526020016060815260200160608152602001606081526020016060815260200160001515815260200160008152602001600081525090565b82805461126b90611a9b565b90600052602060002090601f01602090048101928261128d57600085556112d4565b82601f106112a657805160ff19168380011785556112d4565b828001600101855582156112d4579182015b828111156112d35782518255916020019190600101906112b8565b5b5090506112e191906112e5565b5090565b5b808211156112fe5760008160009055506001016112e6565b5090565b600081519050919050565b600082825260208201905092915050565b6000819050602082019050919050565b600081519050919050565b600082825260208201905092915050565b60005b8381101561136857808201518184015260208101905061134d565b83811115611377576000848401525b50505050565b6000601f19601f8301169050919050565b60006113998261132e565b6113a38185611339565b93506113b381856020860161134a565b6113bc8161137d565b840191505092915050565b600073ffffffffffffffffffffffffffffffffffffffff82169050919050565b60006113f2826113c7565b9050919050565b611402816113e7565b82525050565b600060a0830160008301518482036000860152611425828261138e565b9150506020830151848203602086015261143f828261138e565b91505060408301518482036040860152611459828261138e565b91505060608301518482036060860152611473828261138e565b915050608083015161148860808601826113f9565b508091505092915050565b600061149f8383611408565b905092915050565b6000602082019050919050565b60006114bf82611302565b6114c9818561130d565b9350836020820285016114db8561131e565b8060005b8581101561151757848403895281516114f88582611493565b9450611503836114a7565b925060208a019950506001810190506114df565b50829750879550505050505092915050565b6000602082019050818103600083015261154381846114b4565b905092915050565b6000604051905090565b600080fd5b600080fd5b611568816113e7565b811461157357600080fd5b50565b6000813590506115858161155f565b92915050565b6000602082840312156115a1576115a0611555565b5b60006115af84828501611576565b91505092915050565b60008115159050919050565b6115cd816115b8565b82525050565b6000819050919050565b6115e6816115d3565b82525050565b60006101208301600083015161160560008601826113f9565b506020830151848203602086015261161d828261138e565b91505060408301518482036040860152611637828261138e565b91505060608301518482036060860152611651828261138e565b9150506080830151848203608086015261166b828261138e565b91505060a083015184820360a0860152611685828261138e565b91505060c083015161169a60c08601826115c4565b5060e08301516116ad60e08601826115dd565b506101008301516116c26101008601826115dd565b508091505092915050565b600060208201905081810360008301526116e781846115ec565b905092915050565b6116f8816115d3565b811461170357600080fd5b50565b600081359050611715816116ef565b92915050565b60006020828403121561173157611730611555565b5b600061173f84828501611706565b91505092915050565b611751816113e7565b82525050565b600060208201905061176c6000830184611748565b92915050565b600080fd5b600080fd5b7f4e487b7100000000000000000000000000000000000000000000000000000000600052604160045260246000fd5b6117b48261137d565b810181811067ffffffffffffffff821117156117d3576117d261177c565b5b80604052505050565b60006117e661154b565b90506117f282826117ab565b919050565b600067ffffffffffffffff8211156118125761181161177c565b5b61181b8261137d565b9050602081019050919050565b82818337600083830152505050565b600061184a611845846117f7565b6117dc565b90508281526020810184848401111561186657611865611777565b5b611871848285611828565b509392505050565b600082601f83011261188e5761188d611772565b5b813561189e848260208601611837565b91505092915050565b60008060008060008060c087890312156118c4576118c3611555565b5b600087013567ffffffffffffffff8111156118e2576118e161155a565b5b6118ee89828a01611879565b965050602087013567ffffffffffffffff81111561190f5761190e61155a565b5b61191b89828a01611879565b955050604087013567ffffffffffffffff81111561193c5761193b61155a565b5b61194889828a01611879565b945050606087013567ffffffffffffffff8111156119695761196861155a565b5b61197589828a01611879565b935050608087013567ffffffffffffffff8111156119965761199561155a565b5b6119a289828a01611879565b92505060a06119b389828a01611576565b9150509295509295509295565b600082825260208201905092915050565b7f556e617574686f72697a65642061636365737321000000000000000000000000600082015250565b6000611a076014836119c0565b9150611a12826119d1565b602082019050919050565b60006020820190508181036000830152611a36816119fa565b9050919050565b7f4e487b7100000000000000000000000000000000000000000000000000000000600052603260045260246000fd5b7f4e487b7100000000000000000000000000000000000000000000000000000000600052602260045260246000fd5b60006002820490506001821680611ab357607f821691505b602082108103611ac657611ac5611a6c565b5b50919050565b7f4e487b7100000000000000000000000000000000000000000000000000000000600052601160045260246000fd5b6000611b06826115d3565b91507fffffffffffffffffffffffffffffffffffffffffffffffffffffffffffffffff8203611b3857611b37611acc565b5b600182019050919050565b7f596f752061726520416c72656164792052656769737465726564210000000000600082015250565b6000611b79601b836119c0565b9150611b8482611b43565b602082019050919050565b60006020820190508181036000830152611ba881611b6c565b9050919050565b600082825260208201905092915050565b6000611bcb8261132e565b611bd58185611baf565b9350611be581856020860161134a565b611bee8161137d565b840191505092915050565b50565b6000611c09600083611baf565b9150611c1482611bf9565b600082019050919050565b60006040820190508181036000830152611c398184611bc0565b90508181036020830152611c4c81611bfc565b905092915050565b611c5d816115b8565b8114611c6857600080fd5b50565b600081519050611c7a81611c54565b92915050565b600060208284031215611c9657611c95611555565b5b6000611ca484828501611c6b565b91505092915050565b7f506c656173652066696c6c20696e20746865207265717569726564206669656c60008201527f6473210000000000000000000000000000000000000000000000000000000000602082015250565b6000611d096023836119c0565b9150611d1482611cad565b604082019050919050565b60006020820190508181036000830152611d3881611cfc565b905091905056fea2646970667358221220e885b896eae1cb6f7c6f67cca1f5bf11143848c5f1ed816730f695ebee9d282064736f6c634300080e0033",
  "immutableReferences": {},
  "source": "// SPDX-License-Identifier: MIT\r\npragma solidity ^0.8.0;\r\n\r\nimport \"./Library.sol\";\r\n\r\ncontract UserContract {\r\n    /*\r\n        The owner of the contract is the deployer\r\n    */\r\n    address _owner;\r\n    address supplyChainAddress;\r\n    // address payable public owner;\r\n\r\n    /*\r\n        Set owner of the contract to the deployer\r\n    */\r\n    constructor() {\r\n        _owner = msg.sender;\r\n    }\r\n\r\n    function setAddress(address add) external {\r\n        require(msg.sender == _owner, \"Unauthorized access!\");\r\n        supplyChainAddress = add;\r\n    }\r\n\r\n    uint id;\r\n\r\n    /*\r\n        Any registered user can sell and buy a product\r\n    */\r\n    struct User {\r\n        address id;\r\n        string mongoId;\r\n        string name;\r\n        string email;\r\n        string deliveryAddress;\r\n        string role;\r\n        bool isCreated;\r\n        uint createdAt;\r\n        uint updatedAt;\r\n    }\r\n    struct UserView {\r\n        string mongoId;\r\n        string name;\r\n        string email;\r\n        string deliveryAddress;\r\n        address id;\r\n    }\r\n\r\n    mapping (address => User) users;\r\n    address[] public allUsers;\r\n\r\n    function userSignUp(\r\n        string memory _mongoId,\r\n        string memory _name,\r\n        string memory _email,\r\n        string memory _deliveryAddress,\r\n        string memory _role,\r\n        address userAddress\r\n    ) public { //payable\r\n        require(msg.sender == supplyChainAddress, \"Unauthorized access!\");\r\n        require(!users[userAddress].isCreated, \"You are Already Registered!\");\r\n        require(\r\n            !Library.compareStrings(_mongoId, \"\") ||\r\n        !Library.compareStrings(_name, \"\") ||\r\n        !Library.compareStrings(_email, \"\"),\r\n            \"Please fill in the required fields!\"\r\n        );\r\n\r\n        // owner.transfer(msg.value);\r\n        User memory user = User(\r\n            userAddress,\r\n            _mongoId,\r\n            _name,\r\n            _email,\r\n            _deliveryAddress,\r\n            _role,\r\n            true,\r\n            block.timestamp,\r\n            block.timestamp\r\n        );\r\n\r\n        users[userAddress] = user;\r\n        allUsers.push(userAddress);\r\n    }\r\n\r\n    function getUserByAddress(address _userId) public view returns (User memory){\r\n        require(msg.sender == supplyChainAddress, \"Unauthorized access!\");\r\n        User memory res = users[_userId];\r\n        return res;\r\n    }\r\n\r\n    function getAllUser() public view returns (UserView[] memory){\r\n        require(msg.sender == supplyChainAddress, \"Unauthorized access!\");\r\n        UserView[] memory res = new UserView[](allUsers.length);\r\n        for(uint i = 0; i < allUsers.length; i++) {\r\n            string memory mongoId = users[allUsers[i]].mongoId;\r\n            string memory name = users[allUsers[i]].name;\r\n            string memory email = users[allUsers[i]].email;\r\n            string memory deliveryAddress = users[allUsers[i]].deliveryAddress;\r\n            address uid = users[allUsers[i]].id;\r\n            res[i] = UserView(mongoId, name, email, deliveryAddress, uid);\r\n        }\r\n        return res;\r\n    }\r\n\r\n}",
  "sourcePath": "C:\\Users\\nathn\\Desktop\\final project\\blockchain-api\\blockchain-contracts\\contracts\\UserContract.sol",
  "compiler": {
    "name": "solc",
    "version": "0.8.14+commit.80d49f37.Emscripten.clang"
  },
  "schemaVersion": "3.4.7",
  "updatedAt": "2022-05-25T12:42:07.878Z",
  "devdoc": {
    "kind": "dev",
    "methods": {},
    "version": 1
  },
  "userdoc": {
    "kind": "user",
    "methods": {},
    "version": 1
  }
}