{
  "contractName": "UserContract",
  "abi": [
    {
      "inputs": [
        {
          "internalType": "address",
          "name": "add",
          "type": "address"
        }
      ],
      "stateMutability": "nonpayable",
      "type": "constructor"
    },
    {
      "inputs": [
        {
          "internalType": "uint256",
          "name": "",
          "type": "uint256"
        }
      ],
      "name": "allUsers",
      "outputs": [
        {
          "internalType": "address",
          "name": "",
          "type": "address"
        }
      ],
      "stateMutability": "view",
      "type": "function"
    },
    {
      "inputs": [],
      "name": "supplyChainAddress",
      "outputs": [
        {
          "internalType": "address",
          "name": "",
          "type": "address"
        }
      ],
      "stateMutability": "view",
      "type": "function"
    },
    {
      "inputs": [
        {
          "internalType": "address",
          "name": "add",
          "type": "address"
        }
      ],
      "name": "setSupplyChainAddress",
      "outputs": [],
      "stateMutability": "nonpayable",
      "type": "function"
    },
    {
      "inputs": [
        {
          "internalType": "string",
          "name": "_mongoId",
          "type": "string"
        },
        {
          "internalType": "string",
          "name": "_name",
          "type": "string"
        },
        {
          "internalType": "string",
          "name": "_email",
          "type": "string"
        },
        {
          "internalType": "string",
          "name": "_deliveryAddress",
          "type": "string"
        },
        {
          "internalType": "string",
          "name": "_role",
          "type": "string"
        },
        {
          "internalType": "address",
          "name": "userAddress",
          "type": "address"
        }
      ],
      "name": "userSignUp",
      "outputs": [],
      "stateMutability": "nonpayable",
      "type": "function"
    },
    {
      "inputs": [
        {
          "internalType": "address",
          "name": "_userId",
          "type": "address"
        }
      ],
      "name": "getUserByAddress",
      "outputs": [
        {
          "components": [
            {
              "internalType": "address",
              "name": "id",
              "type": "address"
            },
            {
              "internalType": "string",
              "name": "mongoId",
              "type": "string"
            },
            {
              "internalType": "string",
              "name": "name",
              "type": "string"
            },
            {
              "internalType": "string",
              "name": "email",
              "type": "string"
            },
            {
              "internalType": "string",
              "name": "deliveryAddress",
              "type": "string"
            },
            {
              "internalType": "string",
              "name": "role",
              "type": "string"
            },
            {
              "internalType": "bool",
              "name": "isCreated",
              "type": "bool"
            },
            {
              "internalType": "uint256",
              "name": "createdAt",
              "type": "uint256"
            },
            {
              "internalType": "uint256",
              "name": "updatedAt",
              "type": "uint256"
            }
          ],
          "internalType": "struct UserContract.User",
          "name": "",
          "type": "tuple"
        }
      ],
      "stateMutability": "view",
      "type": "function"
    },
    {
      "inputs": [],
      "name": "getAllUser",
      "outputs": [
        {
          "components": [
            {
              "internalType": "string",
              "name": "mongoId",
              "type": "string"
            },
            {
              "internalType": "string",
              "name": "name",
              "type": "string"
            },
            {
              "internalType": "string",
              "name": "email",
              "type": "string"
            },
            {
              "internalType": "string",
              "name": "deliveryAddress",
              "type": "string"
            },
            {
              "internalType": "address",
              "name": "id",
              "type": "address"
            }
          ],
          "internalType": "struct UserContract.UserView[]",
          "name": "",
          "type": "tuple[]"
        }
      ],
      "stateMutability": "view",
      "type": "function"
    }
  ],
  "bytecode": "0x60806040523480156200001157600080fd5b5060405162001f2f38038062001f2f833981810160405281019062000037919062000129565b336000806101000a81548173ffffffffffffffffffffffffffffffffffffffff021916908373ffffffffffffffffffffffffffffffffffffffff16021790555080600160006101000a81548173ffffffffffffffffffffffffffffffffffffffff021916908373ffffffffffffffffffffffffffffffffffffffff160217905550506200015b565b600080fd5b600073ffffffffffffffffffffffffffffffffffffffff82169050919050565b6000620000f182620000c4565b9050919050565b6200010381620000e4565b81146200010f57600080fd5b50565b6000815190506200012381620000f8565b92915050565b600060208284031215620001425762000141620000bf565b5b6000620001528482850162000112565b91505092915050565b611dc4806200016b6000396000f3fe608060405234801561001057600080fd5b50600436106100625760003560e01c80631709a8c81461006757806347531df81461008557806369c212f6146100a3578063a2bdedf4146100d3578063b159358214610103578063cd973ffc1461011f575b600080fd5b61006f61013b565b60405161007c9190611392565b60405180910390f35b61008d610161565b60405161009a91906115a2565b60405180910390f35b6100bd60048036038101906100b89190611604565b6107b4565b6040516100ca9190611746565b60405180910390f35b6100ed60048036038101906100e89190611794565b610c03565b6040516100fa9190611392565b60405180910390f35b61011d60048036038101906101189190611604565b610c42565b005b610139600480360381019061013491906118f6565b610d14565b005b600160009054906101000a900473ffffffffffffffffffffffffffffffffffffffff1681565b6060600160009054906101000a900473ffffffffffffffffffffffffffffffffffffffff1673ffffffffffffffffffffffffffffffffffffffff163373ffffffffffffffffffffffffffffffffffffffff16146101f3576040517f08c379a00000000000000000000000000000000000000000000000000000000081526004016101ea90611a6c565b60405180910390fd5b600060048054905067ffffffffffffffff811115610214576102136117cb565b5b60405190808252806020026020018201604052801561024d57816020015b61023a611205565b8152602001906001900390816102325790505b50905060005b6004805490508110156107ac576000600360006004848154811061027a57610279611a8c565b5b9060005260206000200160009054906101000a900473ffffffffffffffffffffffffffffffffffffffff1673ffffffffffffffffffffffffffffffffffffffff1673ffffffffffffffffffffffffffffffffffffffff16815260200190815260200160002060010180546102ed90611aea565b80601f016020809104026020016040519081016040528092919081815260200182805461031990611aea565b80156103665780601f1061033b57610100808354040283529160200191610366565b820191906000526020600020905b81548152906001019060200180831161034957829003601f168201915b505050505090506000600360006004858154811061038757610386611a8c565b5b9060005260206000200160009054906101000a900473ffffffffffffffffffffffffffffffffffffffff1673ffffffffffffffffffffffffffffffffffffffff1673ffffffffffffffffffffffffffffffffffffffff16815260200190815260200160002060020180546103fa90611aea565b80601f016020809104026020016040519081016040528092919081815260200182805461042690611aea565b80156104735780601f1061044857610100808354040283529160200191610473565b820191906000526020600020905b81548152906001019060200180831161045657829003601f168201915b505050505090506000600360006004868154811061049457610493611a8c565b5b9060005260206000200160009054906101000a900473ffffffffffffffffffffffffffffffffffffffff1673ffffffffffffffffffffffffffffffffffffffff1673ffffffffffffffffffffffffffffffffffffffff168152602001908152602001600020600301805461050790611aea565b80601f016020809104026020016040519081016040528092919081815260200182805461053390611aea565b80156105805780601f1061055557610100808354040283529160200191610580565b820191906000526020600020905b81548152906001019060200180831161056357829003601f168201915b50505050509050600060036000600487815481106105a1576105a0611a8c565b5b9060005260206000200160009054906101000a900473ffffffffffffffffffffffffffffffffffffffff1673ffffffffffffffffffffffffffffffffffffffff1673ffffffffffffffffffffffffffffffffffffffff168152602001908152602001600020600401805461061490611aea565b80601f016020809104026020016040519081016040528092919081815260200182805461064090611aea565b801561068d5780601f106106625761010080835404028352916020019161068d565b820191906000526020600020905b81548152906001019060200180831161067057829003601f168201915b50505050509050600060036000600488815481106106ae576106ad611a8c565b5b9060005260206000200160009054906101000a900473ffffffffffffffffffffffffffffffffffffffff1673ffffffffffffffffffffffffffffffffffffffff1673ffffffffffffffffffffffffffffffffffffffff16815260200190815260200160002060000160009054906101000a900473ffffffffffffffffffffffffffffffffffffffff1690506040518060a001604052808681526020018581526020018481526020018381526020018273ffffffffffffffffffffffffffffffffffffffff1681525087878151811061078957610788611a8c565b5b6020026020010181905250505050505080806107a490611b4a565b915050610253565b508091505090565b6107bc61124a565b600160009054906101000a900473ffffffffffffffffffffffffffffffffffffffff1673ffffffffffffffffffffffffffffffffffffffff163373ffffffffffffffffffffffffffffffffffffffff161461084c576040517f08c379a000000000000000000000000000000000000000000000000000000000815260040161084390611a6c565b60405180910390fd5b6000600360008473ffffffffffffffffffffffffffffffffffffffff1673ffffffffffffffffffffffffffffffffffffffff168152602001908152602001600020604051806101200160405290816000820160009054906101000a900473ffffffffffffffffffffffffffffffffffffffff1673ffffffffffffffffffffffffffffffffffffffff1673ffffffffffffffffffffffffffffffffffffffff1681526020016001820180546108ff90611aea565b80601f016020809104026020016040519081016040528092919081815260200182805461092b90611aea565b80156109785780601f1061094d57610100808354040283529160200191610978565b820191906000526020600020905b81548152906001019060200180831161095b57829003601f168201915b5050505050815260200160028201805461099190611aea565b80601f01602080910402602001604051908101604052809291908181526020018280546109bd90611aea565b8015610a0a5780601f106109df57610100808354040283529160200191610a0a565b820191906000526020600020905b8154815290600101906020018083116109ed57829003601f168201915b50505050508152602001600382018054610a2390611aea565b80601f0160208091040260200160405190810160405280929190818152602001828054610a4f90611aea565b8015610a9c5780601f10610a7157610100808354040283529160200191610a9c565b820191906000526020600020905b815481529060010190602001808311610a7f57829003601f168201915b50505050508152602001600482018054610ab590611aea565b80601f0160208091040260200160405190810160405280929190818152602001828054610ae190611aea565b8015610b2e5780601f10610b0357610100808354040283529160200191610b2e565b820191906000526020600020905b815481529060010190602001808311610b1157829003601f168201915b50505050508152602001600582018054610b4790611aea565b80601f0160208091040260200160405190810160405280929190818152602001828054610b7390611aea565b8015610bc05780601f10610b9557610100808354040283529160200191610bc0565b820191906000526020600020905b815481529060010190602001808311610ba357829003601f168201915b505050505081526020016006820160009054906101000a900460ff1615151515815260200160078201548152602001600882015481525050905080915050919050565b60048181548110610c1357600080fd5b906000526020600020016000915054906101000a900473ffffffffffffffffffffffffffffffffffffffff1681565b60008054906101000a900473ffffffffffffffffffffffffffffffffffffffff1673ffffffffffffffffffffffffffffffffffffffff163373ffffffffffffffffffffffffffffffffffffffff1614610cd0576040517f08c379a0000000000000000000000000000000000000000000000000000000008152600401610cc790611a6c565b60405180910390fd5b80600160006101000a81548173ffffffffffffffffffffffffffffffffffffffff021916908373ffffffffffffffffffffffffffffffffffffffff16021790555050565b600160009054906101000a900473ffffffffffffffffffffffffffffffffffffffff1673ffffffffffffffffffffffffffffffffffffffff163373ffffffffffffffffffffffffffffffffffffffff1614610da4576040517f08c379a0000000000000000000000000000000000000000000000000000000008152600401610d9b90611a6c565b60405180910390fd5b600360008273ffffffffffffffffffffffffffffffffffffffff1673ffffffffffffffffffffffffffffffffffffffff16815260200190815260200160002060060160009054906101000a900460ff1615610e34576040517f08c379a0000000000000000000000000000000000000000000000000000000008152600401610e2b90611bde565b60405180910390fd5b73__Library_______________________________63bed34bba876040518263ffffffff1660e01b8152600401610e6b9190611c6e565b602060405180830381865af4158015610e88573d6000803e3d6000fd5b505050506040513d601f19601f82011682018060405250810190610eac9190611ccf565b1580610f2d575073__Library_______________________________63bed34bba866040518263ffffffff1660e01b8152600401610eea9190611c6e565b602060405180830381865af4158015610f07573d6000803e3d6000fd5b505050506040513d601f19601f82011682018060405250810190610f2b9190611ccf565b155b80610fad575073__Library_______________________________63bed34bba856040518263ffffffff1660e01b8152600401610f6a9190611c6e565b602060405180830381865af4158015610f87573d6000803e3d6000fd5b505050506040513d601f19601f82011682018060405250810190610fab9190611ccf565b155b610fec576040517f08c379a0000000000000000000000000000000000000000000000000000000008152600401610fe390611d6e565b60405180910390fd5b60006040518061012001604052808373ffffffffffffffffffffffffffffffffffffffff16815260200188815260200187815260200186815260200185815260200184815260200160011515815260200142815260200142815250905080600360008473ffffffffffffffffffffffffffffffffffffffff1673ffffffffffffffffffffffffffffffffffffffff16815260200190815260200160002060008201518160000160006101000a81548173ffffffffffffffffffffffffffffffffffffffff021916908373ffffffffffffffffffffffffffffffffffffffff16021790555060208201518160010190805190602001906110ec9291906112ae565b5060408201518160020190805190602001906111099291906112ae565b5060608201518160030190805190602001906111269291906112ae565b5060808201518160040190805190602001906111439291906112ae565b5060a08201518160050190805190602001906111609291906112ae565b5060c08201518160060160006101000a81548160ff02191690831515021790555060e0820151816007015561010082015181600801559050506004829080600181540180825580915050600190039060005260206000200160009091909190916101000a81548173ffffffffffffffffffffffffffffffffffffffff021916908373ffffffffffffffffffffffffffffffffffffffff16021790555050505050505050565b6040518060a0016040528060608152602001606081526020016060815260200160608152602001600073ffffffffffffffffffffffffffffffffffffffff1681525090565b604051806101200160405280600073ffffffffffffffffffffffffffffffffffffffff168152602001606081526020016060815260200160608152602001606081526020016060815260200160001515815260200160008152602001600081525090565b8280546112ba90611aea565b90600052602060002090601f0160209004810192826112dc5760008555611323565b82601f106112f557805160ff1916838001178555611323565b82800160010185558215611323579182015b82811115611322578251825591602001919060010190611307565b5b5090506113309190611334565b5090565b5b8082111561134d576000816000905550600101611335565b5090565b600073ffffffffffffffffffffffffffffffffffffffff82169050919050565b600061137c82611351565b9050919050565b61138c81611371565b82525050565b60006020820190506113a76000830184611383565b92915050565b600081519050919050565b600082825260208201905092915050565b6000819050602082019050919050565b600081519050919050565b600082825260208201905092915050565b60005b838110156114135780820151818401526020810190506113f8565b83811115611422576000848401525b50505050565b6000601f19601f8301169050919050565b6000611444826113d9565b61144e81856113e4565b935061145e8185602086016113f5565b61146781611428565b840191505092915050565b61147b81611371565b82525050565b600060a083016000830151848203600086015261149e8282611439565b915050602083015184820360208601526114b88282611439565b915050604083015184820360408601526114d28282611439565b915050606083015184820360608601526114ec8282611439565b91505060808301516115016080860182611472565b508091505092915050565b60006115188383611481565b905092915050565b6000602082019050919050565b6000611538826113ad565b61154281856113b8565b935083602082028501611554856113c9565b8060005b858110156115905784840389528151611571858261150c565b945061157c83611520565b925060208a01995050600181019050611558565b50829750879550505050505092915050565b600060208201905081810360008301526115bc818461152d565b905092915050565b6000604051905090565b600080fd5b600080fd5b6115e181611371565b81146115ec57600080fd5b50565b6000813590506115fe816115d8565b92915050565b60006020828403121561161a576116196115ce565b5b6000611628848285016115ef565b91505092915050565b60008115159050919050565b61164681611631565b82525050565b6000819050919050565b61165f8161164c565b82525050565b60006101208301600083015161167e6000860182611472565b50602083015184820360208601526116968282611439565b915050604083015184820360408601526116b08282611439565b915050606083015184820360608601526116ca8282611439565b915050608083015184820360808601526116e48282611439565b91505060a083015184820360a08601526116fe8282611439565b91505060c083015161171360c086018261163d565b5060e083015161172660e0860182611656565b5061010083015161173b610100860182611656565b508091505092915050565b600060208201905081810360008301526117608184611665565b905092915050565b6117718161164c565b811461177c57600080fd5b50565b60008135905061178e81611768565b92915050565b6000602082840312156117aa576117a96115ce565b5b60006117b88482850161177f565b91505092915050565b600080fd5b600080fd5b7f4e487b7100000000000000000000000000000000000000000000000000000000600052604160045260246000fd5b61180382611428565b810181811067ffffffffffffffff82111715611822576118216117cb565b5b80604052505050565b60006118356115c4565b905061184182826117fa565b919050565b600067ffffffffffffffff821115611861576118606117cb565b5b61186a82611428565b9050602081019050919050565b82818337600083830152505050565b600061189961189484611846565b61182b565b9050828152602081018484840111156118b5576118b46117c6565b5b6118c0848285611877565b509392505050565b600082601f8301126118dd576118dc6117c1565b5b81356118ed848260208601611886565b91505092915050565b60008060008060008060c08789031215611913576119126115ce565b5b600087013567ffffffffffffffff811115611931576119306115d3565b5b61193d89828a016118c8565b965050602087013567ffffffffffffffff81111561195e5761195d6115d3565b5b61196a89828a016118c8565b955050604087013567ffffffffffffffff81111561198b5761198a6115d3565b5b61199789828a016118c8565b945050606087013567ffffffffffffffff8111156119b8576119b76115d3565b5b6119c489828a016118c8565b935050608087013567ffffffffffffffff8111156119e5576119e46115d3565b5b6119f189828a016118c8565b92505060a0611a0289828a016115ef565b9150509295509295509295565b600082825260208201905092915050565b7f556e617574686f72697a65642061636365737321000000000000000000000000600082015250565b6000611a56601483611a0f565b9150611a6182611a20565b602082019050919050565b60006020820190508181036000830152611a8581611a49565b9050919050565b7f4e487b7100000000000000000000000000000000000000000000000000000000600052603260045260246000fd5b7f4e487b7100000000000000000000000000000000000000000000000000000000600052602260045260246000fd5b60006002820490506001821680611b0257607f821691505b602082108103611b1557611b14611abb565b5b50919050565b7f4e487b7100000000000000000000000000000000000000000000000000000000600052601160045260246000fd5b6000611b558261164c565b91507fffffffffffffffffffffffffffffffffffffffffffffffffffffffffffffffff8203611b8757611b86611b1b565b5b600182019050919050565b7f596f752061726520416c72656164792052656769737465726564210000000000600082015250565b6000611bc8601b83611a0f565b9150611bd382611b92565b602082019050919050565b60006020820190508181036000830152611bf781611bbb565b9050919050565b600082825260208201905092915050565b6000611c1a826113d9565b611c248185611bfe565b9350611c348185602086016113f5565b611c3d81611428565b840191505092915050565b50565b6000611c58600083611bfe565b9150611c6382611c48565b600082019050919050565b60006040820190508181036000830152611c888184611c0f565b90508181036020830152611c9b81611c4b565b905092915050565b611cac81611631565b8114611cb757600080fd5b50565b600081519050611cc981611ca3565b92915050565b600060208284031215611ce557611ce46115ce565b5b6000611cf384828501611cba565b91505092915050565b7f506c656173652066696c6c20696e20746865207265717569726564206669656c60008201527f6473210000000000000000000000000000000000000000000000000000000000602082015250565b6000611d58602383611a0f565b9150611d6382611cfc565b604082019050919050565b60006020820190508181036000830152611d8781611d4b565b905091905056fea264697066735822122024e8be650f77edcd2e2df1d7cafccffd5674e3610e1f3391cc56508f8e732f0564736f6c634300080e0033",
  "immutableReferences": {},
  "source": "// SPDX-License-Identifier: MIT\r\npragma solidity ^0.8.0;\r\n\r\nimport \"./Library.sol\";\r\n\r\ncontract UserContract {\r\n    /*\r\n        The owner of the contract is the deployer\r\n    */\r\n    address _owner;\r\n    address public supplyChainAddress;\r\n    // address payable public owner;\r\n\r\n    /*\r\n        Set owner of the contract to the deployer\r\n    */\r\n    constructor(address add) {\r\n        _owner = msg.sender;\r\n        supplyChainAddress = add;\r\n    }\r\n\r\n    function setSupplyChainAddress(address add) external {\r\n        require(msg.sender == _owner, \"Unauthorized access!\");\r\n        supplyChainAddress = add;\r\n    }\r\n\r\n    uint id;\r\n\r\n    /*\r\n        Any registered user can sell and buy a product\r\n    */\r\n    struct User {\r\n        address id;\r\n        string mongoId;\r\n        string name;\r\n        string email;\r\n        string deliveryAddress;\r\n        string role;\r\n        bool isCreated;\r\n        uint createdAt;\r\n        uint updatedAt;\r\n    }\r\n    struct UserView {\r\n        string mongoId;\r\n        string name;\r\n        string email;\r\n        string deliveryAddress;\r\n        address id;\r\n    }\r\n\r\n    mapping (address => User) users;\r\n    address[] public allUsers;\r\n\r\n    function userSignUp(\r\n        string memory _mongoId,\r\n        string memory _name,\r\n        string memory _email,\r\n        string memory _deliveryAddress,\r\n        string memory _role,\r\n        address userAddress\r\n    ) public { //payable\r\n        require(msg.sender == supplyChainAddress, \"Unauthorized access!\");\r\n        require(!users[userAddress].isCreated, \"You are Already Registered!\");\r\n        require(\r\n            !Library.compareStrings(_mongoId, \"\") ||\r\n        !Library.compareStrings(_name, \"\") ||\r\n        !Library.compareStrings(_email, \"\"),\r\n            \"Please fill in the required fields!\"\r\n        );\r\n\r\n        // owner.transfer(msg.value);\r\n        User memory user = User(\r\n            userAddress,\r\n            _mongoId,\r\n            _name,\r\n            _email,\r\n            _deliveryAddress,\r\n            _role,\r\n            true,\r\n            block.timestamp,\r\n            block.timestamp\r\n        );\r\n\r\n        users[userAddress] = user;\r\n        allUsers.push(userAddress);\r\n    }\r\n\r\n    function getUserByAddress(address _userId) public view returns (User memory){\r\n        require(msg.sender == supplyChainAddress, \"Unauthorized access!\");\r\n        User memory res = users[_userId];\r\n        return res;\r\n    }\r\n\r\n    function getAllUser() public view returns (UserView[] memory){\r\n        require(msg.sender == supplyChainAddress, \"Unauthorized access!\");\r\n        UserView[] memory res = new UserView[](allUsers.length);\r\n        for(uint i = 0; i < allUsers.length; i++) {\r\n            string memory mongoId = users[allUsers[i]].mongoId;\r\n            string memory name = users[allUsers[i]].name;\r\n            string memory email = users[allUsers[i]].email;\r\n            string memory deliveryAddress = users[allUsers[i]].deliveryAddress;\r\n            address uid = users[allUsers[i]].id;\r\n            res[i] = UserView(mongoId, name, email, deliveryAddress, uid);\r\n        }\r\n        return res;\r\n    }\r\n\r\n}",
  "sourcePath": "C:\\Users\\nathn\\Desktop\\final project\\blockchain-api\\blockchain-contracts\\contracts\\UserContract.sol",
  "compiler": {
    "name": "solc",
    "version": "0.8.14+commit.80d49f37.Emscripten.clang"
  },
  "schemaVersion": "3.4.7",
  "updatedAt": "2022-05-25T18:09:16.356Z",
  "devdoc": {
    "kind": "dev",
    "methods": {},
    "version": 1
  },
  "userdoc": {
    "kind": "user",
    "methods": {},
    "version": 1
  }
}