{
  "contractName": "MyContract",
  "abi": [
    {
      "inputs": [
        {
          "internalType": "address",
          "name": "_trustedForwarder",
          "type": "address"
        }
      ],
      "stateMutability": "nonpayable",
      "type": "constructor"
    },
    {
      "inputs": [],
      "name": "data",
      "outputs": [
        {
          "internalType": "uint256",
          "name": "",
          "type": "uint256"
        }
      ],
      "stateMutability": "view",
      "type": "function",
      "constant": true
    },
    {
      "inputs": [
        {
          "internalType": "address",
          "name": "forwarder",
          "type": "address"
        }
      ],
      "name": "isTrustedForwarder",
      "outputs": [
        {
          "internalType": "bool",
          "name": "",
          "type": "bool"
        }
      ],
      "stateMutability": "view",
      "type": "function",
      "constant": true
    },
    {
      "inputs": [],
      "name": "trustedForwarder",
      "outputs": [
        {
          "internalType": "address",
          "name": "",
          "type": "address"
        }
      ],
      "stateMutability": "view",
      "type": "function",
      "constant": true
    },
    {
      "inputs": [],
      "name": "versionRecipient",
      "outputs": [
        {
          "internalType": "string",
          "name": "",
          "type": "string"
        }
      ],
      "stateMutability": "view",
      "type": "function",
      "constant": true
    },
    {
      "inputs": [
        {
          "internalType": "uint256",
          "name": "val",
          "type": "uint256"
        }
      ],
      "name": "set",
      "outputs": [],
      "stateMutability": "nonpayable",
      "type": "function"
    },
    {
      "inputs": [],
      "name": "getMyData",
      "outputs": [
        {
          "internalType": "uint256",
          "name": "d",
          "type": "uint256"
        }
      ],
      "stateMutability": "view",
      "type": "function",
      "constant": true
    }
  ],
  "bytecode": "0x60806040526040518060400160405280600581526020017f322e322e300000000000000000000000000000000000000000000000000000008152506001908051906020019061004f9291906100db565b50600560025534801561006157600080fd5b50604051610837380380610837833981810160405281019061008391906101e1565b6100928161009860201b60201c565b5061026e565b806000806101000a81548173ffffffffffffffffffffffffffffffffffffffff021916908373ffffffffffffffffffffffffffffffffffffffff16021790555050565b8280546100e79061023d565b90600052602060002090601f0160209004810192826101095760008555610150565b82601f1061012257805160ff1916838001178555610150565b82800160010185558215610150579182015b8281111561014f578251825591602001919060010190610134565b5b50905061015d9190610161565b5090565b5b8082111561017a576000816000905550600101610162565b5090565b600080fd5b600073ffffffffffffffffffffffffffffffffffffffff82169050919050565b60006101ae82610183565b9050919050565b6101be816101a3565b81146101c957600080fd5b50565b6000815190506101db816101b5565b92915050565b6000602082840312156101f7576101f661017e565b5b6000610205848285016101cc565b91505092915050565b7f4e487b7100000000000000000000000000000000000000000000000000000000600052602260045260246000fd5b6000600282049050600182168061025557607f821691505b6020821081036102685761026761020e565b5b50919050565b6105ba8061027d6000396000f3fe608060405234801561001057600080fd5b50600436106100625760003560e01c8063486ff0cd14610067578063572b6c051461008557806360fe47b1146100b557806373d4a13a146100d15780637da0a877146100ef578063d9c8a38b1461010d575b600080fd5b61006f61012b565b60405161007c9190610300565b60405180910390f35b61009f600480360381019061009a9190610385565b6101b9565b6040516100ac91906103cd565b60405180910390f35b6100cf60048036038101906100ca919061041e565b610212565b005b6100d961022e565b6040516100e6919061045a565b60405180910390f35b6100f7610234565b6040516101049190610484565b60405180910390f35b61011561025d565b604051610122919061045a565b60405180910390f35b60018054610138906104ce565b80601f0160208091040260200160405190810160405280929190818152602001828054610164906104ce565b80156101b15780601f10610186576101008083540402835291602001916101b1565b820191906000526020600020905b81548152906001019060200180831161019457829003601f168201915b505050505081565b60008060009054906101000a900473ffffffffffffffffffffffffffffffffffffffff1673ffffffffffffffffffffffffffffffffffffffff168273ffffffffffffffffffffffffffffffffffffffff16149050919050565b8060026000828254610224919061052e565b9250508190555050565b60025481565b60008060009054906101000a900473ffffffffffffffffffffffffffffffffffffffff16905090565b6000600254905090565b600081519050919050565b600082825260208201905092915050565b60005b838110156102a1578082015181840152602081019050610286565b838111156102b0576000848401525b50505050565b6000601f19601f8301169050919050565b60006102d282610267565b6102dc8185610272565b93506102ec818560208601610283565b6102f5816102b6565b840191505092915050565b6000602082019050818103600083015261031a81846102c7565b905092915050565b600080fd5b600073ffffffffffffffffffffffffffffffffffffffff82169050919050565b600061035282610327565b9050919050565b61036281610347565b811461036d57600080fd5b50565b60008135905061037f81610359565b92915050565b60006020828403121561039b5761039a610322565b5b60006103a984828501610370565b91505092915050565b60008115159050919050565b6103c7816103b2565b82525050565b60006020820190506103e260008301846103be565b92915050565b6000819050919050565b6103fb816103e8565b811461040657600080fd5b50565b600081359050610418816103f2565b92915050565b60006020828403121561043457610433610322565b5b600061044284828501610409565b91505092915050565b610454816103e8565b82525050565b600060208201905061046f600083018461044b565b92915050565b61047e81610347565b82525050565b60006020820190506104996000830184610475565b92915050565b7f4e487b7100000000000000000000000000000000000000000000000000000000600052602260045260246000fd5b600060028204905060018216806104e657607f821691505b6020821081036104f9576104f861049f565b5b50919050565b7f4e487b7100000000000000000000000000000000000000000000000000000000600052601160045260246000fd5b6000610539826103e8565b9150610544836103e8565b9250827fffffffffffffffffffffffffffffffffffffffffffffffffffffffffffffffff03821115610579576105786104ff565b5b82820190509291505056fea2646970667358221220dc567091022b32d81ad2a3ea2d7ef56bd5eb9d2140133c7c390fd4c49fd7791f64736f6c634300080d0033",
  "immutableReferences": {},
  "source": "// SPDX-License-Identifier: MIT\r\npragma solidity >=0.4.22 <0.9.0;\r\n\r\nimport \"@opengsn/contracts/src/BaseRelayRecipient.sol\";\r\n\r\ncontract MyContract is BaseRelayRecipient {\r\n    string public override versionRecipient = \"2.2.0\";\r\n    uint public data = 5;\r\n\r\n    constructor(address _trustedForwarder){\r\n        _setTrustedForwarder(_trustedForwarder);\r\n    }\r\n\r\n    function set(uint val) public {\r\n        data += val;\r\n    }\r\n\r\n    function getMyData() public view returns(uint d){\r\n        return data;\r\n    }\r\n  \r\n}\r\n",
  "sourcePath": "C:\\Users\\nathn\\Desktop\\blockchain supply chain\\blockchain-part\\contracts\\MyContract.sol",
  "compiler": {
    "name": "solc",
    "version": "0.8.13+commit.abaa5c0e.Emscripten.clang"
  },
  "schemaVersion": "3.4.7",
  "updatedAt": "2022-04-17T19:00:42.406Z",
  "networkType": "ethereum",
  "devdoc": {
    "kind": "dev",
    "methods": {},
    "version": 1
  },
  "userdoc": {
    "kind": "user",
    "methods": {
      "isTrustedForwarder(address)": {
        "notice": "return if the forwarder is trusted to forward relayed transactions to us. the forwarder is required to verify the sender's signature, and verify the call is not a replay."
      }
    },
    "version": 1
  }
}