{
  "contractName": "MyContract",
  "abi": [
    {
      "inputs": [
        {
          "internalType": "address",
          "name": "_trustedForwarder",
          "type": "address"
        }
      ],
      "stateMutability": "nonpayable",
      "type": "constructor"
    },
    {
      "inputs": [],
      "name": "data",
      "outputs": [
        {
          "internalType": "uint256",
          "name": "",
          "type": "uint256"
        }
      ],
      "stateMutability": "view",
      "type": "function",
      "constant": true
    },
    {
      "inputs": [
        {
          "internalType": "address",
          "name": "forwarder",
          "type": "address"
        }
      ],
      "name": "isTrustedForwarder",
      "outputs": [
        {
          "internalType": "bool",
          "name": "",
          "type": "bool"
        }
      ],
      "stateMutability": "view",
      "type": "function",
      "constant": true
    },
    {
      "inputs": [],
      "name": "trustedForwarder",
      "outputs": [
        {
          "internalType": "address",
          "name": "",
          "type": "address"
        }
      ],
      "stateMutability": "view",
      "type": "function",
      "constant": true
    },
    {
      "inputs": [],
      "name": "versionRecipient",
      "outputs": [
        {
          "internalType": "string",
          "name": "",
          "type": "string"
        }
      ],
      "stateMutability": "view",
      "type": "function",
      "constant": true
    },
    {
      "inputs": [
        {
          "internalType": "uint256",
          "name": "val",
          "type": "uint256"
        }
      ],
      "name": "setMyData",
      "outputs": [],
      "stateMutability": "nonpayable",
      "type": "function"
    },
    {
      "inputs": [],
      "name": "getMyData",
      "outputs": [
        {
          "internalType": "uint256",
          "name": "d",
          "type": "uint256"
        }
      ],
      "stateMutability": "view",
      "type": "function",
      "constant": true
    }
  ],
  "bytecode": "0x60806040526040518060400160405280600581526020017f322e322e300000000000000000000000000000000000000000000000000000008152506001908051906020019061004f9291906100db565b50600560025534801561006157600080fd5b50604051610837380380610837833981810160405281019061008391906101e1565b6100928161009860201b60201c565b5061026e565b806000806101000a81548173ffffffffffffffffffffffffffffffffffffffff021916908373ffffffffffffffffffffffffffffffffffffffff16021790555050565b8280546100e79061023d565b90600052602060002090601f0160209004810192826101095760008555610150565b82601f1061012257805160ff1916838001178555610150565b82800160010185558215610150579182015b8281111561014f578251825591602001919060010190610134565b5b50905061015d9190610161565b5090565b5b8082111561017a576000816000905550600101610162565b5090565b600080fd5b600073ffffffffffffffffffffffffffffffffffffffff82169050919050565b60006101ae82610183565b9050919050565b6101be816101a3565b81146101c957600080fd5b50565b6000815190506101db816101b5565b92915050565b6000602082840312156101f7576101f661017e565b5b6000610205848285016101cc565b91505092915050565b7f4e487b7100000000000000000000000000000000000000000000000000000000600052602260045260246000fd5b6000600282049050600182168061025557607f821691505b6020821081036102685761026761020e565b5b50919050565b6105ba8061027d6000396000f3fe608060405234801561001057600080fd5b50600436106100625760003560e01c80631179bdd014610067578063486ff0cd14610083578063572b6c05146100a157806373d4a13a146100d15780637da0a877146100ef578063d9c8a38b1461010d575b600080fd5b610081600480360381019061007c91906102a2565b61012b565b005b61008b610147565b6040516100989190610368565b60405180910390f35b6100bb60048036038101906100b691906103e8565b6101d5565b6040516100c89190610430565b60405180910390f35b6100d961022e565b6040516100e6919061045a565b60405180910390f35b6100f7610234565b6040516101049190610484565b60405180910390f35b61011561025d565b604051610122919061045a565b60405180910390f35b806002600082825461013d91906104ce565b9250508190555050565b6001805461015490610553565b80601f016020809104026020016040519081016040528092919081815260200182805461018090610553565b80156101cd5780601f106101a2576101008083540402835291602001916101cd565b820191906000526020600020905b8154815290600101906020018083116101b057829003601f168201915b505050505081565b60008060009054906101000a900473ffffffffffffffffffffffffffffffffffffffff1673ffffffffffffffffffffffffffffffffffffffff168273ffffffffffffffffffffffffffffffffffffffff16149050919050565b60025481565b60008060009054906101000a900473ffffffffffffffffffffffffffffffffffffffff16905090565b6000600254905090565b600080fd5b6000819050919050565b61027f8161026c565b811461028a57600080fd5b50565b60008135905061029c81610276565b92915050565b6000602082840312156102b8576102b7610267565b5b60006102c68482850161028d565b91505092915050565b600081519050919050565b600082825260208201905092915050565b60005b838110156103095780820151818401526020810190506102ee565b83811115610318576000848401525b50505050565b6000601f19601f8301169050919050565b600061033a826102cf565b61034481856102da565b93506103548185602086016102eb565b61035d8161031e565b840191505092915050565b60006020820190508181036000830152610382818461032f565b905092915050565b600073ffffffffffffffffffffffffffffffffffffffff82169050919050565b60006103b58261038a565b9050919050565b6103c5816103aa565b81146103d057600080fd5b50565b6000813590506103e2816103bc565b92915050565b6000602082840312156103fe576103fd610267565b5b600061040c848285016103d3565b91505092915050565b60008115159050919050565b61042a81610415565b82525050565b60006020820190506104456000830184610421565b92915050565b6104548161026c565b82525050565b600060208201905061046f600083018461044b565b92915050565b61047e816103aa565b82525050565b60006020820190506104996000830184610475565b92915050565b7f4e487b7100000000000000000000000000000000000000000000000000000000600052601160045260246000fd5b60006104d98261026c565b91506104e48361026c565b9250827fffffffffffffffffffffffffffffffffffffffffffffffffffffffffffffffff038211156105195761051861049f565b5b828201905092915050565b7f4e487b7100000000000000000000000000000000000000000000000000000000600052602260045260246000fd5b6000600282049050600182168061056b57607f821691505b60208210810361057e5761057d610524565b5b5091905056fea264697066735822122093c7c18db23bd68dbaf02b7e5b23ebebea7c9f8e58bb03161395d2743eef483b64736f6c634300080d0033",
  "immutableReferences": {},
  "source": "// SPDX-License-Identifier: MIT\r\npragma solidity >=0.4.22 <0.9.0;\r\n\r\nimport \"@opengsn/contracts/src/BaseRelayRecipient.sol\";\r\n\r\ncontract MyContract is BaseRelayRecipient {\r\n    string public override versionRecipient = \"2.2.0\";\r\n    uint public data = 5;\r\n\r\n    constructor(address _trustedForwarder){\r\n        _setTrustedForwarder(_trustedForwarder);\r\n    }\r\n\r\n    function setMyData(uint val) public {\r\n        data += val;\r\n    }\r\n\r\n    function getMyData() public view returns(uint d){\r\n        return data;\r\n    }\r\n  \r\n}\r\n",
  "sourcePath": "C:\\Users\\nathn\\Desktop\\blockchain supply chain\\blockchain-part\\contracts\\MyContract.sol",
  "compiler": {
    "name": "solc",
    "version": "0.8.13+commit.abaa5c0e.Emscripten.clang"
  },
  "schemaVersion": "3.4.7",
  "updatedAt": "2022-04-18T12:57:59.483Z",
  "networkType": "ethereum",
  "devdoc": {
    "kind": "dev",
    "methods": {},
    "version": 1
  },
  "userdoc": {
    "kind": "user",
    "methods": {
      "isTrustedForwarder(address)": {
        "notice": "return if the forwarder is trusted to forward relayed transactions to us. the forwarder is required to verify the sender's signature, and verify the call is not a replay."
      }
    },
    "version": 1
  }
}